:020000040800F2
:1000000060160020A5020008D1580008D952000847
:10001000CD5800089D040008457600080000000047
:10002000000000000000000000000000455D000826
:100030006D090008000000005D5900080D5E000811
:10004000BF020008BF020008BF020008BF0200088C
:10005000BF020008BF020008BF020008BF0200087C
:10006000BF020008BF020008BF0200082D080008F8
:100070003D080008BF020008BF020008BF020008D8
:10008000BF020008BF020008BF020008BF0200084C
:10009000BF0200088D0900089D090008BF02000882
:1000A000BF020008BF020008BF020008BF0200082C
:1000B000BF020008BF020008BF020008BF0200081C
:1000C000BF020008BF020008BF020008BF0200080C
:1000D000BF020008BF020008BF020008BF020008FC
:1000E00071090008BF020008BF020008BF02000833
:1000F000BF020008BF020008BF020008BF020008DC
:10010000BF020008BF020008BF020008BF020008CB
:10011000BF020008BF0200089D5E0008AD5E000837
:10012000BF020008BF020008BF020008BF020008AB
:10013000BF020008BF020008BF020008BF0200089B
:10014000BF020008BF020008BF020008BF0200088B
:10015000BF020008BF020008BF020008BF0200087B
:10016000BF020008BF020008BF020008BF0200086B
:10017000BF020008BF020008BF020008BF0200085B
:10018000BF020008BF020008BF020008BF0200084B
:10019000BF02000800000000AD090008BD0900080A
:1001A000550A0008650A0008BF020008BF020008DF
:1001B000BF020008BF020008BF020008BF0200081B
:1001C000BF020008BF020008BF020008BF0200080B
:1001D000BF020008BF02000800F002F800F052F869
:1001E00014A696E8000CB244B344DA4501D100F0FD
:1001F00049F8BAE80F000FA696E83000A5EB040511
:1002000004EB0607AAEB0704A7F101074FEA15154F
:100210004FEA3414A4F10104AC4201D300F032F8E7
:1002200013F0010F18BFFB1A43F0010300F001F8AF
:10023000DBE71847D87D0000F87D0000103A24BFA6
:1002400078C878C1FAD8520724BF30C830C144BF3B
:1002500004680C6070470000704700000023002411
:1002600000250026103A28BF78C1FBD8520728BFC6
:1002700030C148BF0B6070471FB507F038FE1FBD87
:1002800010B510BD00F0D0F81146FFF7F5FF07F0EC
:1002900009FE00F0EEF803B4FFF7F2FF03BC00F034
:1002A000F5F800000948804709480047FEE7FEE7E7
:1002B000FEE7FEE7FEE7FEE7FEE7FEE7FEE7FEE716
:1002C00004480549054A064B70470000895E00084E
:1002D000D901000860100020601600206012002084
:1002E0006012002053EA020C00F069802DE9F04B07
:1002F0004FF00006002B1FBFB3FA83F503FA05F495
:1003000024FA05F65E4012BF1643B2FA82F502FAED
:1003100005F4C5F120051EBF22FA05FC44EA0C04D1
:10032000203556EA044C4FEA144418BF641C4FF0C1
:1003300000084FF00009904271EB030C39D30029FB
:1003400019BFB1FA81F701FA07F6B0FA80F700FA9F
:1003500007F6C7F120071EBF20FA07FC46EA0C0685
:100360002037B6FBF4FCA7EB0507103F07F01F0B87
:10037000CBF120062CFA06F60CFA0BFB44BFB34671
:100380000026202FA4BF5E464FF0000B5BEA060C50
:1003900008BF4FF0010B19EB0B0948EB0608ABFB4C
:1003A000027C06FB02CC0BFB03CCC01B71EB0C01E7
:1003B000C1E70B46024641464846BDE8F08B13B5FF
:1003C000084318BF4FF0FF300146AFF30080BDE88F
:1003D0001C4070474FF0000200B513469446964605
:1003E000203922BFA0E80C50A0E80C50B1F1200148
:1003F000BFF4F7AF090728BFA0E80C5048BF0CC0F6
:100400005DF804EB890028BF40F8042B08BF704753
:1004100048BF20F8022B11F0804F18BF00F8012BC5
:100420007047704770477047754600F02BF8AE462E
:1004300005006946534620F00700854618B020B5F0
:10044000FFF73EFFBDE820404FF000064FF00007E9
:100450004FF000084FF0000BAC46ACE8C009ACE828
:10046000C009ACE8C009ACE8C00921F007018D461D
:10047000704710B50446AFF300802046BDE8104039
:10048000FFF709BF004870473800002001491820D5
:10049000ABBEFEE72600020070470000FFE7FEE764
:1004A00080B586B00020059040F60040C4F60000FC
:1004B0004FF4804102F0DCF8012806D1FFE745F651
:1004C0002940C3F68F5005900EE040F60040C4F678
:1004D00000004FF4804102F0CBF820B9FFE74FF065
:1004E0007C500590FFE7FFE700200490FFE70498A9
:1004F000052800F3AA80FFE79DF8100000F0A8F897
:10050000012840F08C80FFE7049A40F21801C2F203
:10051000000100208854049940F64840C2F20000CF
:1005200000EB0110407BC007002877D1FFE704985B
:10053000010147F6AC70C0F60000405880478DF8C6
:100540000F00049940F64840C2F2000000EB011190
:10055000012048739DF80F0000285ED0FFE7049942
:1005600047F6AC70C0F6000000EB0110406870B3B5
:10057000FFE700200290FFE70298049A47F6AC716B
:10058000C0F6000101EB0211896888421ED2FFE724
:10059000049947F6AC70C0F6000000EB0111486802
:1005A000029A805C097B01EB410247F63871C0F684
:1005B00000018B18895C5A789B789DED050A07F03D
:1005C0003BFBFFE7029801300290D5E724E00020D2
:1005D0000190FFE7019817281DDCFFE7BDF8040034
:1005E000049A47F6AC71C0F6000101EB0211097BD9
:1005F00001EB410247F63871C0F600018B18895CA7
:100600005A789B789DED050A07F016FBFFE70198E5
:1006100001300190DEE7FFE7FFE7FFE710E0049914
:1006200040F64840C2F2000000EB01110020487380
:10063000049A40F21801C2F2000101208854FFE739
:10064000FFE704980130049051E706B080BD000038
:1006500082B08DF807009DF8070005280BDCFFE746
:100660009DF8071040F64840C2F2000000EB011070
:10067000007B009002E000200090FFE70098C0B2ED
:1006800002B0704710B58EB047F6087EC0F6000E77
:10069000DEF80000DEF80410DEF80820DEF80C308A
:1006A000DEF810C0DEF814E0CDF834E0CDF830C04C
:1006B0000B930A920991089040F20040C0F200109A
:1006C000079040F20020C0F2001006908020C0F297
:1006D0000020059000200490FFE70498052829DCFD
:1006E000FFE7049A40F6484EC2F2000E0EEB0211EC
:1006F000140108A850F822000090049A05A830F8C8
:100700001200ADF8040000208DF8060002908DF86C
:100710000C008DF80D00DDF800C00198029A039BD3
:100720004EF804C0CB608A604860FFE7049801304F
:100730000490D2E70EB010BD80B540F6CC50C2F2A6
:10074000000040F22401C2F200015022012300F017
:100750009BFA80BD81B000200090FFE7009803283D
:1007600037DCFFE740F64040C2F200000168406815
:10077000DDF800C040F2E013C2F2000303EBCC024C
:10078000526853F83C30C91A904140F2F512891A68
:1007900070F100000CD3FFE70099012000FA01F28C
:1007A00040F2D811C2F200010878104308700BE043
:1007B0000099012000FA01F240F2D811C2F20001C2
:1007C000087890430870FFE7FFE700980130009039
:1007D000C4E740F64040C2F200000168406840F2C1
:1007E0001022C2F2000213685268C91A904140F206
:1007F000D172891A70F1000008D3FFE740F2D011DE
:10080000C2F2000100208870C870FFE701B0704795
:1008100080B540F6CC50C2F2000040F22401C2F292
:1008200000013022012300F02FFA80BD80B540F690
:10083000A840C2F2000000F025FB80BD80B540F664
:100840000850C2F2000000F01DFB80BD84B0039090
:100850000398006840F20741C4F20201884206D8BA
:10086000FFE740F60000C4F20200009005E040F609
:100870002000C4F202000090FFE700980290039865
:10088000007808384CF6CD41CCF6CC41A0FB0110E5
:1008900000090190029803994A6C22F00302104467
:1008A0008864039940F68000C4F20200C86401988D
:1008B00000F01F01012088400399086504B07047CB
:1008C00082B00190019800790090009940F6FC00F8
:1008D000C4F2020000EB810001994865019940F6DD
:1008E0004010C4F2020088650098013800F01F0132
:1008F000012088400199C86502B0704784B0039018
:100900000291019200930398C16C006D48600398B6
:10091000406D28B1FFE70398816DC06D4860FFE727
:100920000398016C406C00F01F0201209040486069
:10093000009803990968486003988068102809D1D5
:10094000FFE701980399096888600298039909688C
:10095000C86008E0029803990968886001980399C3
:100960000968C860FFE704B07047000070470000E6
:1009700080B54FF4005001F0ABFC80BD81B0EFF3C7
:10098000108072B60090FFE7FEE7000080B540F6E9
:100990006850C2F2000000F077FF80BD80B540F6DD
:1009A0006850C2F2000000F06FFF80BD80B540F6D5
:1009B000CC50C2F2000000F067FF80BD80B540F669
:1009C000CC50C2F2000000F05FFF80BD80B58AB05D
:1009D00008900020029002210491012105910390CA
:1009E00040F2011006904FF4FE600790089802A9AB
:1009F00000F094FD20B1FFE702208DF8270024E0ED
:100A00000898694601230B600222114600F0E2FDBE
:100A100018B1FFE7FFF7B2FFFFE708980121C0F226
:100A20000801002200F026FC18B1FFE7FFF7A6FF3F
:100A3000FFE7089801F0DEFB18B1FFE7FFF79EFF24
:100A4000FFE700208DF82700FFE79DF827000AB098
:100A500080BD000080B540F63060C2F2000000F0BA
:100A600013FF80BD80B540F63060C2F2000000F098
:100A70000BFF80BD80B58AB0089000200290022153
:100A800004910591039040F2011006904FF4FE602E
:100A90000790089802A900F041FD20B1FFE702206D
:100AA0008DF8270023E00898694601230B60022295
:100AB000114600F08FFD18B1FFE7FFF75FFFFFE77A
:100AC00008984FF00811002200F0D4FB18B1FFE79E
:100AD000FFF754FFFFE7089801F08CFB18B1FFE720
:100AE000FFF74CFFFFE700208DF82700FFE79DF898
:100AF00027000AB080BD000083B002904AF2004097
:100B0000C4F2000000900298006846F60001C4F2AA
:100B10000001884205D1FFE7009800F5547000906D
:100B2000FFE70298006846F60041C4F200018842DF
:100B300005D1FFE7009800F5D4600090FFE700982A
:100B40000299086402980068D0F8800020F4F81038
:100B5000029A1168526B40EA0240C1F88000009886
:100B600070300299486402980068D0F8800020F044
:100B70007060029A1168926B40EA0260C1F88000CE
:100B80000098B03002998864009800F5C47002990A
:100B9000C864009800F5187002990865009800F57F
:100BA0001E700299486500980190FFE7019800992E
:100BB00001F55471884208D2FFE7019900200860CE
:100BC000FFE7019804300190F0E703B070470000A0
:100BD00088B007900691059204930698406848B93A
:100BE000FFE70698016882680069104340EA814087
:100BF000039009E006980168826800691043084381
:100C000040F080400390FFE70698D0F820C0C1680C
:100C100042698369C06940EA0C601843104340EAA6
:100C2000014002900798406D049901EBC10100EB6F
:100C3000C100019003980199086001980430019067
:100C400002980199086001980430019000200090FA
:100C5000FFE700980699CA6847F67471C0F600016C
:100C6000895C88420DD2FFE70598009940580199A8
:100C70000860019804300190FFE70098043000906C
:100C8000E7E708B07047000080B590B00E900D9176
:100C90000C928DF82F3002A82421FFF79BFB0C98B3
:100CA00002900020039004909DF82F0001460191CE
:100CB000402800F254800199DFE801F02124272A1E
:100CC0002D303336395151513C5151513F515151D1
:100CD0004251515145515151515151514851515128
:100CE0005151515151515151515151514B515151FA
:100CF0005151515151515151515151514E000020BA
:100D0000059030E0012005902DE0022005902AE0BA
:100D10000320059027E00420059024E0052005909D
:100D200021E0062005901EE0072005901BE008202A
:100D3000059018E00920059015E00A20059012E0C2
:100D40000B2005900FE00C2005900CE00D20059085
:100D500009E00E20059006E00F20059003E000203A
:100D60008DF83F001AE04FF0004006904FF48010DD
:100D700007904FF400100890002009900A900E98F8
:100D80000D9A02A900F07CFB20B1FFE700208DF84E
:100D90003F0003E001208DF83F00FFE79DF83F0092
:100DA00010B080BD80B540F6CC50C2F2000040F2D9
:100DB0002401C2F2000190220123FFF765FF80BDEC
:100DC00080B582B0019000208DF80300019890F862
:100DD0002500022811D0FFE701990420C86301997A
:100DE000012081F82500FFE70199002081F8240007
:100DF000FFE701208DF803003FE0019801680868D3
:100E000020F00E00086001980168086820F00100D9
:100E100008600198816C086820F48070086001986F
:100E2000016C406C00F01F02012090404860019866
:100E3000C16C006D48600198406D58B1FFE70198A2
:100E4000416D086820F4807008600198816DC06D64
:100E50004860FFE70199012081F82500FFE701992B
:100E6000002081F82400FFE70198806B20B1FFE7A4
:100E70000198816B8847FFE7FFE79DF8030002B008
:100E800080BD000080B584B003900398006C0068BA
:100E90000290039800680068019002980399496CD9
:100EA00001F01F01C8404007002825D5FFE79DF845
:100EB0000400400700281FD5FFE70398006800687A
:100EC0008006002807D4FFE703980168086820F02F
:100ED00004000860FFE70398016C406C00F01F02FB
:100EE0000420904048600398006B20B1FFE703980E
:100EF000016B8847FFE76EE002980399496C01F0A7
:100F00001F01C840800700282FD5FFE79DF8040087
:100F10008007002829D5FFE703980068006880064D
:100F200000280BD4FFE703980168086820F00A0046
:100F300008600399012081F82500FFE70398016C00
:100F4000406C00F01F02022090404860FFE70399C8
:100F5000002081F82400FFE70398C06A20B1FFE772
:100F60000398C16A8847FFE734E002980399496C07
:100F700001F01F01C8400007002829D5FFE79DF8B0
:100F800004000007002823D5FFE7039801680868DC
:100F900020F00E0008600398026C406C00F01F0106
:100FA000012000FA01F151600399C863039981F8A7
:100FB0002500FFE70399002081F82400FFE703984C
:100FC000406B20B1FFE70398416B8847FFE700E0E3
:100FD000FFE7FFE7FFE704B080BD000080B584B005
:100FE0000290029820B9FFE701208DF80F009CE0E5
:100FF0000298006840F20741C4F20201884218D802
:10100000FFE7029908684FF6F872CBF6FD721044BC
:101010004CF6CD42CCF6CC42A0FB02026FF00300AE
:1010200000EA9200486402990020C4F202000864B9
:1010300018E0029908684FF6F832CBF6FD721044BA
:101040004CF6CD42CCF6CC42A0FB02026FF003007E
:1010500000EA92004864029940F20040C4F20200A3
:101060000864FFE70299022081F8250002980068D1
:1010700000680190019847F6F07188430190029949
:101080008868D1F80CC00B694A6940EA0C00184323
:1010900010438A691043CA691043096A01430198E1
:1010A0000843019001980299096808600298FFF7C7
:1010B000CDFB02988068B0F5804F04D1FFE702991C
:1010C00000204860FFE702990879896C086002985F
:1010D000C16C006D48600298406888B1FFE70298D3
:1010E000406804280CD8FFE70298FFF7E9FB029854
:1010F000416D002008600298816DC06D486007E076
:10110000029900204865029988650299C865FFE741
:1011100002990020C863029A012182F825100299E1
:1011200081F824008DF80F00FFE79DF80F0004B050
:1011300080BD000080B586B00490039102920193B7
:1011400000208DF80300FFE7049890F824000128A0
:1011500004D1FFE702208DF8170065E00499012013
:1011600081F82400FFE7FFE7049890F825000128A4
:101170004BD1FFE70499022081F825000499002053
:10118000C86304980168086820F0010008600498AA
:101190000399029A019BFFF7B1FB0498006B38B1E9
:1011A000FFE704980168086840F00E0008600CE052
:1011B00004980168086820F0040008600498016839
:1011C000086840F00A000860FFE70498806C006837
:1011D000C003002807D5FFE70498816C086840F435
:1011E00080700860FFE70498406D38B1FFE704980D
:1011F000416D086840F480700860FFE7049801685A
:10120000086840F00100086009E0FFE70499002049
:1012100081F82400FFE702208DF80300FFE79DF826
:1012200003008DF81700FFE79DF8170006B080BD9A
:1012300080B584B0039001F033FA029003980190D6
:101240000198013048B1FFE740F22C00C2F20000E3
:101250000168019808440190FFE7FFE701F020FAD8
:101260000299401A0199884201D2FFE7F6E704B0DB
:1012700080BD000086B0049003910292049890F81B
:101280005C008DF80700BDF80C0010F4C07F01D0A1
:10129000FFE7FFE79DF80700012806D0FFE79DF86C
:1012A0000700022840F0DE80FFE704980068806DA8
:1012B00000909DF80C00400730B1FFE79DF800005A
:1012C000C007002847D0FFE79DF80C0010F0380F4A
:1012D00006D0FFE79DF80000800700283BD5FFE718
:1012E000BDF80C0010F4E07F06D0FFE79DF8000089
:1012F000400700282FD5FFE79DF80D0010F01E0FC6
:1013000006D0FFE79DF800000007002823D5FFE77F
:101310009DF80D0010F0E00F06D0FFE79DF80000EB
:10132000C006002817D5FFE79DF80E00800730B1F2
:10133000FFE79DF80000800600280CD5FFE79DF828
:101340000E0010F0FC0F0DD0FFE79DF800004006E6
:10135000002807D4FFE704980168C86D40F0010039
:10136000C865FFE79DF80C00400730B1FFE79DF826
:101370000000C007002847D1FFE79DF80C0010F0DF
:10138000380F06D0FFE79DF80000800700283BD407
:10139000FFE7BDF80C0010F4E07F06D0FFE79DF8F2
:1013A0000000400700282FD4FFE79DF80D0010F043
:1013B0001E0F06D0FFE79DF800000007002823D489
:1013C000FFE79DF80D0010F0E00F06D0FFE79DF855
:1013D0000000C006002817D4FFE79DF80E00800724
:1013E00030B1FFE79DF80000800600280CD4FFE72D
:1013F0009DF80E0010F0FC0F0DD0FFE79DF80000E7
:101400004006002807D5FFE704980168C86D40F042
:101410000200C865FFE79DF80C000006002809D50A
:10142000FFE7029A04980168D1F8DC001043C1F884
:10143000DC00FFE79DF80D00C00748B1FFE7029A06
:1014400004980168D1F8E0001043C1F8E000FFE71C
:10145000039A04980168486D1043486500208DF890
:10146000170008E00499086E40F0020008660120A9
:101470008DF81700FFE79DF8170006B070470000D1
:1014800080B586B00490039102920398406808B931
:10149000FFE700E0FFE7049890F85C0002282FD1F6
:1014A000FFE704980068D0F8C4008002002809D53E
:1014B000FFE70499086E40F40070086601208DF87B
:1014C000170026E004980068D0F8C400C0F301407B
:1014D000019004980399029A019BFFF779FB019907
:1014E000012000FA01F1049A1268C2F8CC100199A7
:1014F000884004998865FFE700208DF8170008E010
:101500000499086E40F00800086601208DF8170065
:10151000FFE79DF8170006B080BD000087B005907A
:101520000491059890F85C008DF803009DF8030085
:10153000012805D0FFE79DF8030002283CD1FFE712
:1015400004980068B8B9FFE704998868CB680A690D
:101550004969800740EAC36040EA024008430390BB
:101560000598006C0499496800EB8100019003988C
:10157000019908601CE00498C168006940EA417064
:10158000039004988168406940EA81700290059850
:10159000406C0499496800EBC100019003980199DF
:1015A0000860019804300190029801990860FFE7F3
:1015B00000208DF81B0008E00599086E40F002003D
:1015C000086601208DF81B00FFE79DF81B0007B09F
:1015D0007047000085B0DDF814C0039002910192BD
:1015E0000093039890F85C00012819D1FFE7039855
:1015F0000068D0F8800020F03F0002990901019AAC
:1016000041EA8201009A41EA4201059A11430843E6
:1016100003990968C1F8800000208DF8130008E0E4
:101620000399086E40F00400086601208DF813004D
:10163000FFE79DF8130005B07047000081B00090EF
:1016400001B0704782B00190009102B07047000075
:101650008AB008900791069205930020019008989F
:1016600090F85C008DF803009DF80300022840F01C
:10167000FA80FFE7079840283ED1FFE70898006806
:10168000D0F89000000748B9FFE70899086E40F4C9
:101690008070086601208DF82700EDE0089800684A
:1016A000D0F8900000F080710120B0EB116F0FD1E5
:1016B000FFE708980068D0F8800000F4007101206E
:1016C000B0EB512F03D1FFE701200190FFE7FFE7C7
:1016D00008980068D0F8900000F44071019800EB81
:1016E000112001900898806C019901EBC10100EB79
:1016F000C1000490FFE73DE008980068D0F898002A
:10170000000748B9FFE70899086E40F48070086642
:1017100001208DF82700AFE008980068D0F8980005
:1017200000F080710120B0EB116F0FD1FFE7089836
:101730000068D0F8800000F480710120B0EB112F18
:1017400003D1FFE701200190FFE7FFE70898006859
:10175000D0F8980000F44071019800EB112001903E
:101760000898C06C019901EBC10100EBC100049025
:10177000FFE7FFE70498006800F0804006994860A2
:101780000698406838B9FFE704980068C0F38A40BB
:101790000699086006E00498006820F06040069909
:1017A0000860FFE70498006800F000500699886020
:1017B0000498006800F0004006990861049804301D
:1017C0000490049800880699C86104980068C0F3E2
:1017D00003400699C8600498006800F480100699D8
:1017E00048610498006800F4001006998861049824
:1017F0000068C0F306600699086204980068C00F8C
:1018000006994862049804300490049803900020DC
:101810000290FFE702980699CA6847F67471C0F60D
:101820000001895C88420AD2FFE70398029A805C33
:1018300005998854FFE7029801300290EAE707987B
:10184000402806D1FFE7019808990968C1F894007B
:1018500005E0019808990968C1F89C00FFE700209D
:101860008DF8270008E00899086E40F00800086627
:1018700001208DF82700FFE79DF827000AB0704788
:1018800081B0009001B0704780B58AB00990099886
:101890000068006D00F4E050089009980068416D00
:1018A00008980840089009980068006D00F007004B
:1018B000079009980068416D0798084007900998BB
:1018C0000068006D00F03800069009980068416DCE
:1018D00006980840069009980068006D00F47100B1
:1018E000059009980068416D059808400590099891
:1018F0000068006D00F46020049009980068416D54
:1019000004980840049009980068406D0190099877
:101910000068006D00909DF8000000F0400100207C
:10192000B0EB911F12D0FFE79DF8040000F04001DA
:101930000020B0EB911F08D0FFE709980168402014
:1019400008650998FFF79CFFFFE7FFE79DF8010096
:10195000C007E0B1FFE79DF80500C007B0B1FFE7A1
:1019600009980068D0F8D800029009980068D0F86B
:10197000E010029808400290099801684FF48070C6
:1019800008650998029900F063FCFFE7FFE70898F3
:1019900048B1FFE708980999096808650998089906
:1019A00000F062FCFFE7079848B1FFE70798099944
:1019B000096808650998079900F0BAFBFFE70698DF
:1019C00048B1FFE7069809990968086509980699DA
:1019D00000F0EEFBFFE79DF8010000F0020100209F
:1019E000B0EB510F13D0FFE79DF8050000F00201A6
:1019F0000020B0EB510F09D0FFE7099801684FF4C0
:101A000000700865099800F035FCFFE7FFE79DF8D6
:101A100000100020B0EBD11F1DD0FFE79DF804108F
:101A20000020B0EBD11F15D0FFE709980068D0F86F
:101A3000D400039009980068D0F8DC10039808409F
:101A4000039009980168802008650998039900F0BF
:101A500005FCFFE7FFE79DF8010000F020010020F2
:101A6000B0EB511F13D0FFE79DF8050000F02001F7
:101A70000020B0EB511F09D0FFE7099801684FF42F
:101A800000500865099800F0DFFBFFE7FFE79DF8CD
:101A900001100020B0EBD11F11D0FFE79DF8051019
:101AA0000020B0EBD11F09D0FFE7099801684FF47F
:101AB00000400865099800F0C3FBFFE7FFE79DF8C9
:101AC000010000F040010020B0EB911F15D0FFE7AE
:101AD0009DF8050000F040010020B0EB911F0BD0F5
:101AE000FFE7099801684FF4804008650999086E7E
:101AF00040F080000866FFE7FFE7049848B1FFE781
:101B0000049809990968086509980499FFF79AFDEE
:101B1000FFE7059850B1FFE705980999096808653E
:101B2000059A0999086E10430866FFE70998006E48
:101B300020B1FFE70998FFF781FDFFE70AB080BDFC
:101B400080B584B00290029820B9FFE701208DF89B
:101B50000F0057E10298006846F20041C4F200010C
:101B6000884201D1FFE7FFE702988068B0F5407F27
:101B700001D1FFE7FFE7029890F85C0040B9FFE76A
:101B80000299002081F85D00029800F03FF9FFE71C
:101B900002980168886920F01000886100F080FDDB
:101BA0000190FFE70298006880690007002815D5BA
:101BB000FFE700F075FD0199401A0B280DD3FFE7F0
:101BC0000299086E40F0010008660299032081F82E
:101BD0005C0001208DF80F0014E1E3E70298016832
:101BE000886940F00100886100F05AFD0190FFE72C
:101BF000029800688069C007A8B9FFE700F050FDAF
:101C00000199401A0B280DD3FFE70299086E40F0A6
:101C1000010008660299032081F85C0001208DF81C
:101C20000F00EFE0E4E702980168886940F00200E5
:101C300088610298006846F20041C4F200018842BF
:101C400008D1FFE70298406846F20051C4F2000153
:101C50000860FFE70298007C012807D1FFE702989F
:101C60000168886920F04000886106E002980168F8
:101C7000886940F040008861FFE70298407C0128B5
:101C800007D1FFE702980168886940F480408861C5
:101C900006E002980168886920F480408861FFE7C7
:101CA0000298807C012807D1FFE7029801688869C3
:101CB00020F48050886106E002980168886940F449
:101CC00080508861FFE702980068806920F44070C6
:101CD000029A1168926810438861029801688869C5
:101CE00020F0A400886102980168086920F01000C3
:101CF00008610298C068012807D1FFE702980168CF
:101D0000886940F0040088612BE00298C06830B315
:101D1000FFE70298C068022819D0FFE7029801681F
:101D2000886940F08000886102980168086940F085
:101D3000100008610298C068032807D1FFE70298E5
:101D40000168886940F020008861FFE706E002989A
:101D50000168886940F020008861FFE700E0FFE744
:101D6000FFE7029A116853699069D2F81CE0A0F16C
:101D7000010C6FF0FF0000EB0E2040EA4C60126A8D
:101D8000013A10430022CFF6FF7202EB03421043E8
:101D9000C86102988068B0F5407F1CD1FFE7029AC5
:101DA0001168536A906AD2F82CE001386FF0FF0C8A
:101DB0000CEB0E2C40EA0C00D2F830C06FF00F0292
:101DC00002EB0C1210430022CFF6FF7202EB03422B
:101DD0001043C860FFE702980168C26BD1F8C000E9
:101DE0001043C1F8C0000298FEF786FE0299002059
:101DF000886502990866029A012182F85C108DF8C4
:101E00000F00FFE79DF80F0004B080BD80B5BAB0A9
:101E100039900020389037903690359034901FA834
:101E20005421FEF7D7FA3998006846F20041C4F20F
:101E30000001884278D1FFE74FF480501F904FF0A7
:101E400000702D901FA800F0CDFD18B1FFE7FEF740
:101E500095FDFFE740F2D410C2F2000001680131A5
:101E600001600068012810D1FFE7FFE741F2580048
:101E7000C4F20200016841F000710160006800F0E6
:101E800000701E901E98FFE7FFE7FFE741F24C004D
:101E9000C4F20200016841F002010160006800F034
:101EA00002001D901D98FFE74FF4807034900220CF
:101EB0001190359001203690032012903790092020
:101EC0001390389040F20040C4F60000149034A9FA
:101ED000159100F019FADDF844C0129B139A14987A
:101EE00015994FF4007ECDF8D0E0CDF8D4C04FF076
:101EF000000CCDF85CC0CDF8D8C03793389200F014
:101F000003FA179A15201690114600F067FC1698F0
:101F100000F05AFC179A16201890114600F05EFC4B
:101F2000189800F051FC01E13998006846F600016C
:101F3000C4F20001884277D1FFE74FF480501F9030
:101F40004FF000702D901FA800F04CFD18B1FFE776
:101F5000FEF714FDFFE740F2D410C2F20000016862
:101F6000013101600068012810D1FFE7FFE741F26D
:101F70005800C4F20200016841F00071016000687D
:101F800000F000701C901C98FFE7FFE7FFE741F2AC
:101F90004C00C4F20200016841F0020101600068D7
:101FA00000F002001B901B98FFE7202034900220D5
:101FB000099035900120369003200A90379009202F
:101FC0000B90389040F20040C4F600000C9034A909
:101FD0000D9100F099F9DDF824C00A9B0B9A0C983A
:101FE0000D994FF0400ECDF8D0E0CDF8D4C04FF0B1
:101FF000000CCDF83CC0CDF8D8C03793389200F033
:1020000083F90F9A56200E90114600F0E7FB0E98C8
:1020100000F0DAFB0F9A57201090114600F0DEFB1B
:10202000109800F0D1FB80E03998006846F6004136
:10203000C4F20001884277D1FFE74FF480501F902F
:102040004FF000702D901FA800F0CCFC18B1FFE7F6
:10205000FEF794FCFFE740F2D410C2F200000168E2
:10206000013101600068012810D1FFE7FFE741F26C
:102070005800C4F20200016841F00071016000687C
:1020800000F000701A901A98FFE7FFE7FFE741F2AF
:102090004C00C4F20200016841F0020101600068D6
:1020A00000F0020019901998FFE7082034900220F0
:1020B00001903590012036900320029037900B203C
:1020C0000390389040F20040C4F60000049034A918
:1020D000059100F019F9DDF804C0029B039A0498F9
:1020E00005994FF0100ECDF8D0E0CDF8D4C04FF0E8
:1020F000000CCDF81CC0CDF8D8C03793389200F052
:1021000003F9079A58200690114600F067FB0698DD
:1021100000F05AFB079A59200890114600F05EFB28
:10212000089800F051FBFFE7FFE7FFE73AB080BDFA
:1021300080B584B003900291039840F66851C2F2D2
:102140000001884214D1FFE740F66850C2F2000057
:10215000019040F2D802C2F2000240F29803C2F2AB
:1021600000034021FFF774FA019803F01FFD1CE003
:10217000039840F6CC51C2F20001884214D1FFE727
:1021800040F6CC50C2F20000009040F24012C2F281
:10219000000240F20013C2F200034021FFF758FA98
:1021A000009803F003FDFFE7FFE704B080BD0000E7
:1021B00080B584B003900291039840F63061C2F27A
:1021C0000001884214D1FFE740F63060C2F20000FF
:1021D000019040F2A812C2F2000240F26813C2F26B
:1021E00000034121FFF734FA019803F0DFFCFFE719
:1021F00004B080BD82B00090009890F85C00012887
:1022000010D1FFE70099022081F85C000098016876
:10221000886920F0010088610099002008668DF827
:10222000070008E00099086E40F0040008660120ED
:102230008DF80700FFE79DF8070002B07047000027
:1022400081B0009001B0704781B0009001B070473C
:1022500082B00190009102B07047000082B00190FE
:10226000009102B07047000082B00190009102B06E
:102270007047000081B0009001B0704780B582B017
:10228000ADF80600BDF80600B0F5005F1DD1FFE710
:1022900040F60040C4F600004FF4005100F0E8F9A9
:1022A000012803D1FFE7FEF77DFD0DE040F6004079
:1022B000C4F600004FF4005100F0DAF918B9FFE756
:1022C00003F00CF8FFE7FFE7FFE702B080BD000076
:1022D00080B582B0ADF8060040F21440C4F20100AF
:1022E0000068BDF8061008420CD0FFE7BDF80600F4
:1022F00040F21441C4F201010860BDF80600FFF786
:10230000BDFFFFE702B080BD8BB00A9009910020AD
:102310000890FFE7099800680899C840002800F075
:10232000A581FFE709980068089A012191400840BB
:1023300007900798002800F09581FFE7099840680A
:1023400000F00300012807D0FFE70998406800F07B
:10235000030002282FD1FFE70A98806806900898AA
:102360004100032000FA01F106988843069009987D
:10237000C0680899490000FA01F1069808430690E0
:1023800006980A9988600A98406806900899012082
:1023900000FA01F106988843069009984068C0F356
:1023A0000010089900FA01F1069808430690069873
:1023B0000A994860FFE70998406800F00300032885
:1023C00018D0FFE70A98C0680690089841000320DB
:1023D00000FA01F1069888430690099880680899E8
:1023E000490000FA01F106980843069006980A99F8
:1023F000C860FFE70998406800F00300022826D172
:10240000FFE70A9808996FF0030202EA51010844B5
:10241000006A0690089800F0070081000F2000FA7B
:1024200001F106988843069009980069089901F01F
:102430000701890000FA01F1069808430690069802
:102440000A99089B02EA530211440862FFE70A98BE
:102450000068069008984100032000FA01F10698F0
:10246000884306900998406800F0030008994900E5
:1024700000FA01F106980843069006980A99086048
:10248000099880798007002800F0EB80FFE7FFE7DC
:1024900041F26000C4F20200016841F001010160F4
:1024A000006800F0010005900598FFE7089820F00B
:1024B00003000821C4F2010140580690089800F07A
:1024C000030081000F2000FA01F10698884306906E
:1024D0000A98B0F1904F03D1FFE70020049042E04A
:1024E0000A9840F20041C4F60001884203D1FFE798
:1024F0000120039034E00A9840F60001C4F6000180
:10250000884203D1FFE70220029026E00A9840F6B5
:102510000041C4F60001884203D1FFE70320019087
:1025200018E00A9841F20001C4F60001884203D184
:10253000FFE7042000900AE00A9941F20042C4F645
:1025400000020620914208BF05200090FFE7009896
:102550000190FFE701980290FFE702980390FFE7E0
:1025600003980490FFE70498089901F0030189009B
:1025700000FA01F10698084306900698089921F0A0
:1025800003010822C4F20102885040F20840C4F25C
:1025900001000068069007990698884306900998FC
:1025A0008079C006002805D5FFE7079906980843FB
:1025B0000690FFE7069840F20841C4F20101086066
:1025C00040F20C40C4F2010000680690079906989A
:1025D00088430690099880798006002805D5FFE792
:1025E0000799069808430690FFE7069840F20C41C9
:1025F000C4F20101086040F20440C4F20100006826
:102600000690079906988843069009988079800774
:10261000002805D5FFE70799069808430690FFE7CD
:10262000069840F20441C4F20101086040F2004003
:10263000C4F2010000680690079906988843069046
:1026400009988079C00728B1FFE7079906980843E1
:102650000690FFE7069840F20041C4F201010860CD
:10266000FFE7FFE708980130089053E60BB070478A
:1026700082B00190ADF8021001980069BDF8021017
:10268000084204D0FFE701208DF8010003E000209C
:102690008DF80100FFE79DF8010002B070470000CF
:1026A00041F25800C2F200000068704740F22C006E
:1026B000C2F20000026841F25801C2F2000108684B
:1026C000104408607047000080B582B000208DF88B
:1026D0000700032000F09AF80F2000F00DF820B159
:1026E000FFE701208DF8070002E000F049F8FFE75E
:1026F0009DF8070002B080BD80B582B00190002037
:102700008DF8030040F22C00C2F20000006878B39C
:10271000FFE740F22000C2F20000006840F22C0106
:10272000C2F200010A684FF47A71B1FBF2F1B0FB1A
:10273000F1F001F005FAB0B9FFE701980F280DD8C4
:10274000FFE701994FF0FF30002200F047F80198B1
:1027500040F23001C2F20001086003E001208DF870
:102760000300FFE703E001208DF80300FFE703E02B
:1027700001208DF80300FFE79DF8030002B080BD43
:1027800080B582B0FFE741F26000C4F20200016848
:1027900041F001010160006800F001000190019822
:1027A000FFE7FFE741F25800C4F20200016841F080
:1027B00080510160006800F0805000900098FFE7B1
:1027C00000F006F902B080BD80B582B08DF8070038
:1027D0009DF9070005F006FB02B080BD80B586B00C
:1027E0008DF817000491039205F014FB02909DF9F7
:1027F0001700019002980499039A03F06BF80146C0
:10280000019805F00FFB06B080BD000080B582B0D6
:102810000190019805F028FB02B080BD85B00390BF
:10282000039800285ED1FFE747F20000C4F20000E1
:10283000006800F4C060B0F5806F49D1FFE747F24F
:102840008001C4F20001086820F48070086047F23B
:102850000002C4F200021168012060F34A211160F5
:1028600040F22001C2F200010968322251434DF6C4
:102870008362C4F21B32A1FB022100EB9140029063
:10288000FFE747F21400C4F2000001680020490588
:102890000029019006D5FFE70298002818BF012003
:1028A0000190FFE70198C00720B1FFE702980138C7
:1028B0000290E6E747F21400C4F200000068400509
:1028C000002804D5FFE703208DF813007CE008E022
:1028D00047F28001C4F20001086820F480700860AB
:1028E000FFE76DE00398B0F5007F5ED1FFE747F2A8
:1028F0000000C4F20000006800F4C060B0F5806F12
:1029000049D1FFE747F28001C4F20001086840F4B2
:102910008070086047F20002C4F2000211680120D2
:1029200060F34A21116040F22001C2F200010968FF
:10293000322251434DF68362C4F21B32A1FB0221C5
:1029400000EB91400290FFE747F21400C4F2000050
:102950000168002049050029009006D5FFE702988C
:10296000002818BF01200090FFE70098C00720B1A1
:10297000FFE7029801380290E6E747F21400C4F23C
:10298000000000684005002804D5FFE703208DF80B
:10299000130019E008E047F28001C4F20001086862
:1029A00040F480700860FFE709E047F20001C4F2DC
:1029B00000010868022262F34A200860FFE7FFE78F
:1029C00000208DF81300FFE79DF8130005B0704755
:1029D00047F20801C4F20001086840F48040086032
:1029E0007047000080B586B0059000208DF80B0080
:1029F0008DF80A00059880780007002840F1B5801E
:102A0000FFE700208DF8090041F25800C4F20200EF
:102A10000068C000002813D4FFE7FFE741F2580028
:102A2000C4F20200016841F080510160006800F0CA
:102A3000805001900198FFE701208DF80900FFE721
:102A400047F20001C4F20001086840F48070086099
:102A5000FFF726FE0390FFE747F20000C4F20000F4
:102A60000068C00500280CD4FFE7FFF719FE0399A2
:102A7000401A032804D3FFE703208DF80B0000E081
:102A8000EAE79DF80B0000285BD1FFE741F29000D8
:102A9000C4F20200006800F4407004900498C8B1C9
:102AA000FFE704980599096D884213D0FFE741F2CA
:102AB0009001C4F20201086820F440700490086894
:102AC00040F480300860086820F480300860049882
:102AD0000860FFE79DF81000C007E0B1FFE7FFF7CF
:102AE000DFFD0390FFE741F29000C4F202000068AE
:102AF000800700280ED4FFE7FFF7D2FD0399401AA4
:102B000041F28931884204D3FFE703208DF80B009E
:102B100000E0E8E7FFE79DF80B0060B9FFE741F24E
:102B20009001C4F20201086820F44070059A126D09
:102B30001043086004E09DF80B008DF80A00FFE7E1
:102B400004E09DF80B008DF80A00FFE79DF80900EE
:102B5000012809D1FFE741F25801C4F202010868D7
:102B600020F080500860FFE7FFE705980078C00775
:102B700060B1FFE741F28801C4F20201086820F069
:102B80000300059A526810430860FFE70598007833
:102B9000800700280CD5FFE741F28801C4F202014A
:102BA000086820F00C00059A926810430860FFE75F
:102BB00005980078400700280CD5FFE741F288010E
:102BC000C4F20201086820F03000059AD268104370
:102BD0000860FFE705980078000700280CD5FFE79C
:102BE00041F28801C4F20201086820F0C000059A91
:102BF000126910430860FFE705980078C0060028B6
:102C00000CD5FFE741F28801C4F20201086820F404
:102C10004070059A526910430860FFE705980078F4
:102C2000800600280CD5FFE741F28801C4F20201BA
:102C3000086820F44060059A926910430860FFE735
:102C400005980078400600280CD5FFE741F288017E
:102C5000C4F20201086820F44050059AD26910437A
:102C60000860FFE705980078000600280CD5FFE70C
:102C700041F28801C4F20201086820F44040059A3C
:102C8000126A10430860FFE705984078C00760B1FA
:102C9000FFE741F28801C4F20201086820F44030E5
:102CA000059A526A10430860FFE70598807880070C
:102CB00000280CD5FFE741F29C01C4F2020108682C
:102CC00020F00300059A926A10430860FFE7059818
:102CD0004078800700280CD5FFE741F28801C4F254
:102CE0000201086820F44020059AD26A1043086067
:102CF000FFE705984078400700281BD5FFE741F221
:102D00008801C4F20201086820F44010059A126B91
:102D1000104308600598006BB0F5801F09D1FFE7EC
:102D200041F20C01C4F20201086840F4801008600E
:102D3000FFE7FFE705984078000700281BD5FFE76D
:102D400041F28801C4F20201086820F44000059AAB
:102D5000526B104308600598406BB0F5800F09D1A5
:102D6000FFE741F20C01C4F20201086840F4801050
:102D70000860FFE7FFE705984078C00600281BD5EC
:102D8000FFE741F28801C4F20201086820F04070B8
:102D9000059A926B104308600598806BB0F1807FB4
:102DA00009D1FFE741F20C01C4F20201086840F4C6
:102DB00080100860FFE7FFE705984078800600284C
:102DC0001BD5FFE741F28801C4F20201086820F038
:102DD0004060059AD26B104308600598C06BB0F153
:102DE000006F09D1FFE741F20C01C4F2020108684B
:102DF00040F480100860FFE7FFE705984078400640
:102E000000281BD5FFE741F28801C4F202010868DF
:102E100020F04060059A126C104308600598006C21
:102E2000B0F1006F09D1FFE741F20C01C4F20201D9
:102E3000086840F480100860FFE7FFE705984078D5
:102E4000000600281BD5FFE741F28801C4F2020109
:102E5000086820F04050059A526C104308600598AD
:102E6000406CB0F1805F09D1FFE741F20C01C4F280
:102E70000201086840F480300860FFE7FFE705982A
:102E80008078C007D8B1FFE741F28801C4F202019F
:102E9000086820F04040059A926C1043086005983D
:102EA000806CB0F1804F09D1FFE741F20C01C4F210
:102EB0000201086840F480300860FFE7FFE70598EA
:102EC0008078400700281BD5FFE741F29C01C4F23F
:102ED0000201086820F44010059AD26C1043086083
:102EE0000598C06CB0F5001F09D1FFE741F20C0155
:102EF000C4F20201086840F480100860FFE7FFE7B1
:102F00009DF80A0006B080BD80B586B0049003919C
:102F100000200090049820B9FFE701208DF81700E9
:102F200081E1039842F20001C4F20201096801F054
:102F30000F01884216D9FFE742F20000C4F20200F6
:102F4000016821F00F01039A11430160006800F04D
:102F50000F000399884204D0FFE701208DF8170085
:102F600061E1FFE704980078C007002800F0A38023
:102F7000FFE704984068032839D1FFE741F20000D9
:102F8000C4F2020000688001002804D4FFE7012099
:102F90008DF8170047E102F01BFD019001984BF2FC
:102FA0000141C0F2C441884220D3FFE741F208004A
:102FB000C4F20200006810F0F00F0AD0FFE7049896
:102FC00000788007002810D5FFE70498806860B972
:102FD000FFE741F20801C4F202010868082262F327
:102FE0000710086080200090FFE7FFE738E00498B2
:102FF000406802280ED1FFE741F20000C4F202004F
:1030000000688003002804D4FFE701208DF8170032
:1030100009E10DE041F20000C4F202000068400541
:10302000002804D4FFE701208DF81700FBE0FFE73C
:1030300000F02CF9019001984BF20141C0F2C4411B
:1030400088420CD3FFE741F20801C4F2020108688C
:10305000082262F30710086080200090FFE7FFE776
:1030600041F20801C4F20201086820F00300049A4A
:10307000526810430860FFF713FB0290FFE741F22C
:103080000800C4F20200006800F00C0004994968CE
:10309000B0EB810F0ED0FFE7FFF702FB0299401A59
:1030A00041F28931884204D3FFE703208DF81700ED
:1030B000B9E0E4E7FFE704980078800700282CD502
:1030C000FFE7049800784007002809D5FFE741F2A0
:1030D0000801C4F20201086840F4E0600860FFE7FC
:1030E00004980078000700280BD5FFE741F208019B
:1030F000C4F20201086840F4E06020F46050086007
:10310000FFE741F20801C4F20201086820F0F00074
:10311000049A9268104308600DE00098802809D155
:10312000FFE741F20801C4F20201086820F0F00054
:103130000860FFE7FFE7039842F20001C4F20201D2
:10314000096801F00F01884228D2FFE742F200012E
:10315000C4F20201086820F00F00039A10430860CF
:10316000FFF79EFA0290FFE742F20000C4F202006D
:10317000006800F00F00039988420ED0FFE7FFF7C8
:103180008FFA0299401A41F28931884204D3FFE74D
:1031900003208DF8170046E0E6E7FFE70498007883
:1031A000400700280CD5FFE741F20801C4F20201F4
:1031B000086820F4E060049AD26810430860FFE7D2
:1031C00004980078000700280DD5FFE741F20801B8
:1031D000C4F20201086820F46050049A126940EABF
:1031E000C2000860FFE700F051F841F20801C4F2A4
:1031F00002010968C9B20A0947F62071C0F6000148
:10320000895C01F01F01C84040F22001C2F20001B8
:10321000086040F23000C2F200000068FFF76CFA6C
:103220008DF81700FFE79DF8170006B080BD00007D
:1032300040F22000C2F200000068704780B5FFF73E
:10324000F7FF41F20801C4F202010968C1F302224A
:1032500047F63071C0F60001895C01F01F01C840DB
:1032600080BD000080B5FFF7E3FF41F20801C4F222
:1032700002010968C1F3C22247F63071C0F60001AD
:10328000895C01F01F01C84080BD000086B041F29A
:103290000800C4F20200006800F00C00042806D107
:1032A000FFE742F20040C0F2F400019069E041F211
:1032B0000800C4F20200006800F00C00082806D1E3
:1032C000FFE747F64000C0F27D10019058E041F260
:1032D0000800C4F20200006800F00C000C284BD17A
:1032E000FFE741F20C00C4F20200016801F00301A3
:1032F00004910068C1B2012000EB11100290049803
:103300000090022815D0FFE70098032812D1FFE7AC
:10331000029947F64000C0F27D10B0FBF1F041F297
:103320000C01C4F202010968C1F30621484305906B
:1033300011E0FFE7029942F20040C0F2F400B0FB56
:10334000F1F041F20C01C4F202010968C1F3062157
:1033500048430590FFE741F20C00C4F20200006808
:1033600000F0C061022000EB116003900598039902
:10337000B0FBF1F0019002E000200190FFE7FFE7D1
:10338000FFE7019806B07047B0B588B00690069880
:1033900020B9FFE701208DF81F00CCE306980078E4
:1033A000C007002800F09B80FFE741F20800C4F24C
:1033B0000200006800F00C00049041F20C00C4F21E
:1033C0000200006800F00300039004980C2804D168
:1033D000FFE70398032804D0FFE70498082812D1D8
:1033E000FFE741F20000C4F20200006880030028F9
:1033F00008D5FFE70698406820B9FFE701208DF85F
:103400001F0098E36AE0FFE706984068B0F5803F48
:1034100009D1FFE741F20001C4F20201086840F45B
:103420008030086020E006984068B0F5A02F0DD1EC
:10343000FFE741F20001C4F20201086840F4802075
:103440000860086840F4803008600CE041F2000138
:10345000C4F20201086820F480300860086820F493
:1034600080200860FFE7FFE7FFE706984068D0B1DB
:10347000FFE7FFF715F90590FFE741F20000C4F2FE
:1034800002000068800300280CD4FFE7FFF708F96A
:103490000599401A652804D3FFE703208DF81F0023
:1034A00049E3EAE719E0FFF7FBF80590FFE741F28F
:1034B0000000C4F202000068800300280CD5FFE77A
:1034C000FFF7EEF80599401A652804D3FFE70320BB
:1034D0008DF81F002FE3EAE7FFE7FFE7FFE7069815
:1034E00000788007002840F19F80FFE741F2080044
:1034F000C4F20200006800F00C00049041F20C00DD
:10350000C4F20200006800F00300039004980C2845
:1035100004D1FFE70398022804D0FFE704980428A9
:103520002CD1FFE741F20000C4F202000068400520
:10353000002808D5FFE70698C06820B9FFE70120FA
:103540008DF81F00F7E241F20401C4F2020108689D
:1035500020F0FE40069A126940EA0260086040F2DC
:103560003000C2F200000068FFF7C6F820B1FFE7A4
:1035700001208DF81F00DEE2FFE754E00698C068E6
:1035800070B3FFE741F20001C4F20201086840F4A1
:1035900080700860FFF784F80590FFE741F20000B3
:1035A000C4F202000068400500280CD4FFE7FFF7D2
:1035B00077F80599401A032804D3FFE703208DF814
:1035C0001F00B8E2EAE741F20401C4F20201086810
:1035D00020F0FE40069A126940EA0260086021E08D
:1035E00041F20001C4F20201086820F48070086012
:1035F000FFF756F80590FFE741F20000C4F2020021
:103600000068400500280CD5FFE7FFF749F8059949
:10361000401A032804D3FFE703208DF81F008AE235
:10362000EAE7FFE7FFE7FFE70698007800070028D2
:1036300049D5FFE70698406910B3FFE741F29401CE
:10364000C4F20201086840F001000860FFF728F8A2
:103650000590FFE741F29400C4F202000068800781
:1036600000280CD4FFE7FFF71BF80599401A032840
:1036700004D3FFE703208DF81F005CE2EAE721E0B6
:1036800041F29401C4F20201086820F001000860D0
:10369000FFF706F80590FFE741F29400C4F202003C
:1036A0000068800700280CD5FFE7FEF7F9FF0599B1
:1036B000401A032804D3FFE703208DF81F003AE2E5
:1036C000EAE7FFE7FFE7069800784007002840F1A7
:1036D000C680FFE700208DF80B0041F25800C4F2CD
:1036E00002000068C000002813D4FFE7FFE741F2A2
:1036F0005800C4F20200016841F080510160006886
:1037000000F0805001900198FFE701208DF80B0038
:10371000FFE747F20000C4F200000068C00500287F
:1037200022D4FFE747F20001C4F20001086840F428
:1037300080700860FEF7B4FF0590FFE747F20000D5
:10374000C4F200000068C00500280CD4FFE7FEF7B3
:10375000A7FF0599401A032804D3FFE703208DF83B
:103760001F00E8E1EAE7FFE7FFE706988068012825
:1037700009D1FFE741F29001C4F20201086840F06C
:10378000010008601FE00698806805280DD1FFE75A
:1037900041F29001C4F20201086840F004000860A0
:1037A000086840F0010008600CE041F29001C4F2AA
:1037B0000201086820F001000860086820F0040099
:1037C0000860FFE7FFE7FFE706988068E0B1FFE7E2
:1037D000FEF766FF0590FFE741F29000C4F2020099
:1037E0000068800700280ED4FFE7FEF759FF05990F
:1037F000401A41F28931884204D3FFE703208DF853
:103800001F0098E1E8E71BE0FEF74AFF0590FFE79D
:1038100041F29000C4F202000068800700280ED533
:10382000FFE7FEF73DFF0599401A41F289318842D2
:1038300004D3FFE703208DF81F007CE1E8E7FFE7F2
:103840009DF80B00012809D1FFE741F25801C4F2AD
:103850000201086820F080500860FFE7FFE7069843
:1038600000788006002849D5FFE70698806910B3E4
:10387000FFE741F29801C4F20201086840F001003C
:103880000860FEF70DFF0590FFE741F29800C4F2D3
:1038900002000068800700280CD4FFE7FEF700FF55
:1038A0000599401A032804D3FFE703208DF81F0071
:1038B00041E1EAE721E041F29801C4F2020108681F
:1038C00020F001000860FEF7EBFE0590FFE741F2F3
:1038D0009800C4F202000068800700280CD5FFE7BA
:1038E000FEF7DEFE0599401A032804D3FFE7032004
:1038F0008DF81F001FE1EAE7FFE7FFE70698C069C0
:10390000002800F01481FFE741F20800C4F2020031
:10391000006800F00C000C2800F0B080FFE706986B
:10392000C06902287CD1FFE741F20001C4F2020124
:10393000086820F080700860FEF7B2FE0590FFE78F
:1039400041F20000C4F202000068800100280CD59A
:10395000FFE7FEF7A5FE0599401A032804D3FFE709
:1039600003208DF81F00E6E0EAE741F20C01C4F203
:103970000201086848F20C02C0F29F121040DDF804
:1039800018C0DCF82020DCF82450DCF828E0DCF853
:103990002C306FF00F0404EB0514224342EA0E2290
:1039A000DCF8304040F2000ECFF6E07E0EEA045E16
:1039B000AEF5001E42EA0E02DCF834E04FF07E4C19
:1039C0000CEA0E6C0CF17E4C42EA0C0242EAC36235
:1039D0001043086041F20002C4F20202106840F095
:1039E00080701060086840F080700860FEF758FE34
:1039F0000590FFE741F20000C4F202000068800178
:103A000000280CD4FFE7FEF74BFE0599401A032867
:103A100004D3FFE703208DF81F008CE0EAE72CE0D9
:103A200041F20001C4F20201086820F080700860D1
:103A3000FEF736FE0590FFE741F20000C4F20200F7
:103A40000068800100280CD5FFE7FEF729FE0599E4
:103A5000401A032804D3FFE703208DF81F006AE013
:103A6000EAE741F20C01C4F2020108684FF6FC7269
:103A7000CFF6EE6210400860FFE757E00698C06995
:103A8000012804D1FFE701208DF81F0053E041F227
:103A90000C00C4F2020000680390039800F00300D9
:103AA0000699096A88423BD1FFE7039800F0F000CD
:103AB00006994A6A6FF00F0101EB021188422FD17B
:103AC000FFE7039800F4FE400699896AB0EB012FE6
:103AD00026D1FFE7039800F078400699C96AB0EB59
:103AE000C16F1DD1FFE7039800F4C00006990A6B6F
:103AF0000021CFF6E07101EA0251A1F500118842E0
:103B00000ED1FFE7039800F0C06006994A6B4FF0B2
:103B10007E4101EA026101F17E41884204D0FFE763
:103B200001208DF81F0006E0FFE7FFE7FFE7002018
:103B30008DF81F00FFE79DF81F0008B0B0BD000022
:103B400080B582B00190019802F036F902B080BDD4
:103B500081B0009001B0704781B0009001B0704713
:103B600081B0009001B0704781B0009001B0704703
:103B700081B0009001B0704781B0009001B07047F3
:103B800085B003900291FFE7039890F83C0001286C
:103B900004D1FFE702208DF81300A7E0039901206C
:103BA00081F83C00FFE7FFE70399022081F83D0020
:103BB000039800684068019003980068806800904E
:103BC0000398006842F60041C4F20101884212D015
:103BD000FFE70398006843F20041C4F20101884204
:103BE00009D0FFE70398006845F20001C4F2010123
:103BF00088420AD1FFE7019820F4700001900298F2
:103C00004168019808430190FFE701984FF68F71D2
:103C1000CFF6FF51084001900298016801980843CF
:103C2000019001980399096848600398006842F67A
:103C30000041C4F2010188423CD0FFE703980068CC
:103C4000B0F1804F36D0FFE70398006840F20041A2
:103C5000C4F2000188422DD0FFE70398006840F6C7
:103C60000001C4F20001884224D0FFE703980068F5
:103C700040F60041C4F2000188421BD0FFE70398E0
:103C8000006843F20041C4F20101884212D0FFE70C
:103C90000398006844F20001C4F20101884209D08F
:103CA000FFE70398006845F20001C4F20101884271
:103CB0000ED1FFE7009820F0800000900298816804
:103CC0000098084300900098039909688860FFE70E
:103CD0000399012081F83D00FFE70399002081F856
:103CE0003C00FFE700208DF81300FFE79DF813006C
:103CF00005B0704781B0009001B0704780B582B0C8
:103D00000090009820B9FFE701208DF8070045E0FA
:103D1000009890F83D0040B9FFE70099002081F835
:103D20003C00009800F03EF8FFE70099022081F87F
:103D30003D00009951F8040B02F0C0F800990120F1
:103D400081F84800FFE70099012081F83E000099C2
:103D500081F83F00009981F84000009981F8410006
:103D6000009981F84200009981F84300FFE7FFE7DE
:103D70000099012081F84400009981F845000099DC
:103D800081F84600009981F84700FFE7009901207B
:103D900081F83D0000208DF80700FFE79DF807003F
:103DA00002B080BD80B58AB0099009980068B0F172
:103DB000804F3CD1FFE7FFE741F25800C4F2020018
:103DC000016841F001010160006800F00100089005
:103DD0000898FFE740F6A840C2F2000004900821CE
:103DE000C4F202010160382141601021816000218C
:103DF000C160802202614FF4007242614FF40062A0
:103E00008261C1614FF400510162FDF7E7F818B11A
:103E1000FFE7FCF7B3FDFFE7FFE7099840F6A8418D
:103E2000C2F20001416209988862FFE78BE00998BD
:103E3000006840F60041C4F2000188423CD1FFE72F
:103E4000FFE741F25800C4F20200016841F00801A6
:103E50000160006800F0080007900798FFE740F64F
:103E60000850C2F2000003901C21C4F2020101605C
:103E700049214160102181600021C16080220261DE
:103E80004FF4007242614FF400628261C1614FF4ED
:103E900000510162FDF7A2F818B1FFE7FCF76EFDD3
:103EA000FFE7FFE7099840F60851C2F2000181627E
:103EB00009988862FFE745E00998006841F200012F
:103EC000C4F20001884219D1FFE7FFE741F2580030
:103ED000C4F20200016841F010010160006800F0C6
:103EE000100006900698FFE7362002900022114647
:103EF000FEF774FC0298FEF767FC22E00998006860
:103F000041F20041C4F20001884219D1FFE7FFE706
:103F100041F25800C4F20200016841F02001016042
:103F2000006800F0200005900598FFE73720019019
:103F300000221146FEF752FC0198FEF745FCFFE710
:103F4000FFE7FFE7FFE70AB080BD000083B0019004
:103F5000019890F83D00012804D0FFE701208DF87A
:103F60000B0072E00199022081F83D000198016880
:103F7000C86840F00100C8600198006842F600413E
:103F8000C4F2010188423CD0FFE701980068B0F11B
:103F9000804F36D0FFE70198006840F20041C4F23C
:103FA000000188422DD0FFE70198006840F600012B
:103FB000C4F20001884224D0FFE70198006840F66F
:103FC0000041C4F2000188421BD0FFE7019800685D
:103FD00043F20041C4F20101884212D0FFE7019888
:103FE000006844F20001C4F20101884209D0FFE7F1
:103FF0000198006845F20001C4F20101884219D11C
:10400000FFE70198006880680721C0F201010840BD
:104010000090009806280CD0FFE70098B0F5803F8C
:1040200007D0FFE701980168086840F001000860C8
:10403000FFE706E001980168086840F001000860A9
:10404000FFE700208DF80B00FFE79DF80B0003B0A1
:104050007047000080B586B00490039100208DF871
:104060000B00FFE7049890F83C00012804D1FFE71B
:1040700002208DF81700E7E00499012081F83C0048
:10408000FFE7FFE70499022081F83D0004980068EB
:104090008068019001984FF68871CFF6CE71084084
:1040A0000190019820F47F400190019804990968DB
:1040B0008860039800680090002800F0AB80FFE75C
:1040C0000098102800F0A680FFE70098202800F054
:1040D000A180FFE70098302800F09C80FFE700985F
:1040E000402800F08A80FFE7009850286BD0FFE757
:1040F0000098602874D0FFE7009870283FD0FFE751
:104100000098B0F5805F39D0FFE70098B0F5005F08
:104110004AD0FFE70098B0F5801F7BD0FFE70098FA
:10412000B0F1101F76D0FFE700982021C0F21001F7
:1041300088426FD0FFE700983021C0F2100188421A
:1041400068D0FFE700984021C0F21001884261D09A
:10415000FFE700985021C0F2100188425AD0FFE7D3
:1041600000986021C0F21001884253D0FFE7009808
:104170007021C0F2100188424CD052E055E0049802
:104180000068039B5A689968DB6802F08DF8049810
:10419000006880680190019840F0770001900198D4
:1041A00004990968886040E004980068039B5A6895
:1041B0009968DB6802F078F804980168886840F430
:1041C0008040886031E004980068039A5168D268A2
:1041D00002F092FC04980068502102F07FF824E07D
:1041E00004980068039A5168D26802F0ADFC049804
:1041F0000068602102F072F817E004980068039AE2
:104200005168D26802F078FC04980068402102F0FE
:1042100065F80AE0049800680399096802F05EF8FE
:1042200003E001208DF80B00FFE70499012081F8DD
:104230003D00FFE70499002081F83C00FFE79DF86E
:104240000B008DF81700FFE79DF8170006B080BD42
:1042500081B0009001B0704781B0009001B070470C
:1042600080B584B0039003980068C06802900398FA
:104270000068006901909DF804008007002824D59B
:10428000FFE79DF80800800700281DD5FFE7039889
:1042900001686FF002000861039901200877039814
:1042A00000688069800720B1FFE70398FFF7D4FF1B
:1042B00006E0039800F0B2F9039800F0E3FAFFE794
:1042C000039900200877FFE7FFE79DF80400400707
:1042D000002825D5FFE79DF80800400700281ED5D7
:1042E000FFE7039801686FF004000861039902205A
:1042F000087703980068806910F4407F04D0FFE7D6
:104300000398FFF7A9FF06E0039800F087F90398E8
:1043100000F0B8FAFFE7039900200877FFE7FFE70E
:104320009DF804000007002824D5FFE79DF8080049
:10433000000700281DD5FFE7039801686FF008000B
:10434000086103990420087703980068C069800712
:1043500020B1FFE70398FFF77FFF06E0039800F026
:104360005DF9039800F08EFAFFE7039900200877C3
:10437000FFE7FFE79DF80400C006002825D5FFE70A
:104380009DF80800C00600281ED5FFE703980168C5
:104390006FF01000086103990820087703980068FF
:1043A000C06910F4407F04D0FFE70398FFF754FF83
:1043B00006E0039800F032F9039800F063FAFFE793
:1043C000039900200877FFE7FFE79DF80400C00786
:1043D00078B1FFE79DF80800C00748B1FFE70398F0
:1043E00001686FF001000861039800F0D3FDFFE75A
:1043F000FFE7019800F08000802806D0FFE79DF8D5
:1044000005008006002810D5FFE79DF8080000068B
:10441000002809D5FFE7039801686FF4025008618E
:104420000398FFF799FBFFE7FFE79DF80500C0073A
:1044300080B1FFE79DF808000006002809D5FFE7D6
:10444000039801686FF4807008610398FFF780FBA0
:10445000FFE7FFE79DF804004006002810D5FFE7BE
:104460009DF808004006002809D5FFE70398016879
:104470006FF040000861039800F0B6FDFFE7FFE72A
:104480009DF804008006002810D5FFE79DF808007D
:104490008006002809D5FFE7039801686FF0200027
:1044A00008610398FFF75CFBFFE7FFE79DF8060054
:1044B000C006002810D5FFE79DF80A00C0060028B6
:1044C00009D5FFE7039801686FF48010086103982D
:1044D000FFF74EFBFFE7FFE79DF806008006002888
:1044E00010D5FFE79DF80A008006002809D5FFE7F0
:1044F000039801686FF4001008610398FFF734FB1C
:10450000FFE7FFE79DF806004006002810D5FFE70B
:104510009DF80A004006002809D5FFE703980168C6
:104520006FF4800008610398FFF726FBFFE7FFE7C1
:104530009DF806000006002810D5FFE79DF80A0048
:104540000006002809D5FFE7039801686FF4000012
:1045500008610398FFF7CEFBFFE7FFE704B080BDDB
:1045600080B588B0079000200690059004900390D5
:10457000029007980068B0F1804F20D1FFE7FFE775
:1045800041F24C00C4F20200016841F008010160F0
:10459000006800F0080001900198FFE708200290F1
:1045A000022003900021049103210591069040F61A
:1045B0000040C4F6000002A9FDF7A6FE2BE0079814
:1045C000006840F60041C4F20001884222D1FFE7B2
:1045D000FFE741F24C00C4F20200016841F004011F
:1045E0000160006800F0040000900098FFE74FF4BD
:1045F0008050029002200390002004900320059038
:104600000120069040F60000C4F6000002A9FDF764
:104610007BFEFFE7FFE708B080BD000081B000909F
:1046200001B0704780B586B00490039102920020DB
:104630008DF80700FFE7049890F83C00012804D1AA
:10464000FFE702208DF81700C0E00499012081F8EF
:104650003C00FFE7FFE702980090142800F2A780D3
:104660000099DFE801F00BA4A4A424A4A4A43EA410
:10467000A4A457A4A4A471A4A4A48A0004980068C4
:10468000039901F043FE04980168886940F008002E
:10469000886104980168886920F0040088610398A3
:1046A00002690498016888691043886183E004986E
:1046B0000068039901F0E4FE04980168886940F4F9
:1046C0000060886104980168886920F480608861CE
:1046D0000398026904980168886940EA02208861A9
:1046E00069E004980068039901F092FF049801685A
:1046F000C86940F00800C86104980168C86920F0E2
:104700000400C8610398026904980168C8691043ED
:10471000C86150E004980068039902F041F80498D9
:104720000168C86940F40060C86104980168C869FC
:1047300020F48060C8610398026904980168C86920
:1047400040EA0220C86136E004980068039902F04C
:10475000EFF804980168086D40F0080008650498B7
:104760000168086D20F00400086503980269049848
:104770000168086D104308651DE0049800680399FE
:1047800002F048F904980168086D40F4006008657B
:1047900004980168086D20F4806008650398026938
:1047A00004980168086D40EA0220086503E00120D2
:1047B0008DF80700FFE7FFE70499002081F83C002F
:1047C000FFE79DF807008DF81700FFE79DF8170039
:1047D00006B080BD80B582B00090009820B9FFE798
:1047E00001208DF8070045E0009890F83D0040B9A1
:1047F000FFE70099002081F83C00009800F03EF8A7
:10480000FFE70099022081F83D00009951F8040B60
:1048100001F054FB0099012081F84800FFE700995E
:10482000012081F83E00009981F83F00009981F84D
:104830004000009981F84100009981F842000099F8
:1048400081F84300FFE7FFE70099012081F8440069
:10485000009981F84500009981F84600009981F897
:104860004700FFE70099012081F83D0000208DF806
:104870000700FFE79DF8070002B080BD81B00090FF
:1048800001B0704781B0009001B0704781B00090D6
:1048900001B0704780B598B0169015911492ADF89C
:1048A0004E3000208DF84D00159828B9FFE7169876
:1048B00090F83E00119034E01598042805D1FFE7E8
:1048C000169890F83F00109028E01598082805D118
:1048D000FFE7169890F840000F901CE015980C2800
:1048E00005D1FFE7169890F841000E9010E015985A
:1048F000102805D1FFE7169890F842000D9004E0CB
:10490000169890F843000D90FFE70D980E90FFE782
:104910000E980F90FFE70F981090FFE710981190F6
:10492000FFE71198022804D1FFE702208DF85F000D
:1049300018E2159828B9FFE7169890F83E000C90F9
:1049400034E01598042805D1FFE7169890F83F0049
:104950000B9028E01598082805D1FFE7169890F8E5
:1049600040000A901CE015980C2805D1FFE7169826
:1049700090F84100099010E01598102805D1FFE744
:10498000169890F84200089004E0169890F84300BA
:104990000890FFE708980990FFE709980A90FFE759
:1049A0000A980B90FFE70B980C90FFE70C980128F2
:1049B0004ED1FFE7149820B1FFE7BDF84E0020B9B3
:1049C000FFE701208DF85F00CCE1159828B9FFE7DB
:1049D0001699022081F83E0038E01598042806D187
:1049E000FFE71699022081F83F0007902CE0159808
:1049F000082806D1FFE71699022081F840000690AA
:104A00001FE015980C2806D1FFE71699022081F8BF
:104A10004100059012E01598102806D1FFE716997D
:104A2000022081F84200049005E01699022081F8E6
:104A300043000490FFE704980590FFE7059806906F
:104A4000FFE706980790FFE70798FFE7FFE703E017
:104A500001208DF85F0085E1FFE7159803900C2891
:104A600000F2B6800399DFE801F007B3B3B332B3C5
:104A7000B3B35DB3B3B388001698416A46F2DD0064
:104A8000C0F60000C8621698416A46F29910C0F656
:104A9000000008631698416A46F20D20C0F6000037
:104AA000486316980268406A14993432BDF84E3053
:104AB000FCF740FB20B1FFE701208DF85F0051E1DA
:104AC00016980168C86840F40070C86084E01698C1
:104AD000816A46F2DD00C0F60000C8621698816A5D
:104AE00046F29910C0F6000008631698816A46F2F3
:104AF0000D20C0F60000486316980268806A149979
:104B00003832BDF84E30FCF715FB20B1FFE701202D
:104B10008DF85F0026E116980168C86840F480604F
:104B2000C86059E01698C16A46F2DD00C0F6000080
:104B3000C8621698C16A46F29910C0F60000086370
:104B40001698C16A46F20D20C0F600004863169818
:104B50000268C06A14993C32BDF84E30FCF7EAFA9C
:104B600020B1FFE701208DF85F00FBE01698016897
:104B7000C86840F40060C8602EE01698016B46F2E9
:104B8000DD00C0F60000C8621698016B46F299106D
:104B9000C0F6000008631698016B46F20D20C0F6BF
:104BA0000000486316980268006B14994032BDF803
:104BB0004E30FCF7BFFA20B1FFE701208DF85F000F
:104BC000D0E016980168C86840F48050C86003E0DF
:104BD00001208DF84D00FFE79DF84D00002840F0C2
:104BE000BC80FFE71698006815990122019201F038
:104BF00059FA01981699096842F60042C4F2010276
:104C00009142029038D0FFE716980168012043F2E4
:104C10000042C4F20102914202902DD0FFE71698A3
:104C20000168012044F20002C4F2010291420290A4
:104C300022D0FFE716980168012044F20042C4F236
:104C400001029142029017D0FFE7169801680120F7
:104C500044F60002C4F20102914202900CD0FFE738
:104C6000169800684BF20001CBF6FE710844B0FACA
:104C700080F040090290FFE70298C00738B1FFE7D3
:104C800016980168486C40F400404864FFE71698A5
:104C9000006842F60041C4F2010188423CD0FFE7BF
:104CA00016980068B0F1804F36D0FFE7169800687C
:104CB00040F20041C4F2000188422DD0FFE716986F
:104CC000006840F60001C4F20001884224D0FFE7EA
:104CD0001698006840F60041C4F2000188421BD0DB
:104CE000FFE71698006843F20041C4F201018842D0
:104CF00012D0FFE71698006844F20001C4F20101E7
:104D0000884209D0FFE71698006845F20001C4F216
:104D10000101884219D1FFE71698006880680721D1
:104D2000C0F2010108401290129806280CD0FFE74B
:104D30001298B0F5803F07D0FFE716980168086821
:104D400040F001000860FFE706E016980168086877
:104D500040F001000860FFE7FFE79DF84D008DF887
:104D60005F00FFE79DF85F0018B080BD80B58AB096
:104D70000990089100208DF81F00089806900C28D3
:104D800035D80699DFE801F0073333331233333374
:104D90001D333333280009980168C86820F4007077
:104DA000C8600998406AFCF70BF824E0099801688C
:104DB000C86820F48060C8600998806AFCF700F831
:104DC00019E009980168C86820F40060C860099873
:104DD000C06AFBF7F5FF0EE009980168C86820F487
:104DE0008050C8600998006BFBF7EAFF03E00120E0
:104DF0008DF81F00FFE79DF81F00002840F0C580D8
:104E0000FFE7099800680899002201F04BF909981A
:104E10000168012042F60042C4F20102914205906D
:104E200038D0FFE709980168012043F20042C4F23C
:104E30000102914205902DD0FFE7099801680120F9
:104E400044F20002C4F201029142059022D0FFE731
:104E500009980168012044F20042C4F20102914223
:104E6000059017D0FFE709980168012044F6000279
:104E7000C4F20102914205900CD0FFE70998006846
:104E80004BF20001CBF6FE710844B0FA80F0400905
:104E90000590FFE70598C007D8B1FFE7FFE709983D
:104EA0000068006A41F21111084210D1FFE7099829
:104EB0000068006A44F24441084207D1FFE70998BC
:104EC0000168486C20F400404864FFE7FFE7FFE713
:104ED000FFE7FFE709980068006A41F211110842F4
:104EE00010D1FFE709980068006A44F24441084283
:104EF00007D1FFE709980168086820F00100086001
:104F0000FFE7FFE7FFE7089828B9FFE709990120C5
:104F100081F83E0038E00898042806D1FFE7099997
:104F2000012081F83F0004902CE00898082806D161
:104F3000FFE70999012081F8400003901FE00898DD
:104F40000C2806D1FFE70999012081F84100029061
:104F500012E00898102806D1FFE70999012081F88E
:104F60004200019005E00999012081F84300019079
:104F7000FFE701980290FFE702980390FFE703988C
:104F80000490FFE70498FFE7FFE79DF81F000AB0D1
:104F900080BD000080B582B001900198006841F2A8
:104FA0000041C4F20001884203D1FFE700F062FD36
:104FB00017E00198006841F20001C4F20001884244
:104FC0000ED1FFE7FBF7C6FB02F08EFC02F060FBA0
:104FD00040F69460C2F20000002102F017FEFFE7E5
:104FE000FFE702B080BD000081B0009001B07047C3
:104FF00083B00190FFE7019890F88400012804D164
:10500000FFE702208DF80B002CE00199012081F8C8
:105010008400FFE7FFE701992420C1F88800019888
:1050200000680068009001980168086820F001009D
:105030000860009820F00050009001990020486618
:10504000009801990968086001992020C1F888003A
:10505000FFE70199002081F88400FFE700208DF828
:105060000B00FFE79DF80B0003B0704780B584B0DC
:1050700002900191FFE7029890F88400012804D182
:10508000FFE702208DF80F0032E00299012081F83D
:105090008400FFE7FFE702992420C1F88800029806
:1050A00000680068009002980168086820F001001C
:1050B000086002980068806820F0606001990843E9
:1050C000029909688860029801F068FD00980299C9
:1050D0000968086002992020C1F88800FFE702995A
:1050E000002081F88400FFE700208DF80F00FFE723
:1050F0009DF80F0004B080BD80B584B0029001918E
:10510000FFE7029890F88400012804D1FFE702200D
:105110008DF80F0032E00299012081F88400FFE74A
:10512000FFE702992420C1F888000298006800680F
:10513000009002980168086820F001000860029859
:105140000068806820F0604001990843029909686E
:105150008860029801F022FD0098029909680860B1
:1051600002992020C1F88800FFE70299002081F809
:105170008400FFE700208DF80F00FFE79DF80F0087
:1051800004B080BD80B582B00090009820B9FFE7E0
:1051900001208DF8070046E00098806908B1FFE71C
:1051A00000E0FFE70098D0F8880040B9FFE70099D9
:1051B000002081F88400009800F03AF8FFE7009999
:1051C0002420C1F8880000980168086820F00100D8
:1051D00008600098806A20B1FFE7009801F022FD86
:1051E000FFE7009801F0B6FE012804D1FFE7012097
:1051F0008DF8070017E000980168486820F4904097
:10520000486000980168886820F02A00886000984B
:105210000168086840F001000860009801F0A6FDF0
:105220008DF80700FFE79DF8070002B080BD000081
:1052300080B59EB01D9000201C901B901A90199074
:10524000189003A85421FBF7C5F81D98006844F294
:105250000041C4F2000188423BD1FFE702200390E5
:105260000020059003A8FDF7BDFB18B1FFE7FBF791
:1052700085FBFFE7FFE741F25800C4F20200016836
:1052800041F400310160006800F40030029002989F
:10529000FFE7FFE741F24C00C4F20200016841F071
:1052A00008010160006800F0080001900198FFE724
:1052B000602018900220199000201A901B9007205F
:1052C0001C9040F60040C4F6000018A9FDF71CF839
:1052D000FFE71EB080BD0000FFE7FEE780B540F6A7
:1052E000CC50C2F2000040F22401C2F200014FF49F
:1052F00080720123FBF7C8FC80BD000080B586B03A
:10530000FFE741F24800C4F20200016841F00401E5
:105310000160006800F0040005900598FFE7FFE7D2
:1053200041F24800C4F20200016841F0010101604D
:10533000006800F0010004900498FFE70B20019042
:10534000002202921146FDF749FA0198FDF73CFA56
:10535000029A0C2003901146FDF740FA0398FDF7DE
:1053600033FA06B080BD000080B582B040F66850C8
:10537000C2F20000019046F20041C4F20001016057
:10538000002141604FF440728260C1600174417439
:105390008174042242614FF0050EC0F818E04FF00E
:1053A0001F0CC0F81CC00823036202224262C0F82E
:1053B00028E0C0F82CC00363426301228263C1630A
:1053C000FCF7BEFB18B1FFE7FBF7D8FAFFE702B026
:1053D00080BD000080B582B040F6CC50C2F2000023
:1053E000019046F60001C4F2000101600021416015
:1053F0004FF440728260C160017441748174042270
:1054000042614FF0050EC0F818E04FF01F0CC0F8D5
:105410001CC00823036202224262C0F828E0C0F8E0
:105420002CC00363426301228263C163FCF788FBE3
:1054300018B1FFE7FBF7A2FAFFE702B080BD00005A
:1054400080B582B040F63060C2F20000019046F6AE
:105450000041C4F200010160002141604FF440723C
:105460008260C160017441748174042242614FF012
:10547000050EC0F818E04FF01F0CC0F81CC0082340
:10548000036202224262C0F828E0C0F82CC0036325
:10549000426301228263C163FCF752FB18B1FFE74C
:1054A000FBF76CFAFFE702B080BD000080B590B05A
:1054B00000200F900E900D900C900B90FFE741F2A2
:1054C0004C00C4F20200016841F020010160006854
:1054D00000F020000A900A98FFE7FFE741F24C0035
:1054E000C4F20200016841F008010160006800F0A8
:1054F000080009900998FFE7FFE741F24C00C4F269
:105500000200016841F004010160006800F004003D
:1055100008900898FFE7FFE741F24C00C4F2020050
:10552000016841F001010160006800F0010007908E
:105530000798FFE7FFE741F24C00C4F20200016860
:1055400041F002010160006800F002000690069838
:10555000FFE74FF400500B904FF444100C900120E3
:1055600002900D9040F60040C4F6000001900BA997
:105570000391FCF7C9FE0198029A03994FF4804306
:105580000B93002304930C930D92FCF7BDFE02983D
:105590000399049A4FF460730B930C920D9040F6AC
:1055A0000000C4F60000FCF7AFFE02980399049ACD
:1055B0004FF4E0630B930C920D904FF09040FCF78A
:1055C000A3FE049A282005901146FDF707F90598D7
:1055D000FDF7FAF810B080BD80B590B000210191C0
:1055E0000F910E910D910C910B910A9109910891D7
:1055F00007910691059104910391029140F6946000
:10560000C2F200004FF08042026041608160C72218
:10561000C26001618161FEF771FB18B1FFE7FBF722
:10562000ADF9FFE74FF480500C9040F69460C2F261
:1056300000000CA9FEF70EFD18B1FFE7FBF79EF97D
:10564000FFE740F69460C2F20000FFF7C3F818B11C
:10565000FFE7FBF793F9FFE7002009900B9040F676
:105660009460C2F2000009A9FEF78AFA18B1FFE7B8
:10567000FBF784F9FFE76020029000220392049276
:10568000069240F69460C2F2000002A9FEF7CAFF3B
:1056900018B1FFE7FBF772F9FFE740F69460C2F23A
:1056A0000000FEF75DFF10B080BD000080B590B037
:1056B000002101910F910E910D910C910B910A9186
:1056C0000991089107910691059104910391029126
:1056D00040F6E060C2F2000040F60042C4F2000270
:1056E000026041608160C722C26001618161FEF792
:1056F00005FB18B1FFE7FBF741F9FFE74FF48050D6
:105700000C9040F6E060C2F200000CA9FEF7A2FC8B
:1057100018B1FFE7FBF732F9FFE740F6E060C2F2AD
:105720000000FFF757F818B1FFE7FBF727F9FFE78D
:10573000002009900B9040F6E060C2F2000009A939
:10574000FEF71EFA18B1FFE7FBF718F9FFE7602034
:105750000290002003900490069040F6E060C2F2B0
:10576000000002A90422FEF75DFF18B1FFE7FBF776
:1057700005F9FFE740F6E060C2F20000FEF7F0FE38
:1057800010B080BD80B584B00021039102910191D9
:1057900040F62C70C2F2000041F20002C4F2000296
:1057A00002609F224260816044F61F62C260816194
:1057B000FEF7A4FA18B1FFE7FBF7E0F8FFE70020D7
:1057C0000190039040F62C70C2F2000001A9FEF790
:1057D000D7F918B1FFE7FBF7D1F8FFE704B080BDB8
:1057E00080B584B0002103910291019140F6787058
:1057F000C2F2000041F20042C4F2000202609F22A5
:105800004260816040F2E732C2608161FEF776FA61
:1058100018B1FFE7FBF7B2F8FFE700200190039013
:1058200040F67870C2F2000001A9FEF7A9F918B19C
:10583000FFE7FBF7A3F8FFE704B080BD80B582B0B7
:1058400040F6C470C2F20000009044F20041C4F27D
:10585000000101604FF4E13141600021019181605C
:10586000C16001610C2242618161C16101624162DA
:105870008162FFF787FC18B1FFE7FBF77FF8FFE7CE
:1058800040F6C470C2F200000021FFF735FC18B1E9
:10589000FFE7FBF773F8FFE740F6C470C2F20000C1
:1058A0000021FFF7E3FB18B1FFE7FBF767F8FFE71D
:1058B00040F6C470C2F20000FFF79AFB18B1FFE790
:1058C000FBF75CF8FFE702B080BD0000FFE7FEE7F2
:1058D000FFE7FEE788B0079006910592079800F071
:1058E000070004900498C0F10700052803D3FFE7E0
:1058F0000420019004E00498C0F107000190FFE744
:105900000198039004980430062803D8FFE700208C
:10591000009003E0049803380090FFE7009802909D
:1059200006980399012202FA01F101390840029B0D
:10593000984005999A40013A1140084308B07047D1
:1059400080B540F6CC50C2F2000040F22401C2F211
:10595000000120220123FBF797F980BD704700006A
:1059600080B5FAF78FFE40F6CC50C2F20000FBF78C
:105970002DF840F63060C2F20000FBF77BF840F6ED
:105980009460C2F200000268D16821F00101D16088
:105990000168C86820F00200C86040F6E060C2F20A
:1059A00000000268D16821F00101D1600168C86877
:1059B00020F00200C86040F62C70C2F20000FEF732
:1059C000C5FA40F67870C2F20000FEF7BFFA80BD5B
:1059D00086B041F20C00C4F20200016801F003013C
:1059E00004910068C1B2012000EB111002900498EC
:1059F0000090022815D0FFE70098032812D1FFE796
:105A0000029947F64000C0F27D10B0FBF1F041F280
:105A10000C01C4F202010968C1F306214843059054
:105A200011E0FFE7029942F20040C0F2F400B0FB3F
:105A3000F1F041F20C01C4F202010968C1F3062140
:105A400048430590FFE741F20C00C4F202000068F1
:105A500000F0C061022000EB1160039005980399EB
:105A6000B0FBF1F00190019806B07047002070473C
:105A70000020704780B584B040F64041C2F200017A
:105A80000A684868013240F100000A60486000205E
:105A90000390FFE70398052800F38580FFE703994B
:105AA00040F64840C2F2000000EB0110029002995B
:105AB00008688988FCF7DCFD8DF80700029880797A
:105AC00001460091032869D80099DFE801F002122D
:105AD00033449DF8070058B9FFE702990120887107
