:020000040800F2
:1000000030160020790200080F320008E92D0008A0
:100010000D3200086F040008F53F000800000000E2
:100020000000000000000000000000005134000843
:100030003B08000800000000253200085334000887
:10004000930200089302000893020008930200083C
:10005000930200089302000893020008930200082C
:100060009302000893020008930200088107000829
:100070008D0700089302000893020008930200080D
:1000800093020008930200089302000893020008FC
:1000900093020008410800084D0800089302000878
:1000A00093020008930200089302000893020008DC
:1000B00093020008930200089302000893020008CC
:1000C00093020008930200089302000893020008BC
:1000D00093020008930200089302000893020008AC
:1000E000930200089302000893020008930200089C
:1000F000930200089302000893020008930200088C
:10010000930200089302000893020008930200087B
:100110009302000893020008CD340008D934000887
:10012000930200089302000893020008930200085B
:10013000930200089302000893020008930200084B
:10014000930200089302000893020008930200083B
:10015000930200089302000893020008930200082B
:10016000930200089302000893020008930200081B
:10017000930200089302000893020008930200080B
:1001800093020008930200089302000893020008FB
:1001900093020008000000005908000865080008E4
:1001A000710800087D080008930200089302000807
:1001B00093020008930200089302000893020008CB
:1001C00093020008930200089302000893020008BB
:1001D000930200089302000800F002F800F03CF8D7
:1001E0000AA090E8000C82448344AAF10107DA4592
:1001F00001D100F031F8AFF2090EBAE80F0013F0A8
:10020000010F18BFFB1A43F00103184770430000A9
:1002100090430000103A24BF78C878C1FAD852073A
:1002200024BF30C830C144BF04680C607047000070
:100230000023002400250026103A28BF78C1FBD8EF
:10024000520728BF30C148BF0B6070471FB504F08C
:1002500019F91FBD10B510BD00F0CFF81146FFF71A
:10026000F5FF04F0CBF800F0EDF803B4FFF7F2FF70
:1002700003BC00F0F5F80000094880470948004732
:10028000FEE7FEE7FEE7FEE7FEE7FEE7FEE7FEE746
:10029000FEE7FEE704480549054A064B70470000A3
:1002A000BD340008D90100083010002030160020AD
:1002B000301200203012002053EA020C00F0698056
:1002C0002DE9F04B4FF00006002B1FBFB3FA83F56A
:1002D00003FA05F424FA05F65E4012BF1643B2FA9B
:1002E00082F502FA05F4C5F120051EBF22FA05FCCD
:1002F00044EA0C04203556EA044C4FEA144418BF73
:10030000641C4FF000084FF00009904271EB030CA1
:1003100039D3002919BFB1FA81F701FA07F6B0FA0B
:1003200080F700FA07F6C7F120071EBF20FA07FC86
:1003300046EA0C062037B6FBF4FCA7EB0507103F96
:1003400007F01F0BCBF120060CFA0BFB2CFA06F67C
:1003500044BFB3460026202FA4BF5E464FF0000BDB
:100360005BEA060C08BF4FF0010B19EB0B09ABFB66
:10037000027C48EB0608C01B06FB02CC0BFB03CC3F
:1003800071EB0C01C1E70B46024641464846BDE809
:10039000F08B13B54FF000004FF00001AFF3008079
:1003A000BDE81C4070474FF0000200B5134694466C
:1003B0009646203922BFA0E80C50A0E80C50B1F1BD
:1003C0002001BFF4F7AF090728BFA0E80C5048BFD1
:1003D0000CC05DF804EB890028BF40F8042B08BF6F
:1003E000704748BF20F8022B11F0804F18BF00F86B
:1003F000012B7047704770477047754600F02CF826
:10040000AE4605006946534620F00700854618B001
:1004100020B5FFF73FFFBDE820404FF000064FF04A
:1004200000074FF000084FF0000B21F00701AC4629
:10043000ACE8C009ACE8C009ACE8C009ACE8C00948
:100440008D46704710B50446AFF300802046BDE8E6
:100450001040FFF70ABF000000487047D00F00208F
:1004600001491820ABBEFEE7260002007047FEE7F8
:100470002DE9F04F00252DED028B83B02C462E4642
:10048000284600F01DF9DFF80892DFF80882DFF84F
:1004900008B24FF0010A9FED818A18B389F8005025
:1004A00098F80D00474628B902F0B2FE60F3070441
:1004B00087F80DA0D4B17AA10027D1E90001CDE9D8
:1004C000000100BF9BF811309BF810209BF80F1023
:1004D0001DF80700B0EE480A03F010FF7F1C062F3E
:1004E000F0D303E088F80D5089F800A0012000F057
:1004F000E7F818B389F8015098F81D00474628B965
:1005000000F034F960F30F2487F81DA0200A19D0F9
:1005100065A10027D1E90001CDE900019BF8113068
:100520009BF810209BF80F101DF80700B0EE480A4A
:1005300003F0E4FE7F1C062FF0D303E088F81D5083
:1005400089F801A0022000F0BBF818B389F8025026
:1005500098F82D00474628B902F070FF60F3174461
:1005600087F82DA0200C19D051A10027D1E9000156
:10057000CDE900019BF811309BF810209BF80F107B
:100580001DF80700B0EE480A03F0B8FE7F1C062FE6
:10059000F0D303E088F82D5089F802A0032000F082
:1005A0008FF820B389F8035098F83D00474628B9E2
:1005B00000F0A8F860F31F6487F83DA0200E1AD061
:1005C0003DA10024D1E900016F46CDE9000100BF43
:1005D0009BF811309BF810209BF80F10385DB0EE9F
:1005E000480A03F08BFE641C062CF1D303E088F864
:1005F0003D5089F803A0042000F062F8D0B189F8DA
:10060000045098F84D00444628B902F00DFE60F3FE
:10061000070684F84DA08EB101245F46A0B27B7C12
:100620003A7CF97BB0EE480A03F068FE641C182C93
:10063000F4DD03E088F84D5089F804A0052000F0AF
:100640003FF8F8B189F8055098F85D00444628B99C
:1006500002F0F4FD60F30F2684F85DA0300A0CD0A0
:1006600001245D46A0B22B7AEA79A979B0EE480A56
:1006700003F044FE641C182CF4DD03B0BDEC028BC7
:10068000BDE8F08F88F85D5089F805A0F5E7000017
:100690001F000020EC03002040450008CDCCCC3DDD
:1006A00001020307080900000405060A0B0C0000FC
:1006B0000D0E0F131415000010111216171800005C
:1006C000062801D300207047024901EB0010007B8F
:1006D00070470000EC03002030B5084808493CC8CA
:1006E0003CC13CC83CC13CC83CC13CC83CC13CC806
:1006F0003CC11DC881E81D0030BD0000E044000879
:10070000EC030020012350220149024800F0F4B814
:100710001C000020A0000020F0B512490020104E5F
:10072000D1E90041104B012506EBC0074FF4FA7EDA
:10073000D7E90027B4EB020C61EB07070022BEEB00
:100740000C0CBA411F7805FA00F202D23A431A7033
:1007500001E097431F70401C0428E5DBF0BD00005A
:10076000780E002000000020280000200123302205
:100770000149024800F0C0B81C000020A000002081
:10078000014800F053B9000098020020014800F031
:100790004DB90000F80200200D4902688A4201D2DA
:1007A0000C4901E00B492031D2B21423083AB2FBC4
:1007B000F3F2436C02F01F0223F003031944816437
:1007C00004498031C16401219140016570470000F6
:1007D00008040240000802400179074A02EB810246
:1007E0004265054A4432491E826501F01F0201211B
:1007F0009140C16570470000FC08024030B5D0E967
:1008000013456560446D14B1D0E91645656090F8F4
:10081000444004F01F050124AC40056C6C60046882
:1008200063608368102B036803D099600068C2601E
:1008300030BD9A600068C16030BD704772B6FEE797
:10084000014800F0BCBA00003C000020014800F064
:10085000B6BA00003C000020014800F0B0BA000029
:10086000A0000020014800F0AABA0000A00000206B
:10087000014800F0A4BA000004010020014800F083
:100880009EBA000004010020F0B5D1E901650C69B1
:100890002C430D68C6B145F080452C43D1E906656F
:1008A000354391F820704E69406D46EA076635433E
:1008B0008E8903EBC30300EBC30045EA0645E0E87D
:1008C000024500230B4D0FE044EA8544E6E7D418C7
:1008D000D65CE77846EA0766A77864783F0447EA7B
:1008E0000424264340C01B1DCC682C5D9C42EED8DE
:1008F000F0BD00008E440008F0B589B00E460746F2
:100900001C46154624216846FFF74DFD009500253D
:1009100001950295082C3BD007DC082C2BD2DFE890
:1009200004F01517192D2F313335182C38D006DC6B
:100930000C2C2FD0102C2FD0142C1CD12EE0202CBE
:1009400030D0302C30D0402C15D12FE0039503E06F
:10095000012000E0022003904FF000400490C00A04
:1009600005904000CDE906053246694638460895AF
:1009700000F072F9E0B1002009B0F0BD0320EAE711
:100980000420E8E70520E6E70620E4E70720E2E7A1
:100990000820E0E70920DEE70A20DCE70B20DAE7A1
:1009A0000C20D8E70D20D6E70E20D4E70F20D2E7A1
:1009B0000120E1E770B590F82520002401212346AD
:1009C000022A07D00422C26380F8251080F8243060
:1009D000012429E00268156825F00E0515600268FB
:1009E000156825F001051560826C156825F4807581
:1009F000156090F84420056C02F01F0201FA02F223
:100A00006A60D0E913255560426D32B1156825F44E
:100A100080751560D0E91625556080F8251080F89E
:100A20002430816B01B18847204670BDF0B4016C61
:100A30000C6801680D6890F8442002F01F0604223B
:100A400002FA06F3234211D06B070FD50B689B0601
:100A500003D40B6823F004030B6090F8441001F0FA
:100A60001F018A40016C4A60016B1DE0022303FAFA
:100A700006F727424FF0000C4FF0010218D0AF07E5
:100A800016D50C68A40605D40C6824F00A040C6082
:100A900080F8252090F8441001F01F018B40016C74
:100AA0004B6080F824C0C16A00291AD0F0BC084706
:100AB0000823B340234214D02B0712D50B6823F030
:100AC0000E030B6090F84410036C01F01F0102FA52
:100AD00001F15960C26380F8252080F824C0416B81
:100AE000E2E7F0BC7047000070B504000CD02B4A60
:100AF00021681420914209D2294A0A44B2FBF0F03D
:100B00008000606427480AE0012070BD234A5242F9
:100B10000A44B2FBF0F0800060642048083820648A
:100B2000022084F825000A6847F6F0708243D4E971
:100B300002031843D4E904352B431843A36918432F
:100B4000E3691843236A1843104308602046FFF7FF
:100B500023FEA0680025B0F5804F00D16560A16C30
:100B600020790860D4E9130141606068401E0328C1
:100B700008D82046FFF730FE606D0560D4E9160105
:100B8000416002E06565A565E565E563012084F8DF
:100B9000250084F82450002070BD000008040240A5
:100BA000F8FFFDBF0000024070B5044690F8240035
:100BB000002501280CD0012084F8240094F8256039
:100BC0000020012E06D084F824000225284670BD9E
:100BD000022070BD022684F82560E0632068066864
:100BE00026F0010606602046FFF708FE206B00286D
:100BF0002068016802D041F00E0106E021F00401F6
:100C000001602068016841F00A010160A06C016880
:100C1000C90303D5016841F480710160606D18B1AA
:100C2000016841F4807101602068016841F00101B0
:100C30000160CBE770B5044600F0C2FC0546601CBD
:100C400002D004484068044400F0BAFC401BA042B3
:100C5000FAD370BD0C00002070B5044690F85C001B
:100C6000022803D0206E40F0080007E02068D0F88A
:100C7000C4309B0205D5206E40F400702066012030
:100C800070BDD0F8C400C0F301452B462046FFF7E5
:100C9000FBFD21680120A840C1F8CC00A065002020
:100CA00070BD704770470000F0B590F85C400025BB
:100CB000022C03D0016E41F0080160E00468402975
:100CC00046D0D4F89860360756D0D4F89860F6012C
:100CD00004D5D4F88060F60500D50125D4F89840F5
:100CE000C4F301246619C46C06EBC60504EBC50405
:100CF000256815F080455560256843D025F060458E
:100D0000156025682C4F05F00055956020CC05F046
:100D10000045156134F8045BADB2D56154F8045C4C
:100D2000C5F30345D56054F8045C05F4801555619E
:100D300054F8045C05F40015956154F8045CC5F39F
:100D40000665156254F8045CED0F5562002522E03B
:100D5000D4F8906036070FD0D4F89060F60104D52F
:100D6000D4F88060B60500D50125D4F89040C4F3CE
:100D700001246619846CB7E7016E41F48071016645
:100D80000120F0BDC5F38A45BAE700BF14F805C0DD
:100D900003F805C06D1CD2F80CC017F80CC0AC45A8
:100DA000F4D80068402903D0C0F89C600020F0BD52
:100DB000C0F89460FAE700008E44000870472DE9FF
:100DC000F05F04460068016D426D01F4E05102EAF3
:100DD0000108016D426D01F0070102EA0109016D90
:100DE000426D01F0380102EA010A016D476D01F41C
:100DF00071010F40016D426D01F46021456D02EA01
:100E0000010B016DCE43710607D4E943490604D4B2
:100E1000402101652046FFF7D1FFF0050ED4E843DD
:100E2000C0050BD42068D0F8D820D0F8E0101140CD
:100E30004FF480720265204600F094FAB8F1000089
:100E400005D0216808654146204600F08DFAB9F1C9
:100E5000000005D0216808654946204600F042FAA6
:100E6000BAF1000005D0216808655146204600F01F
:100E700061FAB00509D4E843800506D421684FF42F
:100E800000700865204600F070FA30060DD4E84383
:100E900000060AD42068D0F8D420D0F8DC10114025
:100EA00080220265204600F05EFAB00409D4E843CF
:100EB000800406D421684FF400500865204600F0F5
:100EC00050FA300409D4E843000406D421684FF4F2
:100ED00000400865204600F043FA70040AD4E84355
:100EE000400407D421684FF480400865206E40F02C
:100EF00080002066BBF1000005D0216808655946D6
:100F00002046FFF7CFFE27B120680765206E3843E3
:100F10002066206E002802D02046FFF7C2FEBDE802
:100F2000F09F00002DE9F041040006D0DFF8F481C5
:100F300094F85C00002518B107E00120BDE8F081BD
:100F400084F85D50204600F0F9F82068816921F0AE
:100F50001001816100F034FB0646032705E000BF65
:100F600000F02EFB801B0A2811D82068806900073A
:100F7000F6D42068816941F00101816100F020FB15
:100F800006460BE000F01CFB801B0A2806D9206EE9
:100F900040F00100206684F85C70CEE7206880692C
:100FA000C007EFD02068816941F0020181612168AA
:100FB000414502D15C4960680860207C01282068B6
:100FC000816937D041F040018161607C012820684F
:100FD000816932D021F480418161A07C01282068A0
:100FE00081692DD041F48051816120688169A268B6
:100FF00021F44071114381612068816921F0A401CD
:1010000081612068016921F010010161E068012817
:1010100019D010B302281BD02068816941F08001EB
:1010200081612068016941F010010161E0680328D5
:101030000ED012E021F04001C6E741F48041CBE739
:1010400021F48051D0E72068816941F0040103E078
:101050002068816941F020018161207EE2694006BB
:101060006FF0FF0101EB0222A0F100701043226A31
:10107000A38A521E10430A0202EB0343184323685B
:10108000D861A068B0F5407F10D1D4E90A0301EB24
:101090000321401E0843216B131303EB0111084386
:1010A000A18C02EB014108432168C860206850F818
:1010B000C01FE26B114301601D4A21681B48914229
:1010C00000D11C481C4A914201D100F5D460206433
:1010D00051F8802FA38E22F4F81242EA03420A60EC
:1010E00000F170016164216851F8802F94F8383064
:1010F00022F0706242EA03620A6000F1B001A1646A
:10110000D831E164D831216518316165D83100E00A
:1011100020C08842FCD3A5652566012084F85C00C8
:1011200000200BE7006400400065004000A4004080
:101130000068004050A70040006C00402DE9F043DB
:101140009BB00446142115A8FFF72DF954216846D9
:10115000FFF729F95D4B2068991400254A035C4E7E
:101160000227DFF870915C4C4FF00908984236D1A5
:1011700068460E92009100F021FB08B1FFF75EFB7C
:101180003068401C3060012807D1A06D40F000702D
:10119000A065A06D00F000701A90E06C40F00200B5
:1011A000E064E06CCDE9167500F002001A904FF48F
:1011B0004070CDE91858159015A9484600F0D6F8AA
:1011C00000221146152000F061FA152000F050FAB7
:1011D00000221146162000F059FA162037E03F4B46
:1011E000984239D168460E92009100F0E7FA08B1B2
:1011F000FFF724FB3068401C3060012807D1A06D48
:1012000040F00070A065A06D00F000701A90E06CD6
:1012100040F00200E064E06CCDE9167500F00200D9
:101220001A906020CDE91858159015A9484600F08D
:101230009DF800221146562000F028FA562000F0B2
:1012400017FA00221146572000F020FA572000F02C
:101250000FFA1BB0BDE8F083214B9842F9D16846E4
:101260000E92009100F0AAFA08B1FFF7E7FA306891
:10127000401C3060012807D1A06D40F00070A065CF
:10128000A06D00F000701A90E06C40F00200E06485
:10129000E06CCDE9167500F002001A901820159048
:1012A0000B20CDE9185015A9484600F05FF8002240
:1012B0001146582000F0EAF9582000F0D9F9002230
:1012C0001146592000F0E2F95920C0E700640040BF
:1012D00008000020000400480010024000680040A0
:1012E000006C00400D4910B5884207D10C4B0D4AE7
:1012F00040210A48FFF7D8FC084809E00A4988421B
:101300000AD10A4B0A4A40210748FFF7CDFC06489C
:10131000BDE8104001F0F8BF10BD00003C00002007
:10132000980E0020580F0020A0000020D80E0020AA
:10133000800F0020074910B588420AD1064B074AA2
:1013400041210448FFF7B0FCBDE81040014801F01E
:10135000DBBF10BD04010020180F0020A80F0020E3
:101360007047704770477047704770472DE9F04FDE
:10137000DFF82092002301260324A9F1040B85B095
:101380000F2709F1040AABF1040EFAE006FA03F59F
:101390002A407CD091F804C00CF0030CBCF1010F82
:1013A00002D0BCF1020F26D1D0F808C0CDF800C0A1
:1013B0004FEA430C04FA0CF8CDF810C0DDF800C079
:1013C0002CEA080CCDF800C0D1F80C80DDF810C074
:1013D00008FA0CF8DDF800C048EA0C08C0F80880EC
:1013E000D0F804C02CEA050C0D79C5F300159D401A
:1013F00045EA0C0545600D79ED43AD070ED0C56893
:101400004FEA430804FA08FC25EA0C05D1F808C0A5
:101410000CFA08FC4CEA050CC0F80CC00D7905F07C
:101420000305022D16D1DD0800EB850CCDF808C0B0
:10143000DCF820805D074FEAD56C07FA0CF528EA46
:1014400005080D6905FA0CF5DDF808C045EA080540
:10145000CCF8205005684FEA430CCDF808C004FAD8
:101460000CFC25EA0C0591F804C00CF00308DDF82B
:1014700008C008FA0CF848EA0508C0F800804D6872
:1014800015F4403F7CD0444DD5F860C000E077E0D3
:101490004CF0010CC5F860C02D6E23F0030C05F074
:1014A000010500953D4D65440295AD684FEA837C8A
:1014B0004FEA1C7807FA08FC25EA0C05B0F1904FBA
:1014C00006D0DFF8DCC0604505D14FF0010C20E00C
:1014D0004FF0000C1DE0DFF8CCC0604502D14FF0AA
:1014E000020C16E0DFF8C0C0604502D14FF0030CDB
:1014F0000FE0DFF8B8C0604502D14FF0040C08E0FF
:10150000DFF8ACC0604502D14FF0050C01E04FF0B0
:10151000060C0CFA08FC4CEA050C029DC5F808C044
:10152000D9F80050CC46D1F8048095435FEAC8282A
:1015300000D51543CCF80050DAF80050D446D1F865
:10154000048095435FEA882800D51543CCF8005005
:10155000DBF80050DC46D1F8048095435FEA883818
:1015600000D51543CCF80050DEF80050F446D1F811
:10157000048095435FEAC83800D51543CCF8005085
:101580005B1C0A6832FA03F57FF400AF05B0BDE8D2
:10159000F08F0000080401400010024000000140EC
:1015A0000004004800080048000C004800100048F3
:1015B000001400480069084000D001207047000076
:1015C00001488068704700000C00002002488168D4
:1015D00042681144816070470C00002010B500245F
:1015E000032000F073F80F2000F008F808B1012480
:1015F00001E000F025F8204610BD000070B50E4E49
:1016000005460024706898B14FF47A71B1FBF0F090
:101610000A490968B1FBF0F000F09CFD40B9102DBB
:1016200006D200222946501E00F030F8356000E056
:101630000124204670BD00000C000020180000208E
:101640000A4882B0016E41F001010166016E01F0AD
:1016500001010091816D41F080518165806D00F044
:101660008050009002B000F0A1B8000000100240CD
:10167000002809DB00F01F02012191404009800091
:1016800000F1E020C0F8001170470000F0B40E4BEC
:101690001B680C46C3F30223C3F10705042D00D9D0
:1016A0000425191D072901D2002300E0DB1E0126B5
:1016B00006FA05F1491E214099409E40761E1640CB
:1016C0003143F0BC02F08ABE0CED00E0064900F0A8
:1016D000070208684FF6FF03184040EA0220034A59
:1016E00010430860704700000CED00E00000FA05B0
:1016F0002B492C4B0A6832214A432B4940B1B0F5A3
:10170000007F086829D020F4C06040F480602CE09D
:101710000868C0F34120022804D051F8800F20F45B
:10172000807022E0D1F8800020F48070C1F8800041
:10173000086820F4C06040F400700860B2FBF3F069
:10174000401C00E0401E4A69520501D50028F9D12D
:10175000486940050AD503207047C0F3412002289C
:1017600006D051F8800F40F4807008600020704768
:10177000D1F8800040F48070C1F88000086820F43F
:10178000C06040F400700860B2FBF3F0401C00E061
:10179000401E4A695205DBD50028F9D1D8E7000080
:1017A0001800002040420F0000700040024881688D
:1017B00041F4804181607047007000402DE9F8439A
:1017C000044600680026BB4D00035ED5A86D0027C7
:1017D000C00008D4A86D40F08050A865A86D01270E
:1017E00000F080500090DFF8D092D9F8001041F45A
:1017F0008071C9F80010FFF7E3FE804606E000BFE5
:10180000FFF7DEFEA0EB080002282BD8D9F8000075
:10181000C005F5D5D5F8900010F4407014D0216DB6
:10182000814211D0D5F89000D5F8901020F4407086
:1018300041F48031C5F89010D5F8901021F4803132
:10184000C5F89010C5F89000C00711D0FFF7B8FE9A
:10185000804641F2883907E0FFF7B2FEA0EB0801AD
:10186000494501D903260BE0D5F890008007F3D550
:10187000D5F89000216D20F440700843C5F8900021
:101880001FB1A86D20F08050A8652078C00707D050
:10189000D5F88800616820F003000843C5F8880087
:1018A0002078800707D5D5F88800A16820F00C00C3
:1018B0000843C5F888002078400707D5D5F8880088
:1018C000E16820F030000843C5F888002078000760
:1018D00007D5D5F88800216920F0C0000843C5F875
:1018E00088002078C00607D5D5F88800616920F403
:1018F00040700843C5F888002078800607D5D5F8E1
:101900008800A16920F440600843C5F88800207869
:10191000400607D5D5F88800E16920F44050084317
:10192000C5F888002078000607D5D5F88800216A18
:1019300020F440400843C5F888002088C00507D53A
:10194000D5F88800616A20F440300843C5F8880063
:101950002068800307D5D5F89C00A16A20F0030019
:101960000843C5F89C002088800507D5D5F8880075
:10197000E16A20F440200843C5F88800208840052B
:101980000FD5D5F88800216B20F440100843C5F826
:101990008800206BB0F5801F03D1E86840F4801008
:1019A000E860208800050FD5D5F88800616B20F429
:1019B00040000843C5F88800606BB0F5800F03D184
:1019C000E86840F48010E8602088C0040FD5D5F89E
:1019D0008800A16B20F040700843C5F88800A06B18
:1019E000B0F1807F03D1E86840F48010E86020887F
:1019F0004FF0006180040ED5D5F88800E26B20F02E
:101A000040601043C5F88800E06B884203D1E86865
:101A100040F48010E860208840040ED5D5F8880096
:101A2000226C20F040601043C5F88800206C88428A
:101A300003D1E86840F48010E860208800040FD5E6
:101A4000D5F88800616C20F040500843C5F8880044
:101A5000606CB0F1805F03D1E86840F48030E860EA
:101A60002068C0030FD5D5F88800A16C20F0404055
:101A70000843C5F88800A06CB0F1804F03D1E86836
:101A800040F48030E860206840030FD5D5F89C0012
:101A9000E16C20F440100843C5F89C00E06CB0F500
:101AA000001F03D1E86840F48010E8603046BDE8CC
:101AB000F883000000100240007000402DE9F0475C
:101AC0000E4605004FF0000725D0DFF8AC81D8F8AE
:101AD000000000F00F00B0420CD2D8F8001021F046
:101AE0000F013143C8F80010D8F8000000F00F00D3
:101AF000B04210D12968614CC80741F2883A5AD0E7
:101B00006868DFF87C91032808D0022820682DD06F
:101B1000400500282CDB0120BDE8F087206880010B
:101B2000F9D5E06800F00302E068C0F30310401C40
:101B3000032A19D0534A00BFB2FBF0F0E268C2F3A7
:101B400006225043E268C2F34162521C5200B0FBCD
:101B5000F2F0484517D9A06810F0F00F0CD08807B4
:101B600011D5A86840B10EE0474AE5E78003D0E709
:101B700000F0B6F8484506D9A06820F0F00040F023
:101B80008000A0608027A068696820F003000843F7
:101B9000A060FFF715FD814606E000BFFFF710FDCE
:101BA000A0EB090151453AD8A068696800F00C0023
:101BB000B0EB810FF2D12868810714D5400703D517
:101BC000A06840F4E060A0602878000705D5A06810
:101BD00020F4605040F4E060A060A068A96820F0A4
:101BE000F000084304E0802F03D1A06820F0F0004B
:101BF000A060D8F80010404601F00F01B14216D99C
:101C0000016821F00F0131430160FFF7D9FC07465D
:101C100007E000BFFFF7D4FCC11B514501D90320E9
:101C20007AE7D8F8000000F00F00B042F2D128782F
:101C3000400705D5A068E96820F4E0600843A0608B
:101C40002878000706D5A068296920F4605040EA8A
:101C5000C100A06000F044F8A1680C4AC1F3031170
:101C6000515C01F01F01C84009490860094800683B
:101C7000BDE8F047FFF7C2BC002002400010024060
:101C800000B4C4040024F40040787D01C644000878
:101C9000180000200C0000200548064900688968EB
:101CA000054AC1F30221515C01F01F01C840704791
:101CB0001800002000100240D644000805480649DC
:101CC00000688968054AC1F3C221515C01F01F0117
:101CD000C84070471800002000100240D644000899
:101CE000184910B58868C0F381021748012A0BD043
:101CF0008A68164BC2F38102022A06D08A68C2F3B0
:101D00008102032A03D0002010BD184610BDCA6806
:101D100002F00304CA68C2F30312521C032C02D05F
:101D2000B0FBF2F001E0B3FBF2F0CA68C968C2F39D
:101D300006225043C1F34161491C4900B0FBF1F058
:101D400010BD0000001002400024F40040787D0126
:101D50002DE9F84304007AD02078F84DC00747D029
:101D6000A868E96800F00C0001F003010C2802D01B
:101D7000082817D001E0032914D06068B0F5803F2F
:101D800017D0B0F5A02F286817D020F48030286035
:101D9000286820F4802028606068E0B1FFF710FC1C
:101DA000064614E02868800322D560680028D2D057
:101DB0001EE0286840F48030EDE740F48020286081
:101DC000F7E700BFFFF7FCFB801B642870D828688A
:101DD0008003F7D50CE0FFF7F3FB064605E000BFF4
:101DE000FFF7EEFB801B6428F0D828688003F7D447
:101DF000207880074CD5A868E96800F00C0001F055
:101E000003010C2802D004280DD001E002290AD0D9
:101E1000E068002828682BD040F480702860FFF725
:101E2000CFFB064619E02868400502D5E068002887
:101E300091D06868217C20F0FE4040EA0160686033
:101E4000BF480068FFF7DAFB002800D120E072E10C
:101E5000FFF7B6FB801B0228B8D828684005F7D5E5
:101E60006868217C20F0FE4040EA016068600FE075
:101E700020F480702860FFF7A3FB064605E000BF52
:101E8000FFF79EFB801B0228A0D828684005F7D4E6
:101E90002078000729D560690028D5F8940013D070
:101EA00040F00100C5F89400FFF78AFB064606E003
:101EB00090E000BFFFF784FB801B022886D8D5F88E
:101EC00094008007F6D510E020F00100C5F89400DA
:101ED000FFF776FB064604E0FFF772FB801B022843
:101EE00078D8D5F894008007F6D42078400761D5DB
:101EF000A86D0026C00008D4A86D40F08050A865E9
:101F0000A86D012600F0805000908E480168C90538
:101F100011D40168804641F480710160FFF750FBE5
:101F2000074604E0FFF74CFBC01B022852D8D8F844
:101F30000000C005F6D5A068012815D00528D5F801
:101F4000900016D020F00100C5F89000D5F8900060
:101F500020F00400C5F89000A06841F28838B8B1BC
:101F6000FFF72EFB07460EE0D5F8900040F0010089
:101F7000F0E740F00400C5F89000F5E7FFF720FB1C
:101F8000C11B414526D8D5F890008007F6D50CE056
:101F9000FFF716FB074604E0FFF712FBC11B4145A4
:101FA00018D8D5F890008007F6D41EB1A86D20F09F
:101FB0008050A8652078800629D5A0690028D5F82A
:101FC000980013D040F00100C5F89800FFF7F8FA28
:101FD000064606E075E000BFFFF7F2FA801B022814
:101FE0006FD8D5F898008007F6D510E020F00100F2
:101FF000C5F89800FFF7E4FA064604E0FFF7E0FAB8
:10200000801B02285DD8D5F898008007F6D4E069D7
:10201000F0B3A968C1F3810103295DD002282868C3
:1020200020F08070286003D0FFF7CAFA04464BE026
:10203000FFF7C6FA064604E0FFF7C2FA801B022843
:102040003FD828688001F7D4F4E908016FF00F0247
:1020500002EB01110843218A5204490802EB415165
:10206000A26841EA02210843217D4FF07E424908DF
:1020700002EB41610843217B40EAC160E968324AD2
:1020800011400843E860286840F08070286000E054
:102090005EE0E86840F08070E860FFF791FA04467F
:1020A00005E000BFFFF78CFA001B022809D828685A
:1020B0008001F7D54CE000BFFFF782FA001B022831
:1020C00002D90320BDE8F88328688001F4D4E868C9
:1020D0001E490840E8603BE00128F3D0E868226A26
:1020E00000F00301914226D1616A00F0F00209017B
:1020F000103991421FD1A26A00F4FE41B1EB022FC8
:1021000019D194F82C2000F07841B1EBC26F12D1B4
:10211000218E00F4C00249084905A1F50011914241
:1021200009D194F8341000F0C06049084906A1F1C3
:10213000007181420CD00120C4E700000010024071
:102140000C000020007000400C809F01FCFFEEFEA0
:102150000020B7E710B5401EB0F1807F01D3012009
:1021600010BD4FF0E02460610F21601702F036F9D6
:102170000020A06107202061002010BD704770473B
:102180007047704770477047F0B590F83C20012ABF
:1021900043D0012580F83C50022280F83D2003689E
:1021A0005A689C681E4E1F4FDFF87CC0B34203D0B4
:1021B000BB4201D0634504D122F4700E4A6842EA62
:1021C0000E02DFF868E002EA0E02D1F800E04EEA03
:1021D000020EC3F804E00268B24212D0B2F1804F9E
:1021E0000FD0134B9A420CD0124B9A4209D0124B8B
:1021F0009A4206D0BA4204D0104B9A4201D06245AE
:1022000004D1896824F080031943916080F83D501F
:10221000002180F83C100846F0BD0220F0BD00000F
:10222000002C014000340140005001408FFFFFFDB1
:102230000004004000080040000C00400040014045
:10224000704710B5040003D094F83D0010B107E0CA
:10225000012010BD002084F83C00204600F022F848
:10226000022084F83D00211D206801F03BF9012087
:1022700084F8480084F83E0084F83F0084F8400069
:1022800084F8410084F8420084F8430084F8440054
:1022900084F8450084F8460084F8470084F83D003F
:1022A000002010BDF8B5384905460468002010220A
:1022B00080234E15CF144FF4005CB4F1804F1ED034
:1022C000DFF8C8E0744537D18C6D44F008048C65A4
:1022D000896D304C01F0080100912D4944F80C1B28
:1022E0004921C9C464E8070C2A48C4E90112FEF771
:1022F000FBFB08B1FEF7A2FAAC62A562F8BD8C6DDB
:1023000044F001048C65896D224C01F001010091BB
:102310001F49603C143944F80C1B3821C9C464E8D7
:10232000070C1C48C4E901126038FEF7DDFB08B158
:10233000FEF784FA6C62E0E7174884420ED1886D9C
:1023400040F010008865886D002200F010000090B9
:1023500011463620FFF79AF9362010E00F488442E4
:10236000CCD1886D40F020008865886D002200F097
:102370002000009011463720FFF788F93720BDE88C
:10238000F840FFF775B9000000100240000C004053
:102390001C000240F8020020001000400014004021
:1023A00090F83D10012901D001207047022180F8EA
:1023B0003D100168CA6842F00102CA600068134912
:1023C000884214D0B0F1804F11D0114988420ED00C
:1023D000104988420BD01049884208D00F498842E2
:1023E00005D00F49884202D00E49884207D1816842
:1023F0000D4A1140062906D0B1F5803F03D001688F
:1024000041F001010160002070470000002C0140F4
:102410000004004000080040000C0040003401406F
:1024200000400140005001400700010070B5044623
:1024300090F83C00002501281CD0012684F83C605F
:10244000022084F83D0022689068334B184020F445
:102450007F4090600868B0F5005F2ED016DC402801
:1024600049D009DCD0B1102818D0202816D0302847
:1024700049D113E0022070BD50282AD0602830D006
:1024800070280FD0B0F5805F3DD13DE010F00F0F08
:1024900039D10111A1F58031072934D822680146CC
:1024A000104625E0CB68D1E90121206801F00EF942
:1024B0002068816841F0770109E0CB68D1E901210A
:1024C000206801F003F92068816841F4804181604F
:1024D0001AE0CA684968206801F0CCFA50212068E7
:1024E00006E0CA684968206801F0D5FA60212068D2
:1024F00001F0F6F808E0CA684968206801F0BAFA05
:1025000040212068F4E7012584F83D60002084F82C
:102510003C00284670BD000088FFCEFF7047704722
:102520002DE9F04104460068C66805694FF00007D0
:10253000A90713D5B10711D5F91E01610120207734
:10254000206880698007204602D0FFF7E8FF04E09A
:1025500000F0F6F8204600F0B8F92777680716D59E
:10256000700714D521686FF00400086102202077FD
:102570002068806910F4407F204602D0FFF7CFFF2B
:1025800004E000F0DDF8204600F09FF927772807E7
:1025900015D5300713D521686FF0080008610420B5
:1025A00020772068C0698007204602D0FFF7B7FF78
:1025B00004E000F0C5F8204600F087F92777E80628
:1025C00016D5F00614D521686FF0100008610820B8
:1025D00020772068C06910F4407F204602D0FFF7C2
:1025E0009EFF04E000F0ACF8204600F06EF927777B
:1025F000E80708D0F00706D021686FF001000861F5
:10260000204600F0F3FA280601D4A80408D53006C5
:1026100006D521686FF4025008612046FFF7AFFD30
:10262000E80508D5300606D521686FF4807008618A
:102630002046FFF7A3FD680608D5700606D5216879
:102640006FF040000861204600F0EEFAA80608D5B9
:10265000B00606D521686FF0200008612046FFF71C
:102660008FFDE80208D5F00206D521686FF48010CE
:1026700008612046FFF786FDA80208D5B00206D5FE
:1026800021686FF4001008612046FFF77AFD6802A8
:1026900008D5700206D521686FF4800008612046D5
:1026A000FFF771FD28020AD5300208D521686FF4C2
:1026B000000008612046BDE8F041FFF7C1BDBDE85C
:1026C000F081000030B587B0044614216846FDF75C
:1026D0006AFE24680022164802210323B4F1804FC9
:1026E00016D0144DAC4211D1C46C44F00404C4643F
:1026F000C06C00F004000590C8028DE80F000120B6
:1027000004900D48694600BFFEF730FE07B030BDAB
:10271000C46C44F00804C464C06C00F00800059068
:1027200008208DE80F00049169460448ECE700009A
:1027300000100240000C004000080048000C004857
:10274000704770B5044690F83C0000260D460128FD
:102750000BD0012084F83C000C2A4AD007DC82B15F
:10276000042A20D0082A06D131E0022070BD102AA8
:1027700053D0142A63D00126002084F83C00304650
:1027800070BD206800F0B6FF2068816941F0080143
:1027900081612068816921F004018161206881697B
:1027A0002A69114311E0206800F0FAFF206881696E
:1027B00041F4006181612068816921F48061816157
:1027C000206881692A6941EA02218161D4E7206891
:1027D00001F036F82068C16941F00801C161206844
:1027E000C16921F00401C1612068C1692A691143EE
:1027F00011E0206801F074F82068C16941F40061BB
:10280000C1612068C16921F48061C1612068C1692A
:102810002A6941EA0221C161AEE7206801F0B0F8FF
:102820002068016D41F0080101652068016D21F00B
:10283000040101652068016D2A69114311E02068D7
:1028400001F0DAF82068016D41F40061016520684B
:10285000016D21F4806101652068016D2A6941EAFA
:102860000221016588E710B5040003D094F83D000B
:1028700010B107E0012010BD002084F83C00204684
:1028800000F022F8022084F83D00211D206800F0AD
:1028900029FE012084F8480084F83E0084F83F00B7
:1028A00084F8400084F8410084F8420084F8430032
:1028B00084F8440084F8450084F8460084F8470012
:1028C00084F83D00002010BD70477047704700003D
:1028D0002DE9F04117460D0004464FF0000610D0D8
:1028E000042D15D0082D1AD00C2D1FD0102D24D05A
:1028F00094F84300022827D094F84300012826D0FA
:102900007CE094F83E0002281ED094F83E00F5E7E3
:1029100094F83F00022817D094F83F00EEE794F8AF
:102920004000022810D094F84000E7E794F84100F6
:10293000022809D094F84100E0E794F84200022808
:1029400002D094F84200D9E70220BDE8F0819FB39D
:1029500093B35749574ADFF860C1022055B1042D9F
:1029600019D0082D29D00C2D38D0102D48D084F83E
:10297000430047E084F83E00606AC162606A3946FD
:102980000263606AC0F834C02268606A3432FEF7BD
:102990000BF988B938E084F83F00A06AC162A06AE8
:1029A00039460263A06AC0F834C02268A06A38328F
:1029B000FEF7FAF800B92CE020E084F84000E06A65
:1029C000C162E06A39460263E06AC0F834C0226836
:1029D000E06A3C32FEF7E8F880B91FE084F8410075
:1029E000206BC162206B39460263206BC0F834C093
:1029F0002268206B4032FEF7D7F8A0B10120A4E78F
:102A000084F84200012650E02068C16841F400715A
:102A10000DE02068C16841F4806108E02068C16869
:102A200041F4006103E02068C16841F48051C16055
:102A300001222946206800F0C7FD20492068204A6D
:102A4000204B214D88420BD0904209D0984207D0AC
:102A50001E4FB84204D01E4FB84201D0A84203D145
:102A6000476C47F4004747642068884211D0B0F1B2
:102A7000804F0ED0174988420BD01749884208D0A2
:102A80001649884205D0904203D0984201D0A8420E
:102A900007D18168124A1140062906D0B1F5803F5E
:102AA00003D0016841F00101016030464DE70000AC
:102AB000E33500084136000879360008002C014053
:102AC00000340140004001400050014000440140FA
:102AD000004801400004004000080040000C004095
:102AE0000700010070B50D0004464FF0000607D046
:102AF000042D0CD0082D11D00C2D16D0012658E035
:102B00002068C16821F40071C160606A13E0206828
:102B1000C16821F48061C160A06A0CE02068C168CE
:102B200021F40061C160E06A05E02068C16821F419
:102B30008051C160206BFDF73DFF002229462068CF
:102B400000F042FD234B41F2111120688A009842A7
:102B50000ED0214B98420BD0204B984208D0204BEE
:102B6000984205D01F4B984202D01F4B984209D182
:102B7000036A0B4206D1036A134203D1436C23F468
:102B8000004343642068036A0B4206D1016A114284
:102B900003D1016821F00101016001205DB1042D24
:102BA0000CD0082D0DD00C2D0ED0102D0FD084F888
:102BB0004300304670BD84F83E00FAE784F83F00D9
:102BC000F7E784F84000F4E784F84100F1E784F87F
:102BD0004200EEE7002C014000340140004001407B
:102BE00000440140004801400050014010B5006819
:102BF0000A49884203D1BDE8104000F029BB0849CA
:102C0000884209D1FDF788FD01F006FABDE81040C1
:102C10000021044801F060BB10BD0000001400401A
:102C20000010004068010020704790F884100129CE
:102C300018D0012180F884102421C0F88810016880
:102C40000A680B6823F001030B6022F00051002298
:102C50004266036819602021C0F8881080F884203B
:102C6000104670470220704770B5044690F8840003
:102C700001281DD0012084F884002420C4F8880095
:102C800020680568026822F00102026020688268FC
:102C900022F060620A438260204600F00FFF206845
:102CA00005602020C4F88800002084F8840070BDEE
:102CB000022070BD70B5044690F8840001281DD034
:102CC000012084F884002420C4F888002068056866
:102CD000026822F0010202602068826822F06042ED
:102CE0000A438260204600F0E9FE2068056020204B
:102CF000C4F88800002084F8840070BD022070BDF4
:102D000010B5040003D0D4F8880010B107E001200A
:102D100010BD002084F88400204600F027F824200D
:102D2000C4F888002068016821F001010160A06AF0
:102D300010B1204600F0E4FE204600F0C5FF012857
:102D4000E6D02068416821F49041416020688168A4
:102D500021F02A0181602068016841F001010160D1
:102D60002046BDE8104000F02FBF000030B59BB0FA
:102D70000446142115A8FDF716FB54216846FDF7FB
:102D800012FB16492068884225D102250024684696
:102D900000950294FEF712FD08B1FDF74FFD1048B3
:102DA000816D41F400318165816D01F400311A912A
:102DB000C16C41F00801C164C06CCDE9165400F04B
:102DC00008001A90602015900720CDE9184015A939
:102DD0000448FEF7CBFA1BB030BD000000440040B1
:102DE00000100240000C0048FEE70000114808B542
:102DF000816C41F004018164816C01F00401009157
:102E0000816C41F001018164806C002200F00100BE
:102E1000009011460B20FEF739FC0B20FEF728FC32
:102E2000002211460C20FEF731FCBDE808400C20C2
:102E3000FEF71EBC0010024070B5144812494FF452
:102E4000407202C00021E0E80212042240F80C1B8C
:102E50001F2300F8081C00F8071C00F8061C40F8A7
:102E6000042C0522082402253CC03CC00122C0E9F4
:102E700000210648FEF756F8002803D0BDE8704050
:102E8000FDF7DCBC70BD0000006400403C00002089
:102E900070B5144812494FF4407202C00021E0E8B6
:102EA0000212042240F80C1B1F2300F8081C00F833
:102EB000071C00F8061C40F8042C052208240225F3
:102EC0003CC03CC00122C0E900210648FEF72AF8B8
:102ED000002803D0BDE87040FDF7B0BC70BD000015
:102EE00000680040A000002070B5144812494FF45B
:102EF000407202C00021E0E80212042240F80C1BDC
:102F00001F2300F8081C00F8071C00F8061C40F8F6
:102F1000042C0522082402253CC03CC00122C0E943
:102F200000210648FDF7FEFF002803D0BDE87040F1
:102F3000FDF784BC70BD0000006C0040040100205F
:102F400010B586B014216846FDF72DFA2348C16CF0
:102F500041F02001C164C16C01F020010591C16CF8
:102F600041F00801C164C16C01F008010591C16C18
:102F700041F00401C164C16C01F004010591C16C10
:102F800041F00101C164C16C01F001010591C16C06
:102F900041F00201C164C06C002400F00200059001
:102FA0004FF4C040CDE9000469460D480294FEF795
:102FB000DDF94FF46070CDE90004694609480294D8
:102FC000FEF7D4F94FF4E060CDE9000469464FF014
:102FD00090400294FEF7CAF906B010BD00100240FE
:102FE000000C00480008004810B58EB0002407947B
:102FF000089409940A940B940C941C2168460D942F
:10300000FDF7D1F91C484FF08041C0E90014C721F9
:10301000C0E9024104618461FFF713F908B1FDF7CB
:103020000DFC4FF48050079007A91348FFF7FEF9F5
:1030300008B1FDF703FC1048FFF715FC08B1FDF7D8
:10304000FDFB0B940BA90C480D94FFF79DF808B1FC
:10305000FDF7F4FB6020CDE90004029400226946EC
:1030600005480494FFF76DFB08B1FDF7E7FB024844
:10307000FFF728FB0EB010BD6801002010B58EB020
:1030800000240794089409940A940B940C941C212E
:1030900068460D94FDF787F91D481C49C0E90014E6
:1030A000C721C0E9024104618461FFF7CAF808B191
:1030B000FDF7C4FB4FF48050079007A91448FFF7B1
:1030C000B5F908B1FDF7BAFB1148FFF7CCFB08B121
:1030D000FDF7B4FB0B940BA90D480D94FFF754F8C2
:1030E00008B1FDF7ABFB6020CDE900040294042297
:1030F000694607480494FFF724FB08B1FDF79EFBDF
:103100000348FFF7DFFA0EB010BD0000000C0040CE
:10311000B40100203EB500240F48009401940D49ED
:10312000029401609F21C0E9011444F61F6184618B
:10313000C160FFF786F808B1FDF780FB009469468F
:1031400005480294FFF720F8002801D0FDF776FB30
:103150003EBD000000100040000200203EB50024EB
:103160000F48009401940D49029401609F21C0E929
:10317000011440F2E7318461C160FFF762F808B1E1
:10318000FDF75CFB0094694605480294FEF7FCFFDE
:10319000002801D0FDF752FB3EBD000000140040A6
:1031A0004C020020184810B5164901604FF4E13177
:1031B0004160002181600C22C160C0E9041281617C
:1031C000C161016241628162FFF79AFD08B1FDF7BA
:1031D00035FB00210C48FFF76DFD08B1FDF72EFB14
:1031E00000210948FFF740FD08B1FDF727FB06481D
:1031F000FFF71BFD002803D0BDE81040FDF71EBB04
:1032000010BD00000044004058030020FEE7FEE728
:103210000123202201490248FDF76EBB1C0000205B
:10322000A0000020704700000123602201490248ED
:10323000FDF762BB1C000020A000002001237022CB
:1032400001490248FDF758BB1C000020A0000020E7
:103250002DE9F0472A4E2B4F4FF00109D6E9000126
:10326000401C41F100010025A8464FF0020AC6E9C2
:10327000000100BF07EB0514A1882068FEF79AF94A
:10328000A17931B1012908D002291AD003292FD1FF
:103290001EE068BB84F8069017E0D6E900C2A36878
:1032A000BCEB030362EB08025B1F72F100021FD349
:1032B00010B184F806801BE084F806A084F80C9016
:1032C00016E0012814D10320A0713068A0600FE03F
:1032D000D6E900C2A3684146BCEB030362EB0102DE
:1032E0005B1F72F1000203D3012806D084F806A008
:1032F0006D1C062DBEDBBDE8F087A1712173F7E7D9
:1033000000000020EC0300202DE9F04F434A424C1E
:10331000434BD2E9001240F201184FF4817B40F296
:1033200003194FF4827AA04219D13E480068404503
:1033300004D100BFC3E90012BDE8F08F584502D1A7
:10334000C3E90212F8E7484503D100BFC3E90412FC
:10335000F2E75045F0D100BFC3E90612ECE7344C68
:10336000DFF8C4C000270126304D246840F2051E56
:10337000604526D14445DDD05C45E1D04C45E5D0E3
:103380005445E9D0744501D12E70D5E7B4F5837F5B
:1033900011D0A4F5807007380BD0B4F5847F0ED01F
:1033A000A4F58070093808D0B4F5887FC4D1EE70D8
:1033B000C2E76E70C0E72F70BEE7AE70BCE76F70FB
:1033C000BAE7DFF870C06045B6D11B4800685045C9
:1033D000C2D04845BAD05845B2D04045AAD054458D
:1033E000BAD07045D0D0B0F5837FE4D0A0F580731B
:1033F000073BDED0B0F5847FE1D00C4BA0F58074A4
:103400005B1E093C05D0B0F5887F95D1C3E9021257
:10341000CDE7C3E90212D0E73C0000200000002005
:10342000780E0020580F0020A00000202900002066
:10343000800F002004010020A80F0020012340225B
:1034400001490248FDF758BA1C000020A0000020E6
:103450007047FEF7BBB810B594B038216846FCF74A
:10346000A2FF14210EA8FCF79EFF0020FEF740F9F2
:10347000012000900004032405210190CDE90841BA
:1034800002204021CDE90A1007900C900D9068466B
:10349000FEF75EFC08B172B6FEE70F20CDE90E0420
:1034A000002010901190129004210EA8FEF706FB48
:1034B000002801D072B6FEE714B010BD02480168C2
:1034C00041F470010160704788ED00E00148FFF7AA
:1034D00027B80000000200200148FFF721B80000D3
:1034E0004C0200202DE9F04F02682E4B2E4E2F4F3C
:1034F000DFF8BCC02F4C304D4FF0804B98420BD0C2
:10350000584509D0B04207D0B84205D0604503D035
:10351000A04201D0A84204D122F070084A6842EAD1
:103520000802DFF89880DFF89890DFF898A09842BA
:1035300011D058450FD0B0420DD0B8420BD06045E5
:1035400009D0A04207D0404505D0484503D050459A
:1035500001D0A84203D122F44076CA6832434E69B2
:1035600022F08002324302608A68C2620A68826284
:10357000984209D0A04207D0404505D0484503D025
:10358000504501D0A84201D109690163012141617F
:103590000169C90703D0016921F001010161BDE89A
:1035A000F08F0000002C01400004004000080040A3
:1035B000000C004000340140005001400040014038
:1035C000004401400048014010B501F01F030121F3
:1035D000046A99408C430462016A9A401143016273
:1035E00010BD10B5846A0121626A824205D121773B
:1035F000C069F8B984F83E101CE0A26A824206D184
:1036000002222277C069A8B984F83F1012E0E26A6A
:10361000824206D104222277C06958B984F840104A
:1036200008E0226B824205D108222277C06908B9DE
:1036300084F841102046FFF748F90020207710BD9C
:1036400010B5846A616A814201D101200DE0A16A4E
:10365000814201D1022008E0E16A814201D10420C7
:1036600003E0216B814201D1082020772046FFF73B
:103670002DF90020207710BD10B5846A0121626AFF
:10368000824203D1217784F83E1019E0A26A824277
:1036900004D10220207784F83F1011E0E26A8242D0
:1036A00004D10420207784F8401009E0226B824284
:1036B00004D10820207784F8411001E084F83D10FF
:1036C0002046FEF72BFF0020207710BD10B5846840
:1036D00042EA032224F47F440A432243826010BD5D
:1036E0008268034B1A400A4342F007018160704729
:1036F0008FFFCFFF2DE9F047056A026A22F0010231
:103700000262436882691F4C25F0020522400C6862
:1037100022F0030214438A681C4E2A431A4D1C4FA0
:10372000DFF870C0DFF87090DFF870A0A84209D011
:10373000B04207D0B84205D0604503D0484501D01B
:10374000504506D122F00808CA6842EA080222F071
:103750000402A84209D0B04207D0B84205D0604563
:1037600003D0484501D0504505D14D6923F440733D
:103770001D438B692B434360846149684163026246
:10378000BDE8F0878FFFFEFF002C014000340140B0
:103790000040014000440140004801400050014009
:1037A000F0B5056A026A22F010020262426883697B
:1037B0001C4C1E4E23400C6823F4407343EA04243F
:1037C00025F020038D681A4F43EA0513164DA842D1
:1037D00003D0B04201D0B84207D1D1F80CC023F0D9
:1037E000800343EA0C1323F04003A8420CD0B042FC
:1037F0000AD0104DA84207D00F4DA84204D00F4D5B
:10380000A84201D0B84207D14D6922F4406242EA91
:1038100085028D6942EA850242608461496881635C
:103820000362F0BDFF8FFFFE002C01400034014019
:103830000050014000400140004401400048014068
:10384000F0B5056A026A22F4807202624368C269B6
:103850001C4C1E4E22400C6822F00302144325F437
:1038600000728D681A4F42EA0522174DA84203D014
:10387000B04201D0B84207D1D1F80CC022F40062A6
:1038800042EA0C2222F48062A8420CD0B0420AD054
:10389000104DA84207D0104DA84204D00F4DA842A9
:1038A00001D0B84207D14D6923F4405343EA0513D0
:1038B0008D6943EA05134360C4614968C1630262CC
:1038C000F0BD00008FFFFEFF002C014000340140DE
:1038D00000500140004001400044014000480140C8
:1038E000F0B5056A026A22F4805202624268C36936
:1038F0001C4C1E4E23400C6823F4407343EA0424FE
:1039000025F400538D681A4F43EA0533164DA8423B
:1039100003D0B04201D0B84207D1D1F80CC023F493
:10392000004343EA0C3323F48043A8420CD0B04256
:103930000AD0104DA84207D00F4DA84204D00F4D19
:10394000A84201D0B84207D14D6922F4404242EA70
:1039500085128D6942EA85124260C461496801643A
:103960000362F0BDFF8FFFFE002C014000340140D8
:103970000050014000400140004401400048014027
:1039800030B5056A026A22F4803202624268036D31
:10399000124C23400C681C4325F400330D8943EA84
:1039A00005430F4DA8420ED00E4DA8420BD00E4D30
:1039B000A84208D00D4DA84205D00D4DA84202D016
:1039C0000C4DA84204D14D6922F4803242EA05220E
:1039D0004260046549688164036230BD8FFFFEFF69
:1039E000002C0140003401400040014000440140EF
:1039F000004801400050014030B5046A026A22F4D8
:103A0000801202624268036D134D24F400142B40AF
:103A10000D6843EA05230D8944EA05540F4DA84279
:103A20000ED00F4DA8420BD00E4DA84208D00E4D1F
:103A3000A84205D00D4DA84202D00D4DA84204D198
:103A40004D6922F4802242EA85224260036549687A
:103A5000C164046230BD0000FF8FFFFE002C0140F6
:103A60000034014000400140004401400048014052
:103A70000050014010B5036A046A24F00104046296
:103A8000846924F0F00444EA021423F00A020A4391
:103A90008461026210BD10B5036A046A24F0100448
:103AA0000462846923F0A00324F4704444EA0232DF
:103AB00043EA01118261016210BD000030B5416E20
:103AC000B9B1026891689268C1F342610B4B520F21
:103AD0009C5CE50003F10804A25CB5FBF2F2A0F8DF
:103AE0006A205A5C615CD200B2FBF1F1A0F8681068
:103AF00030BD0121A0F86A10F8E70000B6440008C4
:103B000090F82810090706D501684A68836B22F4EB
:103B100000421A434A6090F82810C90706D001688D
:103B20004A68C36A22F400321A434A6090F82810A7
:103B3000890706D501684A68036B22F480321A436C
:103B40004A6090F82810490706D501684A68436B17
:103B500022F480221A434A6090F82810C90606D53C
:103B600001688A68C36B22F480521A438A6090F815
:103B70002810890606D501688A68036C22F4005271
:103B80001A438A6090F82810490611D501684A68DE
:103B9000436C22F480121A434A60416CB1F5801FD5
:103BA00006D101684A68836C22F4C0021A434A6055
:103BB00090F82810090606D501684A68C06C22F4FE
:103BC000002202434A6070472DE9F843002604466C
:103BD000C0F89060FDF7F4FC8046206800684FF064
:103BE000200500076FF07E4713D5434600222904C5
:103BF0002046009700F0B4F958B1216851E8000F51
:103C000020F0800041E80002002AF6D1C4F8885074
:103C100021E020680068400722D5434600224FF487
:103C200080012046009700F09BF9C8B1216851E857
:103C3000000F20F4907041E80002002AF6D12068BD
:103C4000083050E8001F21F0010140E80012002A6E
:103C5000F5D1C4F88C5084F884600320BDE8F88363
:103C6000C4F88850C4F88C5044F86C6F66602676AF
:103C70000020F3E710B5026852E8001F21F49071AC
:103C800042E80013002BF6D10E4B0268083252E8CE
:103C9000001F194042E80014002CF6D1C16E012922
:103CA00008D1016851E8002F22F0100241E80023FA
:103CB000002BF6D12021C0F88C100021C16641678D
:103CC00010BD0000FEFFFFEF2DE9F0410446016842
:103CD00080682269E3691043626900251A43104332
:103CE000DFF84CC20A68934B1A4002430A6020680E
:103CF0004168E26821F44051114341602168A069A4
:103D0000614501D0226A10438A688B4B1A400243F6
:103D10008A602068C16A626A21F00F011143C162A2
:103D20008649236886488B420DD1D0F8880010F070
:103D3000030006D0012867D0022854D0032851D1AF
:103D400064E001204FE07F498B420BD1D0F888001E
:103D500010F00C0047D0042845D0082852D00C2879
:103D600040D153E078498B420BD1D0F8880010F055
:103D7000300038D0102847D0202843D0302831D107
:103D800044E072498B420BD1D0F8880010F0C0009B
:103D900029D0402838D0802834D0C02822D135E01E
:103DA0006B498B420ED1D0F8880010F440701AD0C5
:103DB000B0F5807F28D0B0F5007F23D0B0F5407FEC
:103DC00010D123E063450DD1D0F8880010F4406095
:103DD00009D0B0F5806F17D0B0F5006F12D0B0F5F4
:103DE000406F13D010205B4A5B4F00264FF4004118
:103DF000634539D160B102280DD004280DD00828C0
:103E000031D10EE00220EEE70420ECE70820EAE7DB
:103E1000FDF742FF03E0114603E0FDF761FF0100FB
:103E20007BD0606A37F810206768B1FBF2F007EBCF
:103E30004703834269D8B0EB073F66D800230846A2
:103E40001946FCF739FA090241EA106102027808C2
:103E5000101871413A460023FCF72EFA3F4AA0F5AC
:103E60004071914257D950E0E3694FF6EF788B42A9
:103E70002BD1092849D2DFE800F005080D48254874
:103E800048480E00FDF708FF01E0FDF717FF0100AD
:103E900001D142E01146606A37F81000B1FBF0F042
:103EA0004100606801EB5001B1FBF0F1A1F110009D
:103EB00040452AD84FF6F07201EA0200C1F34201F0
:103EC000084328E0FDF70CFFE1E709281DD2DFE8F1
:103ED00000F005080D1C1E1C1C1C0E00FDF7DCFE6E
:103EE00001E0FDF7EBFE010001D116E01146606A2A
:103EF00037F81000B1FBF0F1606801EB5001B1FB45
:103F0000F0F0A0F11001414504D9012505E0FDF7CD
:103F1000E7FEE8E780B22168C8600120A4F86A00E3
:103F200024F8680F2846E6602661BDE8F0810000AD
:103F300000800040F369FFCFFFF4FF11003801401B
:103F4000001002400044004000480040004C004087
:103F5000005000400024F4009E440008FFFC0F00C5
:103F60002DE9F047994617460D4604464FF00008E4
:103F7000089E33E0701C31D0FDF722FBA0EB090056
:103F8000B04218D8BEB120680168490726D5802DF7
:103F900024D0402D22D0C169C94309070DD408257A
:103FA00005622046FFF766FEC4F8905084F88480CE
:103FB0000120BDE8F0870320FBE7C069C04300058E
:103FC0000CD421684FF4006008622046FFF752FECF
:103FD0002020C4F8900084F88480ECE72068C06951
:103FE00035EA000004D00020B842C3D00020E0E74A
:103FF0000120F9E7FEE700000020064B4FF41671A0
:10400000024600BF43F82120401C491C3228F9DB3E
:10401000704700004C0400202DE9FC4F9D489E4C49
:1040200002789FED9E1A6AB19D484FF480754FF05B
:1040300000080088C0F30803EB1A78EB08010FD2E0
:1040400001250EE0012563792279E178A8B2B0EE6E
:10405000410A00F053F96D1C192DF4DDBDE8FC8F09
:1040600000259048DFF840B2DFF840A2007860B346
:1040700000205B46464651461F5C012F00D10E7062
:10408000401CC0B20328F7D99AF8000001282FD1AC
:10409000D0071BD00DB1002000E0042084A200EB6B
:1040A0004009D2E90012CDE90012002609EB04070D
:1040B00014F80910BB787A781DF80600B0EE410AB2
:1040C00000F01CF9761C062EF2D311E078A1002630
:1040D000D1E900016F46CDE9000163792279E178E9
:1040E000B85DB0EE410A00F009F9761C062EF4D353
:1040F0006C48407870B300205B46424651461E5CD7
:10410000012E00D10A70401CC0B20328F7D99AF8DA
:104110000000012831D15F48007880071BD50DB120
:10412000002000E0042064A200EB4009D2E9001264
:10413000CDE90012002609EB040714F80910BB783A
:104140007A781DF80600B0EE410A00F0D7F8761C28
:10415000062EF2D311E058A10026D1E900016F46E6
:10416000CDE9000163792279E178B85DB0EE410ACA
:1041700000F0C4F8761C062EF4D34A48807870B359
:1041800000205A4643465146165C012E00D10B7062
:10419000401CC0B20328F7D99AF80000012831D199
:1041A0003C48007840071BD50DB1002000E00420FA
:1041B00043A200EB4009D2E90012CDE9001200262B
:1041C00009EB040714F80910BB787A781DF806008B
:1041D000B0EE410A00F092F8761C062EF2D311E000
:1041E00037A10026D1E900016F46CDE900016379CE
:1041F0002279E178B85DB0EE410A00F07FF8761CD4
:10420000062EF4D32748C07800283FF427AF0020BB
:104210005A4643465146165C012E00D10B70401C95
:10422000C0B20328F7D99AF8000001287FF416AF2E
:104230001848007800071AD50DB1002000E00420CE
:1042400021A10025D1E90021CDE9002100EB4007A3
:10425000E8463E19E15DB378727818F80500B0EED3
:10426000410A00F04BF86D1C072DF3D3F6E618A1B8
:104270000025D1E900016E46CDE90001637922797C
:10428000E178705DB0EE410A00F038F86D1C062D43
:10429000F4D3E3E62800002040450008CDCCCC3D17
:1042A000000000201F00002029000020380000200E
:1042B00001020307080900000405060A0B0C0000B0
:1042C0000D0E0F13141500001011121617181900F7
:1042D000101112161718000070B50C460546FEF7AF
:1042E00001FCFFF789FE21462846BDE8704040F2F8
:1042F0008A23014AFEF7ECBA4C040020F0B51928D5
:1043000065D2B5EEC00AF1EE10FA02D29FED300A86
:1043100006E010EE104AB4F17E5F01DDB7EE000A50
:1043200000EE902A00EB40004FF6FF74F8EE600AB2
:1043300004EAC000072460EE800AFCEEE00A10EEFA
:10434000902A00EE901AD5B2F8EE600A60EE800A6C
:10435000FCEEE00A10EE901A00EE903ACEB2F8EEC3
:10436000600A20EE800ABCEEC00A10EE101ACFB22E
:1043700018494B780A78184925FA04FC5FEACC7C86
:1043800001D0944600E09C4641F820C0401C80B219
:10439000641EF1D55FF0070426FA04F5ED0701D09D
:1043A000154600E01D4641F82050401C80B2641EB6
:1043B000F2D5072427FA04F5ED0701D0154600E0F1
:1043C0001D4641F82050401C80B2641EF2D5F0BD5D
:1043D000000000001D0000204C0400200907090E09
:1043E000002804DB00F1E02080F80014704700F0A2
:1043F0000F0000F1E02080F8141D7047FDF7EEF883
:10440000FFF729F8FEF79CFDFEF7F0FCFEF714FD20
:10441000FEF73EFDFEF768FDFEF7E6FDFEF72EFE19
:10442000FEF7C0FEFEF776FEFEF798FEFCF754F9A5
:1044300010490868C26822F00102C2600868C168B9
:1044400021F00201C1600C490868C26822F0010233
:10445000C2600868C16821F00201C1600748FDF729
:104460009FFF0748FDF79CFFFCF702F80120FCF7CF
:10447000E1FBF9E768010020B40100200002002000
:104480004C0200204FF04070E1EE100A704700012E
:10449000020304050607080C101418203040010020
:1044A00002000400060008000A000C0010002000B2
:1044B0004000800000010101010307010000080421
:1044C00002040801010100000000000000000102D8
:1044D00003040607080900000000010203040000AD
:1044E00000080048800000000000000000000000FC
:1044F000000800480002000000000000000000006A
:104500000000004800020000000000000000000061
:104510000000004800010000000000000000000052
:10452000000000480004000000000000000000003F
:10453000000800480001000000000000000000002A
:10454000FF000000FF000000FFFFFFFF000000FF72
:10455000FF0000FFFFFF00FFFFA500FFC0CBFFD75C
:1045600000BFFF0098FF98EE82EE4B0082FFDFC491
:10457000C8FFFF87CEEB808080FF7F509C450008FE
:10458000000000203C00000014020008D84500088C
:104590003C000020F415000030020008000000007C
:1045A00000000000000000001000000001000000FA
:1045B000000000000024F400017038010101010135
:1045C00001000000000000000000000000000000EA
:0845D0000000000000000000E3
:04000005080001D915
:00000001FF
