:020000040800F2
:1000000028160020A50200087D4100089D3B00083D
:10001000794100089D0400083D50000800000000E0
:100020000000000000000000000000007145000812
:10003000B50C00080000000081410008754500086B
:10004000BF020008BF020008BF020008BF0200088C
:10005000BF020008BF020008BF020008BF0200087C
:10006000BF020008BF020008BF0200089D0C000884
:10007000A90C0008BF020008BF020008BF02000868
:10008000BF020008BF020008BF020008BF0200084C
:10009000BF020008C50C0008D10C0008BF02000810
:1000A000BF020008BF020008BF020008BF0200082C
:1000B000BF020008BF020008BF020008BF0200081C
:1000C000BF020008BF020008BF020008BF0200080C
:1000D000BF020008BF020008BF020008BF020008FC
:1000E000BF020008BF020008BF020008BF020008EC
:1000F000BF020008BF020008BF020008BF020008DC
:10010000BF020008BF020008BF020008BF020008CB
:10011000BF020008BF0200088D450008994500088D
:10012000BF020008BF020008BF020008BF020008AB
:10013000BF020008BF020008BF020008BF0200089B
:10014000BF020008BF020008BF020008BF0200088B
:10015000BF020008BF020008BF020008BF0200087B
:10016000BF020008BF020008BF020008BF0200086B
:10017000BF020008BF020008BF020008BF0200085B
:10018000BF020008BF020008BF020008BF0200084B
:10019000BF02000800000000DD0C0008E90C0008A8
:1001A000F50C0008010D0008BF020008BF0200089E
:1001B000BF020008BF020008BF020008BF0200081B
:1001C000BF020008BF020008BF020008BF0200080B
:1001D000BF020008BF02000800F002F800F052F869
:1001E00014A696E8000CB244B344DA4501D100F0FD
:1001F00049F8BAE80F000FA696E83000A5EB040511
:1002000004EB0607AAEB0704A7F101074FEA15154F
:100210004FEA3414A4F10104AC4201D300F032F8E7
:1002200013F0010F18BFFB1A43F0010300F001F8AF
:10023000DBE718477C5600009C560000103A24BFAC
:1002400078C878C1FAD8520724BF30C830C144BF3B
:1002500004680C6070470000704700000023002411
:1002600000250026103A28BF78C1FBD8520728BFC6
:1002700030C148BF0B6070471FB505F0A5FA1FBD20
:1002800010B510BD00F0D0F81146FFF7F5FF05F0EE
:1002900023FA00F0EEF803B4FFF7F2FF03BC00F01E
:1002A000F5F800000948804709480047FEE7FEE7E7
:1002B000FEE7FEE7FEE7FEE7FEE7FEE7FEE7FEE716
:1002C00004480549054A064B704700007945000877
:1002D000D90100082810002028160020281200202C
:1002E0002812002053EA020C00F069802DE9F04B3F
:1002F0004FF00006002B1FBFB3FA83F503FA05F495
:1003000024FA05F65E4012BF1643B2FA82F502FAED
:1003100005F4C5F120051EBF22FA05FC44EA0C04D1
:10032000203556EA044C4FEA144418BF641C4FF0C1
:1003300000084FF00009904271EB030C39D30029FB
:1003400019BFB1FA81F701FA07F6B0FA80F700FA9F
:1003500007F6C7F120071EBF20FA07FC46EA0C0685
:100360002037B6FBF4FCA7EB0507103F07F01F0B87
:10037000CBF120062CFA06F60CFA0BFB44BFB34671
:100380000026202FA4BF5E464FF0000B5BEA060C50
:1003900008BF4FF0010B19EB0B0948EB0608ABFB4C
:1003A000027C06FB02CC0BFB03CCC01B71EB0C01E7
:1003B000C1E70B46024641464846BDE8F08B13B5FF
:1003C000084318BF4FF0FF300146AFF30080BDE88F
:1003D0001C4070474FF0000200B513469446964605
:1003E000203922BFA0E80C50A0E80C50B1F1200148
:1003F000BFF4F7AF090728BFA0E80C5048BF0CC0F6
:100400005DF804EB890028BF40F8042B08BF704753
:1004100048BF20F8022B11F0804F18BF00F8012BC5
:100420007047704770477047754600F02BF8AE462E
:1004300005006946534620F00700854618B020B5F0
:10044000FFF73EFFBDE820404FF000064FF00007E9
:100450004FF000084FF0000BAC46ACE8C009ACE828
:10046000C009ACE8C009ACE8C00921F007018D461D
:10047000704710B50446AFF300802046BDE8104039
:10048000FFF709BF004870471800002001491820F5
:10049000ABBEFEE72600020070470000FEE700004A
:1004A0002DE9F0412DED028B40F61047C2F2000716
:1004B000387B40F20A080028C2F2000800F04682A9
:1004C000787B0021002888F800104BD140F694502A
:1004D00040F21401C2F20000C2F200012022012306
:1004E000012400F013FC7C73E0B345F2FA70C0F60F
:1004F0000000C47B057C467C9FED198A01202146C3
:100500002A463346B0EE480A04F0F6FF02202146A0
:100510002A463346B0EE480A04F0EEFF0320214697
:100520002A463346B0EE480A04F0E6FF072021468B
:100530002A463346B0EE480A04F0DEFF0820214682
:100540002A463346B0EE480A04F0D6FF0920214679
:100550002A463346B0EE480A04F0CEFF02E000BF60
:10056000CDCCCC3D387F002800F0F981787F002188
:10057000002888F8011047D140F6945040F2140149
:10058000C2F20000C2F2000130220123012400F077
:10059000BDFB7C77C0B345F2FA70C0F60000C47BA7
:1005A000057C467C1FED128A042021462A463346EC
:1005B000B0EE480A04F0A0FF052021462A46334643
:1005C000B0EE480A04F098FF062021462A4633463A
:1005D000B0EE480A04F090FF0A2021462A4633462E
:1005E000B0EE480A04F088FF0B2021462A46334625
:1005F000B0EE480A04F080FF0C2021462A4633461C
:10060000B0EE480A04F078FF97F82C00002800F0BC
:10061000B08197F82D000021002888F8021048D1F9
:1006200040F6945040F21401C2F20000C2F2000100
:1006300040220123012400F069FB87F82D40C0B35C
:1006400045F2FA70C0F60000C47B057C467C1FEDC5
:100650003C8A0D2021462A463346B0EE480A04F073
:100660004BFF0E2021462A463346B0EE480A04F0DE
:1006700043FF0F2021462A463346B0EE480A04F0D5
:100680003BFF132021462A463346B0EE480A04F0C9
:1006900033FF142021462A463346B0EE480A04F0C0
:1006A0002BFF152021462A463346B0EE480A04F0B7
:1006B00023FF97F83C00002800F0668197F83D0082
:1006C0000021002888F8031048D140F6945040F2E9
:1006D0001401C2F20000C2F20001502201230124E1
:1006E00000F014FB87F83D40C0B345F2FA70C0F645
:1006F0000000C47B057C467C1FED678A10202146E4
:100700002A463346B0EE480A04F0F6FE1120214690
:100710002A463346B0EE480A04F0EEFE1220214687
:100720002A463346B0EE480A04F0E6FE162021467B
:100730002A463346B0EE480A04F0DEFE1720214672
:100740002A463346B0EE480A04F0D6FE1820214669
:100750002A463346B0EE480A04F0CEFE97F84C0025
:10076000002800F01C8197F84D000021002888F82F
:10077000041040F0DB8040F6F85040F21401C2F261
:100780000000C2F2000160220123012400F0BEFA41
:10079000002887F84D4000F0C98045F2FA70C0F695
:1007A0000000C47B057C467C9FEDF68A0120214633
:1007B0002A463346B0EE480A04F09EFE0220214647
:1007C0002A463346B0EE480A04F096FE032021463E
:1007D0002A463346B0EE480A04F08EFE0420214635
:1007E0002A463346B0EE480A04F086FE052021462C
:1007F0002A463346B0EE480A04F07EFE0620214623
:100800002A463346B0EE480A04F076FE0720214619
:100810002A463346B0EE480A04F06EFE0820214610
:100820002A463346B0EE480A04F066FE0920214607
:100830002A463346B0EE480A04F05EFE0A202146FE
:100840002A463346B0EE480A04F056FE0B202146F5
:100850002A463346B0EE480A04F04EFE0C202146EC
:100860002A463346B0EE480A04F046FE0D202146E3
:100870002A463346B0EE480A04F03EFE0E202146DA
:100880002A463346B0EE480A04F036FE0F202146D1
:100890002A463346B0EE480A04F02EFE10202146C8
:1008A0002A463346B0EE480A04F026FE11202146BF
:1008B0002A463346B0EE480A04F01EFE12202146B6
:1008C0002A463346B0EE480A04F016FE13202146AD
:1008D0002A463346B0EE480A04F00EFE14202146A4
:1008E0002A463346B0EE480A04F006FE152021469B
:1008F0002A463346B0EE480A04F0FEFD1620214693
:100900002A463346B0EE480A04F0F6FD1720214689
:100910002A463346B0EE480A04F0EEFD1820214680
:100920002A463346B0EE480A04F0E6FD97F85C002C
:1009300000283ED097F85D000021002888F80510B7
:1009400042D0BDEC028BBDE8F08100BF002078737F
:10095000012088F80000387F00287FF407AE0020CF
:100960007877012088F8010097F82C0000287FF4A0
:1009700050AE002087F82D00012088F8020097F87B
:100980003C0000287FF49AAE002087F83D0001204B
:1009900088F8030097F84C0000287FF4E4AE0020AC
:1009A00087F84D00012088F8040097F85C000028C3
:1009B000C0D1002087F85D00012088F80500BDEC5B
:1009C000028BBDE8F08100BF40F6F85040F2140100
:1009D000C2F20000C2F2000170220123012400F0E3
:1009E00095F9002887F85D40ABD045F2FA70C0F663
:1009F00000008479C579067A9FED628A012021463C
:100A00002A463346B0EE480A04F076FD022021461D
:100A10002A463346B0EE480A04F06EFD0320214614
:100A20002A463346B0EE480A04F066FD042021460B
:100A30002A463346B0EE480A04F05EFD0520214602
:100A40002A463346B0EE480A04F056FD06202146F9
:100A50002A463346B0EE480A04F04EFD07202146F0
:100A60002A463346B0EE480A04F046FD08202146E7
:100A70002A463346B0EE480A04F03EFD09202146DE
:100A80002A463346B0EE480A04F036FD0A202146D5
:100A90002A463346B0EE480A04F02EFD0B202146CC
:100AA0002A463346B0EE480A04F026FD0C202146C3
:100AB0002A463346B0EE480A04F01EFD0D202146BA
:100AC0002A463346B0EE480A04F016FD0E202146B1
:100AD0002A463346B0EE480A04F00EFD0F202146A8
:100AE0002A463346B0EE480A04F006FD102021469F
:100AF0002A463346B0EE480A04F0FEFC1120214697
:100B00002A463346B0EE480A04F0F6FC122021468D
:100B10002A463346B0EE480A04F0EEFC1320214684
:100B20002A463346B0EE480A04F0E6FC142021467B
:100B30002A463346B0EE480A04F0DEFC1520214672
:100B40002A463346B0EE480A04F0D6FC1620214669
:100B50002A463346B0EE480A04F0CEFC1720214660
:100B60002A463346B0EE480A04F0C6FC1820214657
:100B70002A463346B0EE480ABDEC028BBDE8F04190
:100B800004F0BABCCDCCCC3D40F61040C2F200001F
:100B900040F6000C80224FF400734FF09041C4F6F1
:100BA000000C8280002283820162838401634FF4FF
:100BB000807301644FF48061C0F800C0827182606C
:100BC0008281C0F810C082758261828380F82620FD
:100BD00082628285838680F8362082638287A0F8CD
:100BE000441080F846208264A0F84C20C0F850C021
:100BF000A0F8543080F856208265A0F85C20704739
:100C0000B0B540F60840C2F20000D0E9002540F23D
:100C10007800C2F20000D0E9023E90F800C0D31A7A
:100C200065EB0E0ED3F5FA734FF0000373EB0E0174
:100C30004FF0000138BF01210CF0F00404EB010C6F
:100C4000D0E90441141B65EB0101D4F5FA7473EB90
:100C500001014FF0000138BF01214CEA410CD0E9FD
:100C60000641141B65EB0101D4F5FA7473EB010125
:100C70004FF0000138BF01214CEA810CD0E9084156
:100C8000121B65EB0101D2F5FA7273EB010138BF5B
:100C900001234CEAC3010170B0BD000040F6704072
:100CA000C2F2000000F0D4B840F6D040C2F200001A
:100CB00000F0CEB870470000EFF3108072B600BFAE
:100CC000FEE7000040F63050C2F2000000F038BBF2
:100CD00040F63050C2F2000000F032BB40F69450B3
:100CE000C2F2000000F02CBB40F69450C2F20000AB
:100CF00000F026BB40F6F850C2F2000000F020BB26
:100D000040F6F850C2F2000000F01ABB80B58AB07D
:100D10008C460021402B0491CDE90121039100F282
:100D200054800FF20602DFE803F03D3C21353729FD
:100D30002D2F3B50505039505050255050502B5073
:100D400050502750505050505050235050505050F9
:100D500050505050505050505050315050505050B2
:100D6000505050505050505050503300022318E013
:100D70000D2316E00A2314E00C2312E0052310E0F3
:100D80000B230EE006230CE007230AE00E2308E005
:100D90000F2306E0032304E0042302E0092300E01C
:100DA000082304934FF0004105914FF48011069100
:100DB0004FF4001107910021CDE9081101A9624605
:100DC00000F0B0F9B0FA80F0410908460AB080BDE1
:100DD00090F82510022931D180B50168D0E910CEF4
:100DE000826C0B6823F00E030B600B6823F0010389
:100DF0000B60116821F4807111600EF01F02012157
:100E000001FA02F2CCF80420D0E913325A60426DA4
:100E100032B1136823F480731360D0E91623536052
:100E200080F82510826B002180F824100AB19047C9
:100E30000021BDE880400846704700BF0421C1631F
:100E40000121002280F8251080F8242008467047F0
:100E5000B0B5D0E910C30268DCF8001003F01F033E
:100E60000424D2F800E09C400C4218BF1EF0040598
:100E700020D102249C400C4218BF1EF0020529D14B
:100E8000D940090714D51EF0080108BFB0BD11688C
:100E900021F00E011160012101FA03F2CCF80420C7
:100EA000C16380F82510416B002280F8242069B9C5
:100EB000B0BD00BF1168890603D4116821F0040198
:100EC0001160CCF80440016B0029F1D0BDE8B040BE
:100ED000084700BF1168890606D4116821F00A018D
:100EE0001160012180F82510CCF80440C16A00226D
:100EF000002980F82420E9D1DAE7000000284FF02B
:100F0000010100F085802DE9F04740F2000CC4F2A9
:100F1000020C03684FF6F8320CF5816ECBF6FD72C9
:100F2000734538BF02F580624CF6CD441A44CCF6C6
:100F3000CC44A2FB042903F0FC02A2F10802A2FBAC
:100F400004280CF580646FF00305D0E902A6076958
:100F50003CBF0024C4F2020405EA9905C0E910452B
:100F6000022480F825401C6847F6F07224EA020249
:100F7000324346693A4387693243C6693A43076A4E
:100F800032433A4342EA0A021A600CF502627345A0
:100F900038BF0CF50062AB180CF50862C264C8F3E8
:100FA000041201FA02F540F68401BAF5804FC4F24A
:100FB00002018364056505D1002242601A600D605C
:100FC00018E000BF4268D4B2013A032A4FF0000291
:100FD0001C600D600ED8631E01EB830747F87C2F61
:100FE00003F01F0201239340C1F8C030BC313A46E0
:100FF00002E000BF00210023C0E9152100210122E9
:10100000C365C16380F8252080F82410BDE8F0474F
:101010000846704790F824C0BCF1010F47D04FF04C
:10102000010C80F824C090F825C0BCF1010F3BD121
:101030002DE9F0414FF0020C80F825C04FF0000C74
:10104000C0F83CC0D0F800C000F14C0E9EE8304023
:10105000DCF80060BEF1000F26F00106CCF800605D
:1010600065601CBFD0E916456560D0E910560127C0
:1010700006F01F06846807FA06F6D0F830806E6026
:10108000CCF804300B46102C04BF13460A46CCF8AB
:101090000830CCF80C20DCF80010B8F1000F09D0B3
:1010A00041F00E010EE000BF002180F82410022064
:1010B000704700BF21F00401CCF80010DCF80010EC
:1010C00041F00A01CCF80010806C0168C90303D517
:1010D000016841F480710160BEF1000F05D0DEF8B7
:1010E000000040F48070CEF80000DCF8000040F012
:1010F0000100CCF800000020BDE8F081B0B5044646
:1011000000F01EFD054640F20000C2F200004068FB
:10111000611C18BF044400BF00F012FD401BA04238
:10112000FAD3B0BD90F85C30022B17D12DE9F04115
:10113000D0F800E0DEF8C4309B0215D4DEF8C430ED
:10114000D1E900748E680D69C3F3014CA4B145EA7E
:101150000703334343F0804812E000BF016E41F0C3
:101160000801016601207047016E41F400710166BB
:101170000120BDE8F08100BF45EA874343EA060845
:1011800001F11407F0CF46EA07663543CB682C43DC
:10119000456D0CEBCC0644EA034305EBC60445F869
:1011A00036806360CB6883B145F64E0504F10803D1
:1011B00003320024C0F60005161956F8036C1E51C0
:1011C000CE680434AE5DB442F6D3012101FA0CF1CD
:1011D000CEF8CC1081650020BDE8F081704700009A
:1011E000704700002DE9F04390F85C70022F0FD19A
:1011F00004684029A44613D15CF8907F3F071BD0B8
:10120000DCF800704FF0480EFF0113D509251CE0F3
:10121000016E41F0080101660120BDE8F08300BFC6
:101220005CF8987F3F0707D0DCF800704FF04C0E59
:10123000FF0109D400240DE0016E41F480710166C4
:101240000120BDE8F08300BF0825D4F88040EC40C1
:1012500004F00104DCF80070C7F3012707EB040C6D
:1012600050F80E700CEBCC0657F8365007EBC60E54
:1012700015F08045556057F8365025F0604408BF9A
:10128000C5F38A44146057F8365005F00055956050
:1012900057F8364004F000441461BEF80440D461AD
:1012A000BEF8064014F00F04D460DEF8044004F4E5
:1012B00080145461DEF8044004F4001494619EF834
:1012C000074004F07F041462DEF804404FEAD4744F
:1012D000546228D045F64E080024C0F6000800BF2E
:1012E0000EEB0406377A651C1F55D76818F807708F
:1012F000BD4218D2757A1F197D70D56818F805900F
:10130000A51C4D450FD2B57ABD70D56818F805906B
:10131000E51C4D4507D2F57A0434FD70D56818F800
:101320000550AC42DCD3006840290CBFC0F894C023
:10133000C0F89CC00020BDE8F083000070470000AA
:101340002DE9F04F85B004460068016D426DD0F87C
:1013500050B0456D076D466D036D01EA02080493B8
:10136000436D0393036D0293436D0193D0F854A032
:10137000D0F850905FEA496307D51AF0400104D0D5
:10138000402101652046FFF7D9FF0BEA050B5FEA14
:10139000C95008F4E0550ED51AF480700BD02068BF
:1013A000D0F8D810D0F8E02011404FF480720265D8
:1013B000204600F0DDFA37400BF007062DB120681B
:1013C00029460565204600F0D7FA07F038052EB10A
:1013D000206831460665204600F076FA2DB1206877
:1013E00029460565204600F0A1FA5FEA895009D533
:1013F0001AF4007006D020684FF400710165204691
:1014000000F0BCFA5FEA09600DD51AF080000AD03E
:101410002068D0F8D410D0F8DC201140802202657A
:10142000204600F0A7FA5FEA894009D51AF4005077
:1014300006D020684FF400510165204600F096FA6E
:101440005FEA0940DDE9011000EA010509D51AF457
:10145000004006D020684FF400410165204600F0AE
:1014600083FADDE9031008405FEA494105F4602191
:101470000AD51AF4804207D022684FF480431365DE
:10148000226E42F08002226600F4710521B12068CC
:1014900001652046FFF7A4FE25B120680565206E92
:1014A00028432066206E28B1204605B0BDE8F04FE5
:1014B000FFF794BE05B0BDE8F08F0000002804BF20
:1014C00001207047F0B581B0044690F85C0028B95F
:1014D000002084F85D00204600F024F9206881692E
:1014E00021F01001816100F02BFB05462068816925
:1014F000090705D500F024FB401B0B28F6D310E0AC
:10150000816941F00101816100F01AFB054600BFCD
:1015100020688169C9070FD100F012FB401B0B281E
:10152000F6D3206E032140F001002066012084F8EC
:101530005C1001B0F0BD00BF826946F2004CC4F2FD
:10154000000C42F002026045826102D16268CCF870
:101550000021227C8369012A23F0400318BF403315
:101560008361627C8369012A23F4804308BF03F509
:1015700080438361A27C8369012A23F4805318BFCE
:1015800003F5805383618569D4E902E325F440754E
:1015900045EA0E058561856925F0A4058561056923
:1015A00025F0100505619BB1012B0DD0022B09D050
:1015B0008569032B45F080058561056945F01005B7
:1015C000056105D1202300E0042385692B43836155
:1015D00004F114052ACD226A6FF0FF075E1E07EBA7
:1015E000052545EA4665013A2A430025CFF6FF75F1
:1015F00005EB01411143BEF5407FC16110D104F1FB
:10160000240646CE236B013A07EB06273A436FF0D8
:101610000F0707EB03131A4305EB01411143C160A8
:10162000D4E90D13E26BD0F8C0704AF250763A4319
:10163000C0F8C0200CF580670CF58042B84204BFAA
:101640004AF25072C4F200020CF50067C4F20006C0
:10165000B84208BF06F554722264D0F8807027F4AF
:10166000F81747EA0141C0F8801002F17001616487
:10167000D0F8801021F0706141EA0361C0F8801059
:1016800002F1B000A06402F5C470E06402F51870C5
:10169000206502F51E70606502F55470002100BFE0
:1016A000C2E90011C2E90211C2E90411C2E906113E
:1016B000C2E90811C2E90A11C2E90C11C2E90E110E
:1016C000C2E91011C2E91211C2E91411C2E91611DE
:1016D000C2E91811C2E91A11C2E91C11C2E91E11AE
:1016E000C2E92011C2E92211C2E92411C2E926117E
:1016F000C2E92811C2E92A11C2E92C11C2E92E114E
:10170000C2E93011C2E93211C2F8D010D43282429B
:10171000C6D300200121A065206684F85C1001B0CA
:10172000F0BD0000B0B59CB0044600201B90CDE990
:101730001900CDE9170002A85421FEF74BFE2068DE
:1017400046F60041C4F2000188426DD046F6000121
:10175000C4F20001884237D046F20041C4F20001D1
:10176000884240F0AE804FF4805002904FF00070FD
:10177000109002A800F02AFB002818BFFFF79CFA7F
:1017800040F2D811C2F200010A6841F24C00C4F2E2
:101790000200531C0B6042B9C16841F00071C16086
:1017A000C16801F00071019101990168162441F0AE
:1017B000020101600068152500F002000190019807
:1017C00009204FF440715EE04FF4805002904FF0DA
:1017D0000070109002A800F0F9FA002818BFFFF777
:1017E0006BFA40F2D811C2F200010A6841F24C00D3
:1017F000C4F20200531C0B6042B9C16841F0007191
:10180000C160C16801F0007101910199016857241C
:1018100041F0020101600068562500F002000190CD
:101820000198092060212EE04FF4805002904FF083
:101830000070109002A800F0C9FA002818BFFFF746
:101840003BFA40F2D811C2F200010A6841F24C00A2
:10185000C4F20200531C0B6042B9C16841F0007130
:10186000C160C16801F000710191019901685924BA
:1018700041F0020101600068582500F0020001906B
:1018800001980B20182117910221189100211B901B
:1018900040F20040CDE91911C4F6000017A900F08C
:1018A0006FF828460021002200F0C2F9284600F017
:1018B000ADF920460021002200F0BAF9204600F0E0
:1018C000A5F91CB0B0BD000010B540F63051C2F211
:1018D0000001884214D040F69451C2F200018842BF
:1018E00018BF10BD40F6945440F2481240F208135D
:1018F000C2F20004C2F20002C2F200030CE000BF18
:1019000040F6305440F2E00240F2A003C2F200047C
:10191000C2F20002C2F2000320464021FFF762FC3F
:101920002046BDE8104002F0CBBD000040F6F85163
:10193000C2F20001884218BF704710B540F6F85453
:10194000C2F2000440F2B01240F27013C2F2000280
:10195000C2F2000320464121FFF744FC2046BDE8C7
:10196000104002F0ADBD000070470000704700005D
:10197000704700007047000070470000704700008B
:101980002DE9F04F83B00E68002E00F0CF8000F1FB
:10199000200241F2004C009200F13847C4F6000CDE
:1019A00006224FEAB725604508BF0522052D38BF3E
:1019B0004FEAB722002500274FF0000801920AE005
:1019C0000E6808F1010836FA08F207F1020705F17E
:1019D000040500F0AB80012202FA08FE16EA0E09A7
:1019E000EED0D1F804C003220CF0030BABF10106DA
:1019F00002FA07F4012E6FEA040A11D88468CE684F
:101A000004EA0A04BE4034438460446824EA0E06B3
:101A1000CCF3001404FA08F42643466006E000BF45
:101A2000BBF1030F02D14FF0030B21E0C6688C68B5
:101A300006EA0A06BC402643BBF1020FC66017D176
:101A40006FF00302009B02EA580605F01C020F2407
:101A500053F806C004FA02FE0C692CEA0E0C04FAD4
:101A600002F242EA0C029A51D1F804C00CF0030BC6
:101A700002680BFA07F302EA0A021A431CF4403F19
:101A800002609DD041F26003C4F202031A6840F282
:101A9000004E42F001021A601A68C4F2010E02F010
:101AA00001020292029A28F003024FF6084C724497
:101AB000CFF6FF7C52F80C3005F00C060F24B44032
:101AC000A343019C04FA06F6334342F80C30DEF8D7
:101AD00008204B6842EA090640F20C4CDC0258BF71
:101AE00022EA0906CEF80860C4F2010CDCF80020F6
:101AF0009C0242EA090658BF22EA0906CCF80060B7
:101B0000DEF804209C0342EA090658BF22EA0906CF
:101B1000CEF80460DEF80020DB0342EA090658BF75
:101B200022EA0906CEF800604AE700BF03B0BDE82C
:101B3000F08F00000069084018BF012070470000C6
:101B400041F22000C2F200000068704740F200003D
:101B500041F22001C2F20000C2F2000140680A68AE
:101B6000104408607047000080B5032000F08CF836
:101B70000F2000F009F800281CBF012080BD00F0F4
:101B80002BF8002080BD0000B0B540F20005C2F285
:101B900000056968F1B1044640F21000C2F200008D
:101BA0004FF47A720068B2FBF1F1B0FBF1F000F093
:101BB000D1FE01460F2C4FF001000AD8002918BFB2
:101BC000B0BD4FF0FF302146002200F031F8002078
:101BD0002C60B0BD0120B0BD82B041F25800C4F20B
:101BE0000200816841F001018160816801F001011A
:101BF00001910199016841F080510160006800F095
:101C000080500090009802B000F0D6B8002848BF7D
:101C1000704700F01F01012202FA01F11C2202EAC2
:101C2000D0004EF20012CEF2000281507047000048
:101C300010B54EF60C5CCEF2000CDCF80030C3F3AD
:101C4000022E8EF00704042C28BF0424BEF10303E7
:101C50004FF0FF3E0EFA04F438BF0023A143994031
:101C60000EFA03F39A43114300F00F0200F16043B0
:101C70000901043A03F564436244002848BF02F1B5
:101C80000C03197010BD00004EF60C51CEF200018D
:101C90000A684FF6FF031A4060F30A2242F08060A0
:101CA00040F0FD700860704747F21401C4F2000173
:101CB00051F8142CB0F5007F3CD0002874D1C86EC8
:101CC00002F4C06220F48070B2F5806FC8662FD134
:101CD00051F8140C012262F34A2041F8140C40F22E
:101CE0001000C2F200000068322250434DF68362B9
:101CF000C4F21B32A0FB0202900C00BF0A6852051E
:101D000011D5421C0FD00A6852050CD558B10A688B
:101D1000520508D5012806D00A68520503D50228C5
:101D2000A0F10400EAD10868400544BF03207047D1
:101D300000207047C86E02F4C06240F48070B2F5B3
:101D4000806FC866F4D151F8140C012262F34A2066
:101D500041F8140C40F21000C2F200000068322278
:101D600050434DF68362C4F21B32A0FB0202900C7A
:101D70000A68520511D5421C0FD00A6852050CD5CD
:101D800058B10A68520508D5012806D00A685205DC
:101D900003D50228A0F10400EAD10868400544BF39
:101DA00003207047C4E700BF022060F34A2241F8D5
:101DB000142C00207047000047F20800C4F2000015
:101DC000016841F480410160704700002DE9F04155
:101DD00082B00446807841F288060007C4F2020609
:101DE00002D400202FE000BF56F8300C5FEAC00894
:101DF0000BD456F8300C40F0805046F8300C56F8B2
:101E0000300C00F080500190019847F20007C4F2B6
:101E10000007386840F480703860FFF791FE05468F
:101E20003868C00500F10C81FFF78AFE401B0228CC
:101E3000F6D90320B8F1000F05D456F8301C21F074
:101E4000805146F8301C2168CA0717D18A071DD473
:101E50004A0723D40A0729D4CA062FD48A0635D4C0
:101E60004A063BD40A0641D4CA0547D48A034DD456
:101E70008A0553D44A0559D467E000BF32686368C5
:101E800022F003021A4332608A07E1D53268A36860
:101E900022F00C021A4332604A07DBD53268E3684D
:101EA00022F030021A4332600A07D5D5326823691E
:101EB00022F0C0021A433260CA06CFD53268636985
:101EC00022F440721A4332608A06C9D53268A36987
:101ED00022F440621A4332604A06C3D53268E3698D
:101EE00022F440521A4332600A06BDD53268236A92
:101EF00022F440421A433260CA05B7D53268636A99
:101F000022F440321A4332608A03B1D57269A36A5F
:101F100022F003021A4372618A05ABD53268E36A84
:101F200022F440221A4332604A050ED53268236BF0
:101F300022F440121A43B3F5801F326005D156F8DF
:101F40007C2C42F4801246F87C2C0A050ED53268AF
:101F5000636B22F440021A43B3F5800F326005D15F
:101F600056F87C2C42F4801246F87C2CCA040ED51C
:101F70003268A36B22F040721A43B3F1807F326063
:101F800005D156F87C2C42F4801246F87C2C8A0449
:101F90000ED53268E36B22F040621A43B3F1006F52
:101FA000326005D156F87C2C42F4801246F87C2C25
:101FB0004A040ED53268236C22F040621A43B3F112
:101FC000006F326005D156F87C2C42F4801246F83E
:101FD0007C2C0A040ED53268636C22F040521A43FE
:101FE000B3F1805F326005D156F87C2C42F4803228
:101FF00046F87C2CCA030ED53268A36C22F040420E
:102000001A43B3F1804F326005D156F87C2C42F46C
:10201000803246F87C2C49030ED57169E26C21F4BC
:1020200040111143B2F5001F716105D156F87C1CB7
:1020300041F4801146F87C1C02B0BDE8F08100BF7D
:10204000B06810F4407010D0216D88420BD0B06899
:10205000B16820F4407041F48031B160B16821F47E
:102060008031B160B060C0070CD1B068216D20F440
:1020700040700843B0600020B8F1000F3FF5E3AEB8
:10208000DBE600BFFFF75CFD054641F2883700BF85
:10209000B0688007E9D4FFF753FD401BB842F7D979
:1020A000C7E600002DE9F047002863D042F2000A9D
:1020B000C4F2020A0446DAF800000D4600F00F00F0
:1020C00081420CD9DAF8000020F00F002843CAF84A
:1020D0000000DAF8000000F00F00A8424AD12168A1
:1020E00041F20808C807C4F2020803D1880740F18A
:1020F000D080B5E0606858F8082C022838D0032852
:102100003CD1920136D5D8F80420D8F8043042F2F8
:102110000046C3F3031302F00302D8F8047001333E
:10212000C0F2F406032A04BF47F64006C0F27D164B
:10213000B6FBF3F2D8F80430C7F306277A43C3F3AB
:102140004163022707EB4303B2FBF3F24BF2004378
:10215000C0F2C4439A4259D9D8F8002012F0F00FC7
:1021600049D0890752D5A16800294FD143E000BF6B
:10217000910305D40120BDE8F08700BF5105F9D5D2
:10218000D8F8001001F00C0104293FD0D8F8001055
:1021900001F00C01082939D0D8F8001001F00C0129
:1021A0000C2933D1D8F80410D8F8042042F20047A3
:1021B000C2F3031201F00301D8F804300132C0F277
:1021C000F407032904BF47F64007C0F27D17B7FBA9
:1021D000F2F1D8F80420C3F306235943C2F3416255
:1021E000022303EB4202B1FBF2F14BF20042C0F2D8
:1021F000C44291420AD9D8F80010082262F30711AC
:102200004FF00109C8F8001002E000BF4FF00009CC
:10221000D8F8001021F003010843C8F80000FFF7C8
:102220008FFC064641F28837D8F80000616800F05C
:102230000C00B0EB810F07D0FFF782FC801BB84287
:10224000F2D90320BDE8F0872168880708D4B9F1E6
:10225000000F1ED0D8F8000020F0F00017E000BFFB
:10226000480705D5D8F8000040F4E060C8F8000041
:10227000080706D5D8F80000072262F30D20C8F839
:102280000000D8F80000A26820F0F0001043C8F861
:102290000000DAF8000000F00F0085421BD2DAF8E7
:1022A000000020F00F002843CAF80000FFF748FCA8
:1022B000064641F2883700BFDAF8000000F00F0050
:1022C000A84207D0FFF73CFC801BB842F4D903209A
:1022D000BDE8F0872168480707D5D8F80000E26814
:1022E00020F4E0601043C8F80000080708D5D8F8CB
:1022F0000000216920F4605040EAC100C8F80000E5
:10230000D8F8000042F20041C0F2F40100F00C00E5
:10231000042808462DD0D8F8000000F00C0008284A
:1023200047F64000C0F27D1023D0D8F8002002F01C
:102330000C020C2A1CD1D8F80420D8F8043002F082
:102340000302C3F30313D8F804700133032A08BF50
:102350000146B1FBF3F0D8F80410C7F30627C1F328
:1023600041610222784302EB4101B0FBF1F000E051
:102370000020D8F8001045F2E272C1F30311C0F654
:102380000002515C40F2100201F01F0120FA01F13D
:1023900040F20000C2F200000068C2F200021160C8
:1023A000BDE8F047FFF7F0BB40F2100041F2080132
:1023B000C2F20000C4F202010068096845F2F2723C
:1023C000C1F30221C0F60002515C01F01F01C840B8
:1023D0007047000040F2100041F20801C2F2000014
:1023E000C4F202010068096845F2F272C1F3C22129
:1023F000C0F60002515C01F01F01C84070470000A8
:1024000041F20C01C4F2020151F8040C42F2004204
:10241000C0F2F40200F00C000428104608BF704718
:1024200051F8040C00F00C00082847F64000C0F2F8
:102430007D1025D051F8043C03F00C030C2B1CBF7D
:102440000020704780B5D1F800C00B680CF0030C79
:10245000C3F3031E0B680EF1010EBCF1030F08BF9E
:1024600002460968B2FBFEF0C3F30623C1F34161E3
:102470000222584302EB4101B0FBF1F0BDE880407D
:1024800070470000002804BF012070472DE9F0418B
:1024900082B00446007841F20006C007C4F202068A
:1024A0001ED1207880073DD42078000764D420789E
:1024B000400700F187802078800600F1D980E56927
:1024C000002D00F04282B06800F00C000C2840F0B3
:1024D0003181012D40F08E81012002B0BDE8F081F4
:1024E000B06800F00C01F068082961D0032281F087
:1024F0000C0122EA00000844B0FA80F0400957D1EC
:1025000061683068B1F5803F07D0B1F5A02F40F089
:10251000E38040F480203060306840F480303060E8
:10252000E4E000BFB068F16800F00C00042871D04E
:1025300001F0030180F00C0081F002010844B0FAC0
:1025400080F0400966D1E1683068002900F0E08041
:1025500040F480703060FFF7F3FA054630684005BC
:1025600000F10A81FFF7ECFA401B0228F6D903209C
:1025700002B0BDE8F08100BF6169D6F8940000297F
:1025800000F0948040F00100C6F89400FFF7D8FAFC
:10259000054600BFD6F8940080073FF588AFFFF7E7
:1025A000CFFA401B0228F5D9032002B0BDE8F08124
:1025B000306880037FF575AF606800287FF471AFE5
:1025C0003EE000BFB06D5FEAC00808D4B06D40F0D7
:1025D0008050B065B06D00F080500190019847F2D6
:1025E0000007C4F200073868C0052DD4386840F4ED
:1025F00080703860FFF7A4FA054600BF3868C00550
:1026000022D4FFF79DFA401B0228F7D9032002B01D
:10261000BDE8F0813068400501D5E06880B17068A0
:10262000216920F0FE4040EA0160706040F2000045
:10263000C2F200000068FFF7A7FA00283FF434AFA9
:10264000012002B0BDE8F081A168D6F89000012910
:1026500008D0052940F0AE8040F00400C6F8900094
:10266000D6F8900040F00100C6F89000AEE000BF40
:10267000A169D6F89800002900F0868040F001009A
:10268000C6F89800FFF75CFA054600BFD6F8980038
:1026900080073FF514AFFFF753FA401B02284FF0B5
:1026A0000300F3D902B0BDE8F08100BF20F00100C3
:1026B000C6F89400FFF744FA054600BFD6F8940028
:1026C00080077FF5F4AEFFF73BFA401B0228F5D9EF
:1026D000032002B0BDE8F08120F480303060306823
:1026E000002920F48020306000F0BE80FFF728FA37
:1026F000054600BF306880033FF5D3AEFFF720FAF0
:10270000401B6428F6D9032002B0BDE8F08100BF69
:1027100020F480703060FFF713FA054630684005FA
:102720007FF5C2AEFFF70CFA401B02284FF0030002
:10273000F4D9B7E7306820F080703060FFF700FA16
:10274000022D05460CD100BF3068800140F1B880F1
:10275000FFF7F6F9401B02284FF00300F4D9A1E778
:102760003068800140F1EA80FFF7EAF9401B022857
:102770004FF00300F4D995E77068216920F0FE401E
:1027800040EA016070608FE620F00100C6F8980012
:10279000FFF7D6F9054600BFD6F8980080077FF509
:1027A0008EAEFFF7CDF9401B02284FF00300F3D99E
:1027B00078E700BF20F00100C6F89000D6F890003E
:1027C000002920F00400C6F890005DD0FFF7B8F9AA
:1027D000054641F2883700BFD6F89000800765D4DF
:1027E000FFF7AEF9401BB842F6D9032002B0BDE8AE
:1027F000F08100BFF068216A00F003028A427FF492
:102800001FAF626A6FF00F0300F0F00103EB0212DA
:1028100091427FF415AFA16A00F4FE42B2EB012FA2
:102820007FF40EAFE16A00F07842B2EBC16F7FF443
:1028300007AF226B0023CFF6E07303EA025200F4E5
:10284000C001A2F5001291427FF4FAAE616B4FF025
:102850007E4202EA016100F0C06001F17E418842DF
:102860007FF4EEAE71E000BFFFF76AF9054600BFE6
:10287000306880037FF515AEFFF762F9401B6428CE
:102880004FF00300F4D90DE7FFF75AF9054641F27E
:10289000883700BFD6F89000800707D5FFF750F9BA
:1028A000401BB8424FF00300F4D9FBE6B8F1000F2B
:1028B0003FF501AEB06D20F08050B065FBE500BF84
:1028C000F06848F20C01C0F29F1104F1200700EA01
:1028D000010C8ECF6FF00F00D4E90C5400EB021006
:1028E0000022CFF6E07241EA0C0102EA05520843E9
:1028F000A2F500124FF07E4540EA032005EA046588
:10290000104305F17E4540EAC7602843F060306817
:1029100040F080703060F06840F08070F060FFF749
:102920000FF90446306880010FD4FFF709F9001B46
:1029300002284FF00300F5D9B4E600BFF0684FF667
:10294000FC71CFF6EE610840F060002002B0BDE8F7
:10295000F0810000411E0020B0EB116F1CBF012070
:1029600070474EF21002CEF2000251604EF6235133
:10297000CEF20001F0230B700721906011607047C8
:10298000704700007047000070470000704700006B
:10299000704700007047000090F83C20012A4FF07B
:1029A000020266D070B580F83D20026842F6004C05
:1029B00054689368C4F2010C45F2000E6245C4F2FB
:1029C000010E18BF72452BD14D6824F470042C43BE
:1029D0004FF68F75CFF6FF550E682C4042F6FF3547
:1029E000C4F201053443AA4254600DDC40F2FF7684
:1029F000C4F20006B2421BDCB2F1804F2CD040F290
:102A00000046C4F2000625E043F6FF74C4F2010458
:102A1000A24219DC62451FD043F2004618E000BF15
:102A200043F20045C4F20105AA42CDD0D0E700BF71
:102A300040F60006C4F20006B2420DD040F6004651
:102A4000C4F2000606E000BF724505D044F200065D
:102A5000C4F20106B24204D1896823F0800319430D
:102A600091600121002280F83D1080F83C20BDE8F3
:102A7000704010467047000070470000002804BFF7
:102A80000120704710B5044690F83D0028B9002099
:102A900084F83C00204600F023F8022084F83D0032
:102AA0002068211D01F07EFD012084F8480084F893
:102AB0003E0084F83F0084F8400084F8410084F828
:102AC000420084F8430084F8440084F8450084F808
:102AD000460084F8470084F83D00002010BD000047
:102AE00070B582B00446006800F140404FEAB02063
:102AF000052800F27780DFE800F00375754931772B
:102B000041F25800C4F20200016840F6704541F0FD
:102B1000010101600068C2F2000500F001000190AF
:102B200001980820C4F202003821102200234FF03F
:102B3000800C4FF4007E85E80F504FF400504FF4A6
:102B4000006628622846C5E90663FEF7D7F9002823
:102B500018BFFEF7B1F8656243E000BF41F25800CC
:102B6000C4F202000168002241F010010160006817
:102B7000002100F01000019001983620FFF758F86E
:102B8000362002B0BDE87040FFF740B841F258006F
:102B9000C4F20200016840F6D04541F0080101602E
:102BA0000068C2F2000500F00800019001980820BA
:102BB000C4F20200143049211022002380264FF471
:102BC000007C4FF4006E85E84F504FF400502862AF
:102BD0002846EB61FEF792F9002818BFFEF76CF863
:102BE000A562AC6202B070BD41F25800C4F20200AE
:102BF0000168002241F0200101600068002100F01E
:102C00002000019001983720FFF712F8372002B01A
:102C1000BDE87040FEF7FABF90F83D1001291BD1C6
:102C2000022180F83D10016842F6FF32C868C4F204
:102C30000102914240F00100C8600FDC40F2FF70D9
:102C4000C4F20000814219DCB1F1804F2ED040F275
:102C50000040C4F2000027E00120704743F6FF70F7
:102C6000C4F20100814215DC42F60040C4F20100CA
:102C700081421BD043F2004014E000BF40F6000048
:102C8000C4F20000814211D040F60040C4F20000BE
:102C90000AE000BF45F20000C4F20100814205D005
:102CA00044F20000C4F2010081420CD1886807227E
:102CB000C0F201020240062A4FF00000CDD0B2F56A
:102CC000803F08BF7047086840F00100086000209E
:102CD0007047000090F83C20012A4FF0020200F0FB
:102CE000998080B580F83D20D0F800C08822DCF8BB
:102CF0000830CFF6CE721A40CCF808200B68B3F536
:102D0000005F0DDA3F2B21DD5F2B3BDD602B00F0F8
:102D1000AB80702B00F09480B3F5805F71D0E7E05A
:102D20002F22C0F21002934218DD4F21C0F2100191
:102D30008B424FDD5021C0F210018B4255D06021F3
:102D4000C0F210018B4250D0702149E01F2B0FDCE4
:102D5000002B4AD0102B48D0CAE000BFB3F1101F9F
:102D60000CDAB3F5005F57D0B3F5801F3DD0BFE05C
:102D7000202B3AD0302B38D0BAE000BF35D02021FC
:102D80002EE000BF402B00F09180502B40F0B0802F
:102D9000D1F804E0C968DCF82030DCF8202022F00B
:102DA0000102CCF82020DCF8182022F0F00242EAE0
:102DB000011123F00A0242EA0E02CCF81810CCF8F6
:102DC0002020DCF808104FF68872CFF6CF72114041
:102DD000573114E03021C0F210018B4205D0402160
:102DE000C0F210018B4240F08380DCF808104FF6EF
:102DF0008872CFF6CF721140194341F00701CCF829
:102E000008100022012180F83D10002180F83C10BC
:102E1000BDE8804010467047D1E901E3C968DCF89D
:102E2000082043EA0E0322F47F4243EA01211143C2
:102E3000CCF80810DCF8081041F48041DFE700BF4F
:102E4000D1E901E3C968DCF8082043EA0E0322F463
:102E50007F4243EA01211143CCF80810DCF8081046
:102E600041F07701CBE700BFD1F804E0C968DCF896
:102E70002030DCF8202022F01002CCF82020DCF8F2
:102E8000182022F4704242EA013123F0A00242EA03
:102E90000E12CCF81810CCF82020DCF808104FF6F1
:102EA0008872CFF6CF7211406731A8E7D1F804E0FD
:102EB000C968DCF82030DCF8202022F00102CCF8D0
:102EC0002020DCF8182022F0F00242EA011123F061
:102ED0000A0242EA0E02CCF81810CCF82020DCF8E6
:102EE00008104FF68872CFF6CF721140473186E74F
:102EF000012287E77047000070470000F0B581B0FD
:102F000004460068C5680669B10717D515F00201C7
:102F100014D06FF0020101610121217780698007DF
:102F200004D02046FFF7E8FF06E000BF204600F08F
:102F3000CBF8204600F0FCFA00202077700719D566
:102F400015F0040016D020686FF004010161022121
:102F50002177806910F4407F04D02046FFF7CCFF32
:102F600006E000BF204600F0AFF8204600F0E0FA8F
:102F700000202077300717D515F0080014D02068FE
:102F80006FF00801016104212177C069800703D037
:102F90002046FFF7B1FF05E0204600F095F82046F7
:102FA00000F0C6FA00202077F00619D515F01000C1
:102FB00016D020686FF01001016108212177C069E7
:102FC00010F4407F04D02046FFF796FF06E000BFD4
:102FD000204600F079F8204600F0AAFA0020207779
:102FE000F00718BF15F0010006D020686FF001014E
:102FF0000161204600F090FC16F4025F05F08007A6
:1030000018BF002F02D1F00509D410E020686FF43A
:10301000025101612046FFF7B5FCF00507D537B135
:1030200020686FF4807101612046FFF7A9FC7006EB
:1030300009D515F0400006D020686FF0400101610D
:10304000204600F087FCB00609D515F0200006D018
:1030500020686FF0200101612046FFF795FCF00227
:1030600009D515F4801006D020686FF48011016135
:103070002046FFF78DFCB00209D515F4001006D0EC
:1030800020686FF4001101612046FFF77FFC700299
:1030900009D515F4800006D020686FF48001016125
:1030A0002046FFF777FC30020CD515F4000009D05C
:1030B00021686FF4000220460A6101B0BDE8F040CB
:1030C000FFF7DABC01B0F0BD7047000090F83C306B
:1030D000012B04BF022070474FEAB202052A00F21A
:1030E000ED812DE9F041DFE812F007004701930080
:1030F000ED0055009F0100BF03681D6A1A6AA3F125
:10310000804622F001021A621A46D3F8048052F86F
:1031100018CF8F68A6F59636D1F800E025F00205A5
:103120004FEAB626092E45EA07050BD80127B74016
:1031300040F2E52427421FBFCC6825F00C0524F09F
:1031400004042543092E0CD80124B44040F2E5269E
:1031500034421FBFD1E9054628F440773C4344EA96
:1031600006084FF68C74CFF6FE740CEA040747EAA3
:103170000E07C3F804809F614F6809695F631D6291
:103180009F6947F008079F619F6927F004079F61C7
:1031900088E100BF0368D3F820C01A6AA3F1804712
:1031A00022F480321A621A46A7F596375D6852F803
:1031B000508FD1F800E08E684FEAB727092F0AD860
:1031C0000124BC4040F2E5273C421EBF4C6925F477
:1031D000803545EA04252CF4003747EA06474FF6C8
:1031E0008C76CFF6FE76033606EA080646EA0E0629
:1031F0005D601E654E6809699E641F621F6D47F021
:1032000008071F651F6D27F004071F654AE100BF0F
:10321000036842F600461D6A1A6AC4F2010622F4E7
:1032200080721A621A46D3F804C052F81CEFB342F7
:103230008E68D1F8008025F4007545EA06250BD08C
:1032400045F20006C4F20106B34205D043F200463F
:10325000C4F20106B34207D1CE6840F2FF473602FE
:1032600025F44065BE433543A3F18046A6F5963666
:103270004FEAB626092E0DD8012707FA06F640F2C6
:10328000E5273E421FBFD1E905672CF44054374380
:1032900044EA071C4FF68C74CFF6FE740EEA04075E
:1032A00047EA0807C3F804C0DF614F680969DF63B4
:1032B0001D62DF6947F00807DF61DF6927F0040757
:1032C000DF61EFE0036842F600461D6A1A6AC4F245
:1032D000010622F480521A621A46D3F804C052F84A
:1032E0001C8FB3428E68D1F800E025F4005545EA02
:1032F00006350BD045F20006C4F20106B34205D0F4
:1033000043F20046C4F20106B34207D1CE6844F648
:10331000FF77360325F44045BE433543A3F180468D
:10332000A6F596364FEAB626092E0DD8012707FADC
:1033300006F640F2E5273E421FBFD1E905672CF4AF
:103340004044374344EA871C48F6FF44CFF6FF6405
:1033500004EA080444EA0E27C3F804C0DF614F689A
:1033600009691F641D62DF6947F40067DF61DF6977
:1033700027F48067DF6194E0036842F600461D6A27
:103380001A6AC4F2010622F010021A621A465C6838
:1033900052F818CFB3428E68D1F800E025F020052E
:1033A00045EA06150BD045F20006C4F20106B34209
:1033B00005D043F20046C4F20106B34207D1CE68FD
:1033C0006FF0400725F0C00507EA06163543A3F164
:1033D0008046A6F596364FEAB626092E0DD8012767
:1033E00007FA06F640F2E5273E421FBFD1E905671E
:1033F00024F440643E4344EA860448F6FF46CFF690
:10340000FF660CEA060747EA0E275C609F614F687B
:1034100009699F631D629F6947F400679F619F6907
:1034200027F480679F613CE00368D3F820C01A6AE4
:10343000A3F1804722F480121A621A46A7F5963744
:103440005D6852F8508FD1F800E08E684FEAB727D8
:10345000092F0AD80124BC4040F2E5273C421EBF98
:103460004C6925F4802545EA84252CF4001747EAA9
:10347000065748F6FF46CFF6FF6606F5407606EAA1
:10348000080646EA0E265D601E654E680969DE6420
:103490001F621F6D47F400671F651F6D27F480676B
:1034A0001F6509021368194311600021BDE8F0414E
:1034B000002280F83C200846704700BF012100220E
:1034C00080F83C2008467047002804BF0120704760
:1034D00010B5044690F83D0028B9002084F83C005F
:1034E000204600F023F8022084F83D002068211DCA
:1034F00001F058F8012084F8480084F83E0084F870
:103500003F0084F8400084F8410084F8420084F8C9
:10351000430084F8440084F8450084F8460084F8A9
:10352000470084F83D00002010BD000070470000F7
:10353000704700007047000070B5E9B10C1F4FEAFA
:10354000B40E43254FF03F0CBEF1040F38BF0CEB17
:10355000B405455D022D04BF022070BDBEF1030F0E
:103560003AD8DFE80EF0031D111700BF00F13F0548
:103570002D78012D1AD0CDE0054615F83E4F022CCE
:1035800004BF022070BD0DE000F141052D78012D32
:103590000CD0BFE000F142052D78012D06D0B9E036
:1035A00000F140052D78012D40F0B480002A4FF045
:1035B000010C18BF002B01D1604670BD91B10D1FE9
:1035C0004FEAB505032D1DD8DFE805F002181014E9
:1035D000022580F83F5018E000F143052D78012DB9
:1035E000E4D097E0022580F83E500EE0022580F8F6
:1035F00041500AE0022580F8425006E0022580F89A
:10360000405002E0022580F843504FEAB105032DF7
:10361000D2D80E46DFE805F002622242456A44F243
:10362000F964C0F60004EC62456A44F26574C0F6C1
:1036300000042C63456A44F29D740168C0F60004DE
:103640006C630546406A01F1340C11466246FDF791
:10365000E1FC00285ED14FF400715FE0C56A44F2DE
:10366000F964C0F60004EC62C56A44F26574C0F601
:1036700000042C63C56A44F29D740168C0F600041E
:103680006C630546C06A01F13C0C11466246FDF7C9
:10369000C1FC00283ED14FF400613FE0056B44F2CD
:1036A000F964C0F60004EC62056B44F26574C0F680
:1036B00000042C63056B44F29D740168C0F600049D
:1036C0006C630546006B01F1400C11466246FDF744
:1036D000A1FCF8B94FF4805120E000BF856A44F2A4
:1036E000F964C0F60004EC62856A44F26574C0F6C1
:1036F00000042C63856A44F29D740168C0F60004DE
:103700006C630546806A01F1380C11466246FDF78C
:1037100081FC08B1012070BD4FF480612868C26847
:103720001143C16006F01F020121036A01FA02F28F
:1037300093430362036A1343A0F18042A2F59632D9
:103740004FEAB222072A03625AD8914011F0E50FDE
:1037500056D0416C42F6FF32C4F2010241F40041FE
:10376000904241640EDC40F2FF71C4F200018842D5
:1037700018DCB0F1804F2DD040F20041C4F20001BE
:1037800026E000BF43F6FF71C4F20101884215DC58
:1037900042F60041C4F2010188421BD043F20041CD
:1037A00014E000BF40F60001C4F20001884211D0CD
:1037B00040F60041C4F200010AE000BF45F20001FA
:1037C000C4F20101884205D044F20001C4F20101B3
:1037D00088420DD181680722C0F2010211400629FA
:1037E0004FF0000C3FF4E8AEB1F5803F3FF4E4AE9B
:1037F00001684FF0000C41F001010160604670BDAE
:1038000042F6FF31C4F201018842ACDD43F6FF719C
:10381000C4F201018842BBDD44F20001C4F201019F
:103820008842D7D045F20001C4F201018842DFD1BD
:10383000416C41F400414164CCE70000F0B581B037
:103840004FEAB107032F4FF0010561D804460E4639
:1038500045F680002168C0F6000050F82700CA68CD
:103860001040C86004EB8700406AFDF7B1FA206899
:1038700006F01F01026A05FA01F122EA0101016264
:10388000A0F18041A1F59631026A4FEAB1210729E2
:10389000026215D8012202FA01F111F0E50F0FD0F2
:1038A000016A41F21112114210D1016A44F24442FC
:1038B00011420BD1416C21F40041416406E000BF8C
:1038C00045F20001C4F201018842E9D0016A41F2E7
:1038D0001112114208D1016A44F24442114203D14B
:1038E000016821F001010160DFE807F0020E060A1D
:1038F000012084F83E000AE0012084F8400006E040
:10390000012084F8410002E0012084F83F000025F6
:10391000284601B0F0BD0000006841F20001C4F289
:103920000001884208D041F20041C4F200018842FF
:1039300018BF704700F026BC80B5FDF761F901F0B3
:103940007FFB40F65C60C2F200000021BDE88040D1
:1039500001F0BABD7047000090F88410012904BF3F
:10396000022070472421C0F8881001680A680B689B
:1039700022F0005223F001030B60002343660A602B
:103980002021C0F8881080F88430002070470000A3
:1039900090F88420012A04BF02207047B0B5242289
:1039A000C0F888200268D0F864E0D2F800C013683C
:1039B000BEF1000F23F001031360936823F06063EE
:1039C00041EA0301916019D09368916845F6A00E11
:1039D000490FC0F6000E45F6A8051EF80140C0F6D6
:1039E0000005695CC3F34263E400B4FBF1F11EF827
:1039F0000340EB5CE500B5FBF3F301E0012101239B
:103A0000A0F86A102021A0F86830C2F800C0C0F801
:103A10008810002180F884100020B0BD90F8842028
:103A2000012A04BF02207047B0B52422C0F88820C4
:103A30000268D0F864E0D2F800C01368BEF1000F4D
:103A400023F001031360936823F0604341EA03010C
:103A5000916019D09368916845F6A00E490FC0F6A1
:103A6000000E45F6A8051EF80140C0F60005695C89
:103A7000C3F34263E400B4FBF1F11EF80340EB5CD6
:103A8000E500B5FBF3F301E001210123A0F86A1082
:103A90002021A0F86830C2F800C0C0F888100021CA
:103AA00080F884100020B0BD10B5D0B10446D0F825
:103AB000880028B9002084F88400204600F026F809
:103AC0002420C4F888002068A16A026822F001025C
:103AD000026011B1204600F091FE204600F0B8FFD0
:103AE00010B1012010BD00BF2168486820F490404B
:103AF0004860886820F02A008860086840F0010269
:103B000020460A60BDE8104000F0ECBE10B59CB045
:103B1000044600201B90CDE91900CDE9170002A84A
:103B200004305021FCF756FC206844F20041C4F2F6
:103B30000001884202D01CB010BD00BF022402A8C0
:103B40000294FEF743F9002818BFFDF7B5F841F2DB
:103B50004C00C4F20200C16841F40031C160C16888
:103B600001F4003101910199016841F008010160FF
:103B7000006817A900F00800019001986020CDE9C5
:103B800017040020CDE9190007201B9040F60040E3
:103B9000C4F60000FDF7F4FE1CB010BDFEE7000007
:103BA00080B582B041F24800C4F2020001680022F0
:103BB00041F004010160016801F0040101910199E3
:103BC000016841F0010101600068002100F001007E
:103BD000009000980B20FEF72BF80B20FEF716F84C
:103BE0000C2000210022FEF723F80C2002B0BDE8D3
:103BF0008040FEF70BB8000010B540F6305046F29A
:103C00000041C2F20000C4F2000100224FF44073F0
:103C100080E80E001F214FF0080E4FF0040C052322
:103C20000224C0E9071EC0E90B1E0121C260C0F8D2
:103C30000F20C0E905C3C0E90943C0E90D41C263D3
:103C4000FDF73CFC002808BF10BDBDE81040FDF7A3
:103C500033B8000010B540F6945046F60001C2F2A9
:103C60000000C4F2000100224FF4407380E80E000F
:103C70001F214FF0080E4FF0040C05230224C0E969
:103C8000071EC0E90B1E0121C260C0F80F20C0E969
:103C900005C3C0E90943C0E90D41C263FDF70EFC4D
:103CA000002808BF10BDBDE81040FDF705B80000B2
:103CB00010B540F6F85046F60041C2F20000C4F2DA
:103CC000000100224FF4407380E80E001F214FF0E6
:103CD000080E4FF0040C05230224C0E9071EC0E9BA
:103CE0000B1E0121C260C0F80F20C0E905C3C0E966
:103CF0000943C0E90D41C263FDF7E0FB002808BF9E
:103D000010BDBDE81040FCF7D7BF000070B586B00D
:103D1000002641F24C000596CDE90366CDE9016627
:103D2000C4F20200016840F6000441F02001016085
:103D30000168C4F6000401F02001009100990168B7
:103D400001AD41F008010160016801F00801009136
:103D50000099016841F004010160016801F004016B
:103D600000910099016841F001010160016801F0D2
:103D7000010100910099016841F0020101600068B1
:103D8000294600F00200009000984FF4C040CDE9B1
:103D9000010604F580600396FDF7F2FD4FF46070B4
:103DA000CDE90106204629460396FDF7E9FD4FF4CB
:103DB000E060CDE901064FF0904029460396FDF7FB
:103DC000DFFD06B070BD000010B594B040F65C6039
:103DD0000021C2F200004FF08042C7230D91CDE9CF
:103DE0000B11CDE90811CDE90611CDE90411CDE99A
:103DF0000211CDE90011C0E90021C0E902130161FF
:103E00008161FEF73BFE002818BFFCF755FF4FF419
:103E100080500A9040F65C60C2F200000AA9FEF7EA
:103E200059FF002818BFFCF747FF40F65C60C2F25C
:103E30000000FFF749FB002818BFFCF73DFF40F6E4
:103E40005C600024C2F2000007A907940994FEF701
:103E5000A3FD002818BFFCF72FFF6020CDE9000468
:103E60000294049440F65C64C2F200046946204661
:103E70000022FFF72BF9002818BFFCF71DFF206870
:103E800040F60041C4F2000188424FF00001139156
:103E9000CDE91111CDE90F1118D0B0F1804F34D117
:103EA00041F24C00C4F202000168082241F008010E
:103EB00001600068022100F008000E900E9840F6A4
:103EC0000000C4F6000000F5806013E041F24C00F1
:103ED000C4F2020001684FF4805241F00401016015
:103EE0000068012100F004000E900E9840F60000DA
:103EF000C4F600000F9202221092002211920322B7
:103F0000CDE912210FA9FDF73BFD14B010BD000053
:103F1000B0B594B040F6A86040F600450021C2F26A
:103F20000000C4F20005C7220D91CDE90B11CDE9C7
:103F30000811CDE90611CDE90411CDE90211CDE951
:103F40000011C0E90051C0E9021201618161FEF770
:103F500095FD002818BFFCF7AFFE4FF480500A9083
:103F600040F6A860C2F200000AA9FEF7B3FE0028DE
:103F700018BFFCF7A1FE40F6A860C2F20000FFF7F0
:103F8000A3FA002818BFFCF797FE40F6A8600024AB
:103F9000C2F2000007A907940994FEF7FDFC00286F
:103FA00018BFFCF789FE6020CDE900040294049458
:103FB00040F6A864C2F20004694620460422FFF7D6
:103FC00085F8002818BFFCF777FE20680021A8427A
:103FD0001391CDE9111110910F9119D0B0F1804FCB
:103FE00035D141F24C00C4F202000168082241F0D0
:103FF000080101600068022100F008000E900E9890
:1040000040F60000C4F6000000F5806014E000BF38
:1040100041F24C00C4F2020001684FF4805241F0BA
:10402000040101600068012100F004000E900E9868
:1040300040F60000C4F600000F9202221092002207
:1040400011920322CDE912210FA9FDF799FC14B0BA
:10405000B0BD000010B584B040F6F46041F200013C
:104060000024C2F20000C4F2000144F61F6302946F
:104070009F2280E81600C3608461FEF7FFFC0028E1
:1040800018BFFCF719FE40F6F460C2F2000001A967
:1040900001940394FEF780FC002818BFFCF70CFE87
:1040A00004B010BD10B584B040F6407041F200413C
:1040B0000024C2F20000C4F2000140F2E73302948F
:1040C0009F2280E81600C3608461FEF7D7FC0028B9
:1040D00018BFFCF7F1FD40F64070C2F2000001A9E4
:1040E00001940394FEF758FC002818BFFCF7E4FD88
:1040F00004B010BD80B540F68C7044F20041C2F2AD
:104100000000C4F2000100234FF00C0C4FF4E13228
:1041100080E80E00C0E90333C0E905C3C0E90733F6
:10412000C0E90933FFF7C0FC002818BFFCF7C4FD45
:1041300040F68C70C2F200000021FFF76FFC0028EF
:1041400018BFFCF7B9FD40F68C70C2F200000021E8
:10415000FFF71EFC002818BFFCF7AEFD40F68C7080
:10416000C2F20000FFF7F8FB002808BF80BDBDE8E1
:104170008040FCF7A1BD0000FEE70000FEE7000064
:1041800070470000B0B540F60845C2F20005D5E919
:10419000000140F61044421CC2F2000441F1000349
:1041A0002068A188C5E90023FDF7C4FCA179032993
:1041B00036D8DFE801F0031F070F00BF80BB0120E6
:1041C00003E000BF01282BD103202968A071A16062
:1041D00026E000BFD5E90012A368C91A62F1000207
:1041E000053972F100011BD3012811D10020A07103
:1041F00015E000BFD5E90012A368C91A62F10002F8
:10420000053972F100010BD330B1002001E000BF8D
:104210000220A07104E000BF0220A07101202073E1
:104220002069A18AFDF786FCA17D032936D8DFE845
:1042300001F0031F070F00BF80BB012003E000BF98
:1042400001282BD103202968A075A16126E000BFB9
:10425000D5E90012A369C91A62F10002053972F1A9
:1042600000011BD3012811D10020A07515E000BF6B
:10427000D5E90012A369C91A62F10002053972F189
:1042800000010BD330B10020A07507E00220A0751B
:1042900004E000BF0220A07501202077206AA18CD5
:1042A000FDF748FC94F82610032939D8DFE801F01F
:1042B000021E060EA0BB012003E000BF01282FD183
:1042C0000320296884F82600A16229E0D5E90012BC
:1042D000A36AC91A62F10002053972F100011FD305
:1042E000012813D1002084F8260017E0D5E9001238
:1042F000A36AC91A62F10002053972F100010FD3F5
:1043000040B1002084F826000AE000BF022084F8B3
:10431000260005E0022084F82600012084F82C0005
:10432000206BA18EFDF706FC94F83610032939D8CE
:10433000DFE801F0021E060EA0BB012003E000BF73
:1043400001282FD10320296884F83600A16329E0D1
:10435000D5E90012A36BC91A62F10002053972F1A6
:1043600000011FD3012813D1002084F8360017E084
:10437000D5E90012A36BC91A62F10002053972F186
:1043800000010FD340B1002084F836000AE000BFDE
:10439000022084F8360005E0022084F8360001206F
:1043A00084F83C00206CB4F84410FDF7C3FB94F88B
:1043B000461003293AD8DFE801F0031F070F00BFBA
:1043C000A0BB012003E000BF01282FD103202968F2
:1043D00084F84600A16429E0D5E90012A36CC91A4B
:1043E00062F10002053972F100011FD3012813D1D7
:1043F000002084F8460017E0D5E90012A36CC91A22
:1044000062F10002053972F100010FD340B10020C2
:1044100084F846000AE000BF022084F8460005E068
:10442000022084F84600012084F84C00206DB4F886
:104430005410FDF77FFB94F85610032911D8DFE8DC
:1044400001F00327091100BF002818BFB0BD0120EB
:1044500003E000BF012804D10320296884F8560036
:10446000A165B0BDD5E90012A36DC91A62F10002C1
:10447000053972F10001F4D3012819BF022084F834
:104480005600002084F8560008BF84F85C00B0BDD8
:10449000D5E90012A36DC91A62F10002053972F163
:1044A0000001DED320B1002084F85600B0BD00BF6B
:1044B000022084F85600012084F85C00B0BD0000A2
:1044C00040F63051C2F2000188421FD040F69451AC
:1044D000C2F20001884227D040F6F851C2F2000132
:1044E000884231D140F2B010C2F20000016840F2BF
:1044F0000310814240F27800C2F2000026D0B1F5EC
:10450000827F18BF7047103021E000BF40F2E0000A
:10451000C2F200000068A0F20110042814D210A119
:1045200051F8200013E000BF40F24810C2F2000032
:10453000016840F20110814240F27800C2F20000AE
:1045400004D0B1F5817FDED0704700BF083040F65F
:104550000841C2F20001D1E90012C0E9001270471F
:10456000800000208800002090000020980000209B
:1045700070470000FDF7EABA4EF68850CEF2000010
:10458000016841F4700101607047000040F6F4607A
:10459000C2F20000FEF7B2BC40F64070C2F200006A
:1045A000FEF7ACBC40F6FF330268C4F2000343F2EE
:1045B000FF3C9842C4F2010C0ADD60452EDC40F657
:1045C0000043C4F20003984234D042F600432DE089
:1045D000B0F1804F2ED040F20043C4F20003984265
:1045E00028D040F60003C4F20003984222D0604570
:1045F00026DC40F2FF73C4F20003984236DD40F639
:104600000003C4F20003984246D040F60043C4F2CF
:104610000003984240D042F6004339E045F20003DF
:10462000C4F20103984205D043F20043C4F20103EF
:104630009842DCD14B6822F070021A436045D8DD05
:1046400044F2FF33C4F20103984219DD44F20043FF
:10465000C4F2010398421FD045F20003C4F20103E3
:10466000984219D044F6000312E000BFB0F1804F29
:1046700012D040F20043C4F2000398420CD00FE085
:1046800043F20043C4F20103984205D044F2000310
:10469000C4F20103984203D1CB6822F440721A435A
:1046A00080B54B6922F0800E8A6843EA0E03D1F888
:1046B00000C00360C262A0F18042A2F596324FEAC8
:1046C000B222092AC0F828C0BDE8804008D80123DA
:1046D00003FA02F240F2E5231A421CBF09690163A2
:1046E000012141610169C90708BF7047016921F0D3
:1046F000010101617047000010B5846A616A884257
:1047000012D0A16A884217D0E16A88421CD0216B7E
:10471000884220D1C06908210028217704BF0120E8
:1047200084F8410017E000BFC1690120002920770B
:1047300008BF84F83E000EE0C0690221217750B91D
:10474000012084F83F0006E0C0690421217710B9F8
:10475000012084F840002046FEF7EAFE0020207782
:1047600010BD000010B5846A616A88420AD0A16A4F
:10477000884209D0E16A884208D0216B884207D17B
:10478000082004E0012002E0022000E0042020775D
:104790002046FEF7CFFE0020207710BD10B5846ABA
:1047A000616A88420CD0A16A88420FD0E16A8842CF
:1047B00012D0216B884215D0012084F83D0016E00C
:1047C0000120207784F83E0011E000BF022020770E
:1047D000012084F83F000AE004202077012084F8BB
:1047E000400004E008202077012084F841002046A2
:1047F000FEF780FB0020207710BD0000816A0A07C9
:104800000CD4CA0715D18A071ED44A0727D4CA0672
:1048100030D48A0639D44A0642D457E00268D0F828
:1048200038C0536823F4004343EA0C035360CA07BB
:10483000E9D00268D0F82CC0536823F4003343EA6F
:104840000C0353608A07E0D50268D0F830C0536883
:1048500023F4803343EA0C0353604A07D7D5026838
:10486000D0F834C0536823F4802343EA0C03536028
:10487000CA06CED50268D0F83CC0936823F48053B2
:1048800043EA0C0393608A06C5D50268D0F840C09D
:10489000936823F4005343EA0C0393604A0615D54A
:1048A000D0F800C0436CDCF80420B3F5801F22F47C
:1048B000801242EA0302CCF8042007D1DCF804207D
:1048C000836C22F4C0021A43CCF80420090658BFB6
:1048D00070470168C06C4A6822F4002210434860A7
:1048E00070470000B0B582B004460020C4F89000C4
:1048F000FDF726F9216805460A68120737D56FF0DB
:104900007E4C20464FF4001100222B46CDF800C00B
:1049100000F0F8F950B300BF206850E8000F21689C
:1049200020F0800041E80002DAB1206850E8000F72
:10493000216820F0800041E8000292B1206850E830
:10494000000F216820F0800041E800024AB1206891
:1049500050E8000F216820F0800041E80002002AA2
:10496000DAD10320202188226BE000BF216808688B
:1049700040075DD56FF07E4C20464FF48001002249
:104980002B46CDF800C000F0BDF9002850D000BF84
:10499000206850E8000F216820F4907041E8000280
:1049A000BAB3206850E8000F216820F4907041E805
:1049B000000272B3206850E8000F216820F4907064
:1049C00041E800022AB3206850E8000F216820F473
:1049D000907041E80002002ADAD11AE0206850E81D
:1049E000020F216820F0010041E80202DAB12068DC
:1049F00050E8020F216820F0010041E8020292B164
:104A0000206850E8020F216820F0010041E802020E
:104A10004AB1206850E8020F216820F0010041E807
:104A20000202002ADAD1032020218C2209E000BFF3
:104A30002020C4F88800C4F88C00002170220020D7
:104A4000E166A150002184F8841002B0B0BD0000DE
:104A500070B5054605F108041ECC0068194341EA0B
:104A60000403EE69046846F6F311CCF6FF712140A9
:104A7000194331430160416848F2000C21F4405170
:104A800011434160AA69C4F2000C60451CBF296A49
:104A90000A4381684FF2FF43C1F2FF1319401143EB
:104AA0008160C16AD5F824E021F00F0141EA0E01CE
:104AB000C16244F6FF71C4F2000188424FF0100356
:104AC00018DC44F20041C4F20001884228D044F6C8
:104AD0000001C4F20001884232D044F60041C4F221
:104AE0000001884242D141F28801C4F20201096802
:104AF0008B0933E045F20001C4F20001884217D06F
:104B0000604525D043F60001C4F2010188422DD151
:104B100041F28801C4F202010B6876A222E000BFD4
:104B200041F28801C4F2020109688B0816E000BF57
:104B300041F28801C4F2020109680B0A0EE000BFCD
:104B400041F28801C4F2020109680B0906E000BFC6
:104B500041F28801C4F2020109688B0A45F690020D
:104B6000C0F6000203F0030152F82130604542F222
:104B70000040C0F2F40015D0B6F5004F22D1082B4A
:104B80004FF0010100F2AD80DFE803F0065C74AB8A
:104B900064ABABAB720000BFFDF706FC002840F031
:104BA0005D809AE0082B4FF0010100F29A80DFE867
:104BB00003F0059825981B9898982300FDF7F4FBBF
:104BC000B0B98AE0082B4FF0010100F28A80DFE8DB
:104BD00003F0053D6F88498888886D00FDF7E4FB88
:104BE000002842D179E000BFFDF70AFC002874D00C
:104BF000D5F824E002E000BF4FF4004045F636014E
:104C0000C0F6000131F81E106A68B0FBF1F002EB4B
:104C1000420188424FF0010163D31303984260D8E8
:104C2000010E000210EB520041F100010023FBF7DE
:104C300059FB4FF60052A0F54071C0F20F029142AD
:104C400049D34DE0FDF7C6FB40B946E0FDF7C2FB96
:104C500058B942E0FDF7D4FB00283ED0D5F824E057
:104C600008E000BFFDF7CCFBB8B3D5F824E01FE0A7
:104C70004FF4004045F63601C0F6000131F81E1031
:104C80006A68B0FBF1F0510801EB4000B0FBF2F0B4
:104C90004FF6EF72A0F11001914221D84FF6F0715A
:104CA0000140C0F34200084415E000BF4FF400404B
:104CB00045F63601C0F6000131F81E104FF6EF72CE
:104CC000B0FBF1F0696800EB5100B0FBF1F0A0F12E
:104CD0001001914204D82968C860002101E000BF9A
:104CE00001214FF00110A866002208466A67AA67F2
:104CF00070BD00BF010000000400000002000000C1
:104D0000080000002DE9F041804600681546C269A0
:104D10000E461140891BB1FA81F149098D4223D118
:104D2000069C2CB3611C29D1C1693140891BB1FAA1
:104D300081F149098D4217D1C1693140891BB1FA0E
:104D400081F149098D420FD1C1693140891BB1FA06
:104D500081F149098D4207D1C1693140891BB1FAFE
:104D600081F149098D42DFD00020BDE8F08100BF0C
:104D7000FCF7E6FE0320BDE8F08100BF1F4607E018
:104D8000C0693040801BB0FA80F040098542EBD109
:104D9000FCF7D6FEC01BA04200F2AE80D8F800009F
:104DA00001684907ECD5402EEAD0802EE8D0C169D1
:104DB000090700F1A580C1690905E1D54FF400613B
:104DC0000162D8F8000050E8000FD8F8001020F475
:104DD000907041E800020AB3D8F8000050E8000FD4
:104DE000D8F8001020F4907041E80002B2B1D8F871
:104DF000000050E8000FD8F8001020F4907041E84F
:104E000000025AB1D8F8000050E8000FD8F800109E
:104E100020F4907041E80002002AD2D14FF6FE70D3
:104E2000CEF6FF70D8F8001051E8021FD8F8002025
:104E3000014042E80213F3B1D8F8001051E8021F14
:104E4000D8F80020014042E80213A3B1D8F80010BE
:104E500051E8021FD8F80020014042E8021353B184
:104E6000D8F8001051E8021FD8F80020014042E8AD
:104E70000213002BD6D1D8F86C0001282CD1D8F819
:104E8000000050E8000FD8F8001020F0100041E8B2
:104E900000020AB3D8F8000050E8000FD8F800105C
:104EA00020F0100041E80002B2B1D8F8000050E84C
:104EB000000FD8F8001020F0100041E800025AB1AD
:104EC000D8F8000050E8000FD8F8001020F01000CB
:104ED00041E80002002AD2D120200021C8F88C002D
:104EE000C8F86C10C8F87410C8F89000032088F84F
:104EF0008410BDE8F08100BF0320BDE8F08100BF51
:104F000008210162D8F8000050E8000FD8F800101E
:104F100020F4907041E800020AB3D8F8000050E88D
:104F2000000FD8F8001020F4907041E80002B2B1F0
:104F3000D8F8000050E8000FD8F8001020F4907066
:104F400041E800025AB1D8F8000050E8000FD8F844
:104F5000001020F4907041E80002002AD2D14FF6F0
:104F6000FE70CEF6FF70D8F8001051E8021FD8F896
:104F70000020014042E80213F3B1D8F8001051E8D4
:104F8000021FD8F80020014042E80213A3B1D8F86C
:104F9000001051E8021FD8F80020014042E8021337
:104FA00053B1D8F8001051E8021FD8F80020014092
:104FB00042E80213002BD6D1D8F86C0001282CD17E
:104FC000D8F8000050E8000FD8F8001020F01000CA
:104FD00041E800020AB3D8F8000050E8000FD8F802
:104FE000001020F0100041E80002B2B1D8F8000033
:104FF00050E8000FD8F8001020F0100041E800023F
:105000005AB1D8F8000050E8000FD8F8001020F08E
:10501000100041E80002002AD2D12020C8F88C00FC
:1050200000200821C8F86C00C8F87400C8F8901077
:1050300088F884000120BDE8F0810000FEE7000050
:105040002DE9F04381B02DED028B40F27808C2F2D9
:10505000000898F80000D8B140F6084140F20A096B
:10506000C2F20001C2F2000999F800200F68002A7C
:105070006FF35F2700F0F780C00740F0B58045F27E
:10508000FA70C0F60000C47805794679B9E000BF2F
:1050900045F2FA70C0F60000C478057946799FEDB4
:1050A000E28A012021462A463346B0EE480A00F043
:1050B00023FA022021462A463346B0EE480A00F081
:1050C0001BFA032021462A463346B0EE480A00F078
:1050D00013FA042021462A463346B0EE480A00F06F
:1050E0000BFA052021462A463346B0EE480A00F066
:1050F00003FA062021462A463346B0EE480A00F05D
:10510000FBF9072021462A463346B0EE480A00F054
:10511000F3F9082021462A463346B0EE480A00F04B
:10512000EBF9092021462A463346B0EE480A00F042
:10513000E3F90A2021462A463346B0EE480A00F039
:10514000DBF90B2021462A463346B0EE480A00F030
:10515000D3F90C2021462A463346B0EE480A00F027
:10516000CBF90D2021462A463346B0EE480A00F01E
:10517000C3F90E2021462A463346B0EE480A00F015
:10518000BBF90F2021462A463346B0EE480A00F00C
:10519000B3F9102021462A463346B0EE480A00F003
:1051A000ABF9112021462A463346B0EE480A00F0FA
:1051B000A3F9122021462A463346B0EE480A00F0F1
:1051C0009BF9132021462A463346B0EE480A00F0E8
:1051D00093F9142021462A463346B0EE480A00F0DF
:1051E0008BF9152042E100BF45F2FA710C20C0F6A0
:1051F0000001B7F5807F88BF00200A180C5C557845
:1052000096789FEDB08A012021462A463346B0EEBB
:10521000480A00F071F9022021462A463346B0EED2
:10522000480A00F069F9032021462A463346B0EEC9
:10523000480A00F061F9072021462A463346B0EEBD
:10524000480A00F059F9082021462A463346B0EEB4
:10525000480A00F051F9092021462A463346B0EEAB
:10526000480A00F049F999F8010000284BD098F855
:105270000000800708D445F2FA70C0F60000C47838
:10528000057946790DE000BF45F2FA710C20C0F6B1
:105290000001B7F5807F88BF00200A180C5C5578A4
:1052A00096789FED888A042021462A463346B0EE40
:1052B000480A00F021F9052021462A463346B0EE7F
:1052C000480A00F019F9062021462A463346B0EE76
:1052D000480A00F011F90A2021462A463346B0EE6A
:1052E000480A00F009F90B2021462A463346B0EE61
:1052F000480A00F001F90C2021462A463346B0EE58
:10530000480A00F0F9F899F8020000284BD098F804
:105310000000400708D445F2FA70C0F60000C478D7
:10532000057946790DE000BF45F2FA710C20C0F610
:105330000001B7F5807F88BF00200A180C5C557803
:1053400096789FED608A0D2021462A463346B0EEBE
:10535000480A00F0D1F80E2021462A463346B0EE26
:10536000480A00F0C9F80F2021462A463346B0EE1D
:10537000480A00F0C1F8132021462A463346B0EE11
:10538000480A00F0B9F8142021462A463346B0EE08
:10539000480A00F0B1F8152021462A463346B0EEFF
:1053A000480A00F0A9F899F80300B8B398F800008B
:1053B00000073BD445F2FA70C0F60000C4780579C6
:1053C00046799FED408A102021462A463346B0EEAA
:1053D000480A00F091F8112021462A463346B0EEE3
:1053E000480A00F089F8122021462A463346B0EEDA
:1053F000480A00F081F8162021462A463346B0EECE
:10540000480A00F079F8172021462A463346B0EEC4
:10541000480A00F071F8182048E000BFBDEC028B8C
:1054200001B0BDE8F08300BFCDCCCC3D45F2FA71B0
:105430000C20C0F60001B7F5807F88BF00200A1855
:105440000C5C557896789FED1F8A102021462A46DD
:105450003346B0EE480A00F04FF8112021462A46A4
:105460003346B0EE480A00F047F8122021462A469B
:105470003346B0EE480A00F03FF8162021462A468F
:105480003346B0EE480A00F037F8172021462A4686
:105490003346B0EE480A00F02FF8182021462A467D
:1054A0003346B0EE480A00F027F8192021462A4674
:1054B0003346B0EE480ABDEC028B01B0BDE8F043C4
:1054C00000F01AB8CDCCCC3D70B50C460546FEF7C1
:1054D000B5F940F2DC16C2F2000606F51660C821E6
:1054E000FAF778FF28462146324640F28A23BDE883
:1054F0007040FEF721B80000182888BF704770B5CB
:105500009FED741AB5EE400AF1EE10FAB8BFB0EE96
:10551000410AB7EE001AB4EE410AF1EE10FAC8BF24
:10552000B0EE410A01EE102AB8EE411A20EE011A3F
:1055300040F2080CBDEEC11AC2F2000C11EE102AA6
:1055400001EE101A9CF8011000EB400550B2002843
:1055500008464FEAC50402EE103A9CF8003048BFF6
:10556000184640F2DC1EA6B2C0B2C2F2000E4EF8DF
:1055700026005006084648BF18460EEB8604C0B207
:1055800060609006084648BF1846C0B2A060D006CA
:10559000084648BF1846C0B2E0601007084648BF3A
:1055A0001846C0B220615007084648BF1846C0B22E
:1055B00060619007084648BF1846C0B2B8EE411A6D
:1055C000A061D00720EE011A184608BF0846BDEEBC
:1055D000C11AC0B211EE102AE06150B208240028AE
:1055E000084604EBC50448BF1846A6B2C0B24EF840
:1055F00026005006084648BF18460EEB8604C0B287
:1056000060609006084648BF1846C0B2A060D00649
:10561000084648BF1846C0B2E0601007084648BFB9
:105620001846C0B220615007084648BF1846C0B2AD
:1056300060619007084648BF1846B8EE422AC0B2DB
:1056400020EE020AA061D00708BF0B46D8B2BDEE1B
:10565000C00AE06110EE101A9CF801404BB2102015
:1056600000EBC502002B23469CF8000096B248BF11
:105670000346DDB222460EEB86034EF826504E0658
:1056800048BF0246D2B25A608A06224648BF024646
:10569000D2B29A60CA06224648BF0246D2B2DA6047
:1056A0000A07224648BF0246D2B21A614A0722467A
:1056B00048BF0246D2B25A618A07224648BF024614
:1056C000D2B29A61C90708BF2046C0B2D861BDE80E
:1056D000704070470000000094B0FCF745FA0024C9
:1056E00000200C94CDE90A44CDE90844FCF7DCFA2B
:1056F000012006904FF480300521079002200F9181
:1057000040210D900325CDE91010CDE9120006A827
:105710000E95FCF7B7FE28B1EFF3108072B600BF0C
:10572000FEE700BF0F20CDE9010501A80421CDE966
:1057300003440594FCF7B6FC20B1EFF3108072B679
:10574000FEE700BFFEF7E2FAFEF72AFAFEF754FA88
:10575000FEF780FAFEF7ACFAFEF736FBFEF7D8FB51
:10576000FEF7C8FCFEF776FCFEF79CFCFBF70CFA94
:1057700040F65C60C2F200000068C16821F00101DF
:10578000C160C16821F00201C16040F6A860C2F2A8
:1057900000000068C16821F00101C160C16821F00A
:1057A0000201C16040F6F460C2F20000FDF734FA75
:1057B00040F64070C2F20000FDF72EFAFAF770FED4
:1057C0000120FBF79BFCF9E7F1EE100A4FF6FF71A1
:1057D000C0F2C03120EA010040F04070E1EE100A52
:1057E00070470000000000000000010203040607EB
:1057F00008090000000001020304FF000000FF0090
:105800000000FFFFFFFF000000FFFF0000FFFFFFA1
:1058100000FFFFA500FFC0CBFFD700BFFF0098FF30
:1058200098EE82EE4B0082FFDFC4C8FFFF87CEEB0D
:10583000808080FF7F500100020004000600080005
:105840000A000C0010002000400080000001000150
:10585000020304050607080C10141820304000004D
:10586000020000000400000008000000100000001A
:10587000FDFFFFFFFBFFFFFFF7FFFFFFEFFFFFFF56
:10588000FFFDFFFFFFFBFFFFFFF7FFFFFFEFFFFF46
:1058900000000000040000000200000008000000FA
:1058A00001010103070100000804020408010101CD
:1058B000D058000800000020180000003C0200083A
:1058C000E858000818000020101600005C020008CC
:1058D0001000000001000000703801010101010109
:0858E0000024F40001000000A7
:04000005080001D915
:00000001FF
